:020000040000FA
:1000000000400020ED530100295401002B54010051
:1000100000000000000000000000000000000000E0
:100020000000000000000000000000002D5401004E
:1000300000000000000000002F54010031540100B6
:10004000335401004D440100E55D010033540100CB
:100050003354010000000000F59701003354010003
:10006000B9B000003354010055940100335401002D
:100070003354010033540100335401003354010060
:1000800033540100D15A01003354010033540100AC
:1000900033540100799101005591010001B2000033
:1000A00011B2000033540100000000000000000005
:1000B0000000000000000000000000000000000040
:1000C00008B5054B054803331B1A062B03D9044B0F
:1000D000002B00D0984708BD2801002028010020EF
:1000E000000000000648074908B5091A8910CB0F1F
:1000F0005918491003D0044B002B00D0984708BD75
:1001000028010020280100200000000010B5074C45
:100110002378002B09D1FFF7D3FF054B002B02D02A
:10012000044800E000BF0123237010BD2801002017
:100130000000000078B1030008B5094B002B03D084
:100140000848094900E000BF08480368002B02D1B5
:10015000FFF7C8FF08BD064B002BF9D09847F7E71B
:100160000000000078B103002C01002028010020CD
:1001700000000000144B002B00D1124B9D46402282
:1001800092029A1A924600218B460F461148124A53
:10019000121A2BF04EF80D4B002B00D098470C4B49
:1001A000002B00D098470020002104000D000B48D0
:1001B0002AF018FF20F038FF2000290028F02FFD3A
:1001C00020F07EFC0000080000400020000000003D
:1001D0000000000028010020D82F0020D90D0200C7
:1001E000C4600561466187614146C161494601625B
:1001F00051464162594681626946C16271468160D9
:10020000124B1A6802601860002070470F4B1A6882
:1002100012681A6070470D4B1A68002A01D124F049
:10022000CFFC506010681860D468156956699769EA
:10023000D1698846116A8946516A8A46916A8B4615
:10024000D16A8D4691688E4601207047902E00201D
:10025000074BDB68002B09D05A68904204D3801A00
:1002600004308000C05802E01B68F3E7181C704798
:10027000882E002038B5114D041CEB689868DB68A7
:1002800083420FD30230C00023F0E2F9EB68DA6852
:10029000596803609B6852185B00836000234260CA
:1002A000C360E860E968CB6848685A1C04339B0067
:1002B0000138CA6080185C5038BDC046882E0020C6
:1002C000074B4118884205D25A01D31802780130F1
:1002D0005340F7E7D8B2002800D101307047C0463C
:1002E00005150000034B044ADA6000228C331A60C3
:1002F0007047C046882E002098B90200F0B585B03E
:10030000071C0E1CFFF7DCFF164B0290DC68002C6C
:1003100024D0231C10330193E368019D04339B0018
:10032000E3180393039B9D4216D22868029A037830
:1003300093420FD14378B3420CD10230391C321CA6
:100340002AF04BFF002805D1019BE81A636885104D
:10035000E81804E00435E5E72468D8E7201C05B078
:10036000F0BDC046882E0020F0B585B00290019106
:10037000FFF7C4FF021E5BD12F4C019B271C8C375B
:100380003868DD1C002819D0261C2C4B90361B68C1
:1003900031680393EB188B4210D9691823F07BF96D
:1003A0000390002807D1254B3868196823F066F9B7
:1003B000039B3B6002E03368EB183360231C8C33F3
:1003C0001B68002B17D12E1E7F2E00D88026301CD4
:1003D000271C23F04AF98C373860002804D1281CE8
:1003E00023F036F92E1C3860231C90331E60231C2A
:1003F000002294331A60221C943213688C342468CF
:10040000ED1801990298E4181560FFF759FF6B4643
:100410001B79207063700299019AA01C2AF0ECFEEF
:100420000022019B201CE3189A70FFF723FF021C97
:10043000101C05B0F0BDC046882E00201C2F0020E7
:10044000F7B51D1C161C0023071C03600B603360EE
:100450002B60174B0091DC68002C24D0154B9C427C
:1004600021D03B6801333B60E268009B94461B68E7
:10047000009A019363441360221CE3681032043332
:100480009B00E3189A4206D23168C81C02CA497818
:1004900041183160F6E7201C06F0B4FD2B68246893
:1004A00018182860D8E733682A68D3182B60F7BD7E
:1004B000882E002098B902000C4B70B5DC68002C27
:1004C00013D00B4B9C4210D0261CE36810361D1D28
:1004D000AD006519AE4206D204CE06490232064886
:1004E00026F067FBF6E72468E9E770BD882E002058
:1004F00098B902007224030010F0020038B5051C00
:10050000141C22F00CFB024B2560636038BDC04612
:10051000DD2A020010B50C1E7F2C06D8012122F026
:1005200066FB002844D0047042E0224B99420FD869
:10053000022122F05CFB00283AD04022A30952425B
:10054000134303703F231C40BF3B1C4344702FE008
:10055000194B994214D8032122F049FB002827D0D7
:100560002022230B52421343037080213F23A20910
:1005700049421A401C400A430C434270847017E001
:10058000042122F034FB002812D01022A30C524286
:100590001343037080213F23220B49421A400A4330
:1005A0004270A2091A401C400A430C438270C47076
:1005B00010BDC046FF070000FFFF000007B5034B5A
:1005C0000090684601930EF0A9F807BDDD2A0200ED
:1005D00008B50348096801F0B1FA024808BDC046F1
:1005E00010F0020074E0020010B5041C02A80078AC
:1005F000002906D0002804D10F49104827F07FFCBD
:1006000008E09A4208D1944214D00C480C49231CAB
:1006100010F0BAFEFFF7FFFD944205D2121B094904
:10062000064810F0B1FEF5E79C4203D9034806499D
:100630001A1CECE710BDC046573F030000FD020046
:10064000803F0300B93F0300EB3F0300F0B50025F6
:10065000171C87B00C9C0D9E039004910593029586
:100660000195059B9D4239D0039B9D4209D2636849
:100670009B0537D4019B049A01330193AB00D058FA
:1006800019E006212368381CDB001943002204F01E
:1006900007FA00280BD16368DB0505D519492268E4
:1006A000194810F071FE21E0A368336012E0029B4C
:1006B0004068013302932379012B03D101F02AFC16
:1006C000307007E0022B02D101F0E4FA01E0032BC5
:1006D00000D1306001350C340436C2E7019B039A27
:1006E000934205D20848094927F009FCFFF793FD1A
:1006F0003B68029ADB089A4202D203480449F3E7B6
:1007000007B0F0BD1A40030000FD020031400300B5
:1007100052400300002805D0012809D18B685B00F6
:10072000184306E08B680348002B02D1024800E022
:100730000020704734CD020078CD02007FB5041C44
:100740000122081C01A901F065FC0022217940204A
:1007500009F0B8F8061C0298311C19F07DF962689E
:10076000051C130A834208D2A368C1187143E068CC
:1007700022F084FF2379E06003E01B1A1B02D2B24F
:100780001343321CA06863607043E3686A4318181F
:1007900001992AF031FDA36802485D19A56004B0F3
:1007A00070BDC04674E00200F7B5FF254668041C22
:1007B0000191AE431DD10179321C402009F082F82D
:1007C0006368071C1D408023A1681B011D4308317D
:1007D00041436560E06822F051FF6368E0601A0AF7
:1007E000A368013A01337A435F43311CC0192AF0F0
:1007F00020FD2079019BE168A26809F0BDF9A3689A
:1008000003480133A3606368013BFF3B6360FEBDA7
:1008100074E0020010B5041C102022F02BFF024BE4
:100820004460036010BDC046D8C5020070B50A79A7
:10083000041C0D1C002A09D1194926F0EEF8201CD1
:10084000E968AA6801230BF04DFA23E0154926F068
:10085000B0F9AB68002B1DD0201C134926F0DDF841
:100860000026AB689E4211D2002E03D0201C0F49F7
:1008700026F0D3F8321CE968287909F045F80122FE
:10088000011C201C01F036F90136EAE7201C08495A
:1008900026F0C3F8201C074926F0BFF870BDC046FB
:1008A000704003007C400300874003008B4003003E
:1008B0006AB003001B430300F8B5071C0D1C402061
:1008C000391C002208F0FEFF061E05D10C490D4818
:1008D00027F015FBFFF79FFC102022F0B9FE0A4B12
:1008E000041C002F00D0094B281C2360FBB2A5601C
:1008F0007043636022F0ACFEE060201CF8BDC0468F
:100900008E40030010F8020050C6020014C6020018
:10091000F0B5061C8BB00D1C141C12283AD034D82C
:10092000052800D087E0081C012204A922F0F4F970
:10093000201C07A9012201F06DFB069B00220393F6
:100940006B464020197B08F0BDFF061C0898311C3F
:1009500019F082F8069B071C03936B46A968187B65
:100960007918FFF7A9FF059B041C1A1C0499C0689D
:1009700003932AF041FC321CE36805987A43181867
:1009800007992AF039FC231C56E01B2839D01F2870
:1009900006D050E0081C111CFFF7D0FE2B1C4BE0CA
:1009A000101C07A9012222F02CFD0322002814D0DC
:1009B000234B154240D1234A296891423CD104A9D6
:1009C000281C012222F0A8F901230498009305991C
:1009D000079A089B24F00EFF28E0E3070ED4144288
:1009E00003D1194B22689A4208D00322144B2240AB
:1009F000022A21D1154A1440062C1DD0144808F0B3
:100A000065F9081C012204A922F086F9201C07A917
:100A1000012222F0F6FC0A4B00280DD0089B301C66
:100A200000930499059A079B24F02CFD094B00289C
:100A300002D1034B00E00023181C0BB0F0BDC046F0
:100A400078CD020050C6020030D30200070080FFBC
:100A5000BF74030034CD0200F0B5051C87B00E1C36
:100A6000002808D08B0724D10B68264A934202D075
:100A7000254A93421DD1301C03A9012222F0C1FC5A
:100A8000002816D00022291C402008F01BFF061C5D
:100A90000498311C18F0E0FF071C281C391CFFF7D4
:100AA0000BFF321C041C7A430399C0682AF0A4FB94
:100AB00024E0301C01F00AFA071E00D04710391C50
:100AC000281CFFF7F9FE041C301C07F051FB002620
:100AD0000090009807F09AFB031E0FD0002F04D15E
:100AE000201C191CFFF760FEF3E7721C0192281C02
:100AF000321CE16809F040F8019EEAE7201C07B0CB
:100B0000F0BDC04648EF020050C6020070B586B086
:100B1000002A44D00324161C051C0A1C0C402CD1AE
:100B2000204B0968994228D1111C806803AA0AF059
:100B300093FB002802D11C4808F0C8F8221C042EA0
:100B40002DD12979402008F0BDFE049B061C287990
:100B50000093039B0193019A009B991AFFF7ACFE47
:100B6000041C0399049AEB68521A71437243591892
:100B7000C0682AF041FB221C11E0A9682868002304
:100B800001F060F9E968021C2879042E03D108F00D
:100B9000BBFE021C03E0331C08F0EEFF034A101CEE
:100BA00006B070BD00E202009B40030074E002004A
:100BB00037B51D1C00230C1C0093081C111C1A1CAB
:100BC0000133FFF711FD002C04D1201C211CFFF77D
:100BD00073FE1BE02968CB0705D48B0713D10C4BA0
:100BE0000A689A420FD1081C01F054F8051C002035
:100BF000291CFFF761FE041C0021C0682A1C2AF092
:100C000018FB201C02E00020FFF726FF3EBDC04677
:100C100030D30200002805D0012809D18B685B0081
:100C2000184306E08B680348002B02D1024800E01D
:100C30000020704734CD020078CD02000021F0B5CD
:100C40008568EA0F5219521091420DDA074BC668B7
:100C5000EB185B1A8C009B003419F6582768266045
:100C6000C4680131E750EFE70148F0BDFFFFFF3FE7
:100C700074E0020038B50D1C83684168041C8B4287
:100C800012D3C900C06822F0F9FC63680A495A000F
:100C9000A3686260D21A013352189B00E060920090
:100CA000C01800212AF0C5FAA368E268591C9B000D
:100CB000A16002489D5038BDFFFFFF3F74E0020075
:100CC000F8B5071C161C4C10836803D5E418E243E2
:100CD000D21714409C4200D91C1C0C4D381C291CF6
:100CE000FFF7C8FFAC46BB6809495A1E5B189B005A
:100CF0001D1FF968A24204DD4859013AC8502B1C57
:100D0000F6E7A4000E516046F8BDC04674E002004C
:100D1000FFFFFF3F38B50025041C85601021C06827
:100D200022F0ACFC0423291CE060636010222AF04E
:100D300080FA014838BDC04674E002007FB50C1C43
:100D4000114B02AD04310093013802230195FFF7E6
:100D50007DFC23680D4C9968012911D9D868029A45
:100D60000B4B2D79C918131B5E1EB34189005B42E2
:100D70001A404118074B002D00D1074B22F018F8FC
:100D8000201C04B070BDC046D8C6020074E002004A
:100D9000FFFFFF3F78CD020034CD020070B50C6834
:100DA000021CA368002B05D11A491B4827F0A7F89D
:100DB000FFF731FA2068012A01D04A6801E00122D8
:100DC0005242191C002301F03DF8E268A36881003B
:100DD0005618013B043151181A1A35689200A36065
:100DE000301C2AF012FA0021A368E0689A00115022
:100DF000616804290BD95B00994208D94908890028
:100E0000E06822F03BFC6368E0605B086360281CDC
:100E100070BDC046CC4003006CF9020007B50090DD
:100E200001910220694622F025F8694601900220CE
:100E3000FFF7B4FF00480EBD74E0020070B50E1C51
:100E40000D49051C002425F0E8FDB3689C420ED234
:100E5000002C03D0281C094925F0DFFDF268A3000F
:100E60009958281C012200F045FE0134EDE7281CAA
:100E7000034925F0D2FD70BD894003008B4003007B
:100E80006AB0030070B50326041C0D1C0E4028D167
:100E9000174B0A689A4224D18B6882689918436874
:100EA000994210D904318900C06822F0E7FBAB6891
:100EB000A268E0609B181A1D9B006260C018311C7C
:100EC00010222AF0B6F9A368E9689800E3681818B8
:100ED000AB689A002AF090F9AB68A268D318A360B7
:100EE00003E0201C291C21F0CEFF024870BDC04643
:100EF0009CC6020074E0020010B5041C102022F011
:100F0000A7FB044B84600360034B43600023C36072
:100F100010BDC0463CE20200932D020038B50B4BD9
:100F2000051C03600C1C081E042800D20420686005
:100F3000AC60800022F08CFB6A68E860121BA400A1
:100F40009200001900212AF074F938BD9CC60200F5
:100F50007FB50D1C161C12282AD004D8052807D0EE
:100F600007282BD058E0031C193B042B41D953E030
:100F70000322002332409A424FD1131C3168284A81
:100F800091424AD1B368AA68981821F095FF041CD1
:100F9000AB68E9689A00C0682AF02EF9A868E3688F
:100FA00080001818B368F1689A002AF025F91EE04D
:100FB000081C111CFFF766FF2B1C2EE0101C03A958
:100FC00000F0A6FE0023984227D0039A9A4200DA46
:100FD0000393039BA868584321F06EFFC368041C69
:100FE0000093E8680421AA68039B24F017FA231CE5
:100FF00013E00C4BB20710D1094A316891420CD171
:10100000B368E9680093AA68F3680AF05FF9064BD1
:10101000002802D1034B00E00023181C04B070BD6F
:101020009CC6020078CD020034CD0200F0B50B1C46
:1010300087B0041C171C0326002A16D10E400DD1C0
:10104000524A0968914209D1191C03AA80680AF022
:1010500003F90398049AE368851A78E003A902204B
:1010600003940493FFF79AFE8DE0042A2DD13142B8
:1010700021D1464A096891421DD18068191C03AAF2
:101080000AF0EAF8002805D1A068E16803AA24F074
:10109000D8F979E0039B0498C01A21F00DFF051CD4
:1010A0008368E1689A00039BC0689B00C9182AF016
:1010B000A3F8281C68E01A1C20680023A16800F02F
:1010C000C1FEE3688000C0585EE00E4056D12F4A52
:1010D0000968914252D1191C03AA80680AF0BCF831
:1010E000BA680398049B85180193ED1A002D22DD40
:1010F000A368E9186368994207D98900E06822F07B
:10110000BDFAA368E060EB186360039AE368A8186F
:101110009100800059181818A3689A1A92002AF0B2
:1011200074F8039BF9689800E3681818BB689A0084
:101130002AF062F81EE0E368800018189200F9684F
:101140002AF05AF8B8680399E368049A40189100A5
:10115000800059181818A3689A1A92002AF055F8B6
:10116000A3686A42E818E368800092001818311CEE
:101170002AF05FF8A3685D19A56004E0201C191C23
:101180003A1C21F0DBFE024807B0F0BD00E202008D
:1011900074E00200002313B5046A00930A05A16BF2
:1011A000024C920C125921F068FF13BDDCC70200FB
:1011B000F0B51C7887B07C2C06D185686D5C002D5D
:1011C00002D09A2D00D0DEE00393231C6B3B0292E9
:1011D0000091071C022B29D884687D686018037869
:1011E000032B00D0ACE004A922F03AF8631998422E
:1011F00000D19EE00378032B00D0A1E005A922F0E6
:101200002FF8039B1B786B2B03D1049B059A134388
:101210000AE06C2B03D1049B059A534004E06D2B2C
:10122000E4D1059B049A13400493DFE76E2C04D0AD
:101230000223221C9A43702A63D1009BBE68F018D7
:101240007B6801930378032B7AD104A922F008F874
:10125000051C019BF3189D426BD0AB78A81C6C78E1
:10126000032B6DD105A921F0FBFF051C372C0ED1F6
:10127000059A1F2A64DC4549049B11418B425FDCBF
:10128000C021090611418B425ADB934009E0392CF9
:1012900009D1059B1F2B01DD1F230593049B059A94
:1012A0001341049328E02F2C03D1049B059A9B182B
:1012B000F7E7302C03D1049B059A9B1AF1E7312CF8
:1012C00009D10498059907F00BFD002838D1059B3A
:1012D000049A5343E5E7332C32D00599352C05D1D8
:1012E00000292DD0049823F08FFB04E0002927D09B
:1012F000049823F099FB0490049B5A005340A8D50E
:101300001EE0752C1CD18368009A98188378447865
:10131000032B15D1023021F0B2FF2F2C08D0302C36
:1013200005D1404243000490584002D508E0C04334
:101330000490009B381C7B60049921F0CEFE22E0D3
:1013400000267B68009A029C9D1A0136E409FCD1B4
:101350002B1C0134DB09FCD1731C1A19381C0099B1
:10136000019321F07EFC071C039B311C1B78029A21
:101370001A330370013021F02CFE019B211CF81858
:101380002A1C21F026FE07B0F0BDC046FFFFFF3F3C
:10139000F0B597B00990C020002540230AAC80002A
:1013A0000F1C161C25706360A56022F05EF9256194
:1013B000E0606561A561E5612762E562A84202D14E
:1013C000BF48C049C0E1331E03D00423022E00D021
:1013D000033B0026BC4A9B000096201CB96B9A5820
:1013E000331C21F04AFE102022F032F91021041C97
:1013F00021F095FB0AADAB68002B00D181E12A7882
:10140000002A00D07DE1013B0C32AB605343EA6817
:10141000AD49D318DA785D689200525803921A6881
:101420009B681202120A0493039B06925B7807934F
:101430000F23079A1A400592002D01D16368049387
:101440003023079A1340102B02D0202B40D0F4E019
:10145000002D03D0002E01D10026CBE7039B6A00AC
:101460009A18059B9D4231D25388190B012916D138
:10147000391C403109781B0502321B0D994221D1DC
:101480000AA8211C21F05EFE0028E5D13B1C403358
:101490001B78062B00D04CE18C488D4954E1059A0D
:1014A0006B1C934206D2049A0AA800920699039AEA
:1014B00021F0E3FD039B6D005D1969880AA8FFF721
:1014C00069FEC9E70135CCE7012DDFD8012691E798
:1014D000002E0BD0039A6B009B5A1B0B032BF3D1EE
:1014E000201C012121F083FB00230370039B6E006D
:1014F0009E191AE073881A0B012A29D13A1C40322E
:101500001278DBB29A4220D1082A07D1B96CF86C64
:10151000FEF72AFF011C201C21F0A5FD002D08D09C
:10152000381C23F031FF01350236059B9D42E1D383
:1015300010E0039B5B787F2BF2D90E9B201C591C7B
:1015400007930E9121F0C9FDEAE7002DBED09DE77B
:101550006B1CA8E700231E1C059A93420CD203992A
:101560005A008A185288110B012903D1D2B2072AD6
:1015700000D901260133EFE7A368049A98180023E5
:101580000793A2686368D318984206D2079B01218B
:101590000133079321F03DFDF3E7039B1B781F2BDD
:1015A00001D02E2B00D10126039B597840230B40FC
:1015B000181C4342434149B25B421E40002900DAF5
:1015C00001260025049B0595D0180895079B9D4290
:1015D0000FD0059A037801320592002B04D0089BA6
:1015E0000133089300230593012121F012FD0135F9
:1015F000ECE7002E02D1089B012B04D0201C05999A
:1016000021F062FB76E0A268049B944663441D1CB3
:10161000079B9E4200D11FE72B78002B06D1A368C1
:10162000201CE91A012221F05DFB04E0281C0121A5
:1016300021F0EFFC051C0136EAE7002E1FD0059BC8
:10164000022B03D10023012D45D13FE7012D00D10D
:101650003CE701232A1C1A403CD0059A032A3AD0C1
:1016600014E73A1C0899403212780905090D8A429C
:1016700017D1002B10D0381C23F086FE0135012332
:10168000079A039913402B405A008A1852880892EF
:10169000120B012AE5D006E00AA8211C21F052FD18
:1016A000ECE70135CBE7049A0AA8009206996B1C77
:1016B000039A21F0E2FC0AA80899FFF76BFD99E66E
:1016C00090F80200E9400300DCC70200F8FA0200CB
:1016D00011410300131C079A691ED20705D5039A0E
:1016E0009288120B012A00D16908012902D1002B2E
:1016F00000D1B1E6201C0499069A039BFFF758FD20
:10170000AAE62B78002B00D05AE63B1C40331E780B
:10171000002E00D0BAE66368002B00D1B6E62B6934
:10172000201C591C21F0D9FCA3686B62EB69AB62E9
:101730000FE0022B02D11448144905E00B3B14487A
:101740001449012B00D9144926F0D9FB0023061CAB
:1017500013930D9821F0A3FF002E0BD0301C396895
:10176000BA6B00230FF07EFE381C23F09BFD301C6B
:10177000FEF751FD381C23F095FD099A13AB13CBEE
:1017800013C2099817B0F0BDF8FA02002341030014
:1017900078FD0200574103007E41030010B5041C90
:1017A000102021F055FF044B84600360034B43601D
:1017B0000023C36010BDC0463CE20200713302004A
:1017C00013B5041C081C01A90AF06CFB002C07D0FF
:1017D000012C0BD1019922F033FB4000204306E09D
:1017E000019B0348002B02D1024800E0002016BDF7
:1017F00034CD020078CD0200F0B585B0041C081C81
:1018000003A9151C0AF04EFB061C002D06D1201C56
:101810003549039A331C25F0CCF963E0011C002202
:10182000039BC3180093009B99420ED20B78272B81
:1018300004D0223B58424341DBB201E000230122A5
:101840000131002BEFD0272703E02727002A00D003
:10185000053F264D201C291C3A1C25F0AAF90195AC
:10186000009B9E4239D2301C22F0B9FA051C301C74
:1018700022F0D0FA061CBD4203D1201C1C493A1CA0
:1018800028E05C2D02D1201C1A4914E02B1C203BBF
:101890005E2B02D8201C01991BE00A2D02D1201CCE
:1018A000154908E00D2D02D1201C144903E0092D33
:1018B00004D1201C124925F0B0F8D1E7FF2D02D841
:1018C000201C104905E0104B201C10499D4200D9F6
:1018D0000F492A1C25F06DF9C2E7201C01993A1C1A
:1018E00025F067F905B0F0BD8D4103009341030079
:1018F0009241030096410300994103009C4103007B
:101900009F410300A2410300FFFF0000A941030023
:10191000B0410300F7B51F1C08AB0C1C161C1D784A
:10192000FB0702D57F1001970EE0381C01A900F0DB
:10193000EFF9002808D1381C21F04DFD1B49021C8D
:101940001B480FF021FD0DE0019BA019002B17DAB9
:101950000138A04208D20193002D25D1154816491F
:101960000FF012FDFEF757FC3F21027801388A4341
:10197000803A511E8A419B18002BEAD1013014E0B5
:10198000002B11D0844203D30193002D0DD1E5E744
:101990003F2122788A43802A01D10134F8E7002BC5
:1019A00002D00134013BEDE7201CFEBDB74103002E
:1019B00000FD02006CF90200DF410300F0B587B0C2
:1019C000061C0D1C171C00F07BF802A9041C301C1F
:1019D0000AF068FA061C042F4FD1AB0735D1284B0B
:1019E0002A689A4231D105AB281C03A904AA23F026
:1019F00006FD059B234FBB4204D0032B02D0224897
:101A000007F064F9039B351CBB4207D00122201C60
:101A10000092311C029AFFF77DFF051C049BBB421C
:101A200008D00122201C0092311C029AFFF772FF9D
:101A3000021C01E0029BF2180E20AA421ED3521B88
:101A4000201C291C23F0F5FE18E00023311C009314
:101A5000029A2B1C201CFFF75DFF0278012153B274
:101A6000002B06DA402301211A4202D001315B0823
:101A7000FAE701220AF0D8F900E0002007B0F0BD33
:101A800000E2020074E002009B40030013B5041C56
:101A9000A06806F0BBFB019000280ED06368074ADF
:101AA000934205D0181C0121002201AB06F066FA12
:101AB00000F030FA0028EBD0019816BD74E0020067
:101AC000084BC2070BD4084A084B0240062A06D02E
:101AD00003230340022B01D1054B00E00368181CCF
:101AE0007047C04630D30200070080FF80CA020062
:101AF0000CD00200F8B50D1C041C161C01F0B8FE39
:101B0000281CFFF7DDFF8768031C201C002F03D073
:101B1000291C321CB84703E002495A6825F049F8ED
:101B2000F8BDC046F941030008B5031C0A1C024871
:101B3000191CFFF7DFFF08BD10F00200F7B5051C08
:101B4000081C0E1C26F0DFF900282AD0301C69463C
:101B500001AA0FF0BFFC009B002B22D0281C1649C5
:101B600024F05BFF009C154BE71EE418A400002F37
:101B700017DB019A281C13195B681259104925F0CC
:101B800018F8019B281C1B199A68002A03D10D49DB
:101B900024F043FF02E00C4925F00BF8033F0C3C16
:101BA000E5E7281C311C0222FFF7A4FF281C054989
:101BB00024F033FFF7BDC046FE410300FDFFFF3FA9
:101BC000224203003F4B03003742030010B5041CC0
:101BD000FFF776FF054B0069984203D0431E9841FA
:101BE000C0B202E0201C23F07FFD10BDF9B8000058
:101BF00038B5051C0C1C01208D4241D0214B9D4263
:101C000001D100203CE09942FBD001231D4204D0C9
:101C10001942F6D12B1C0D1C1C1C2A1C1A4B1A40F5
:101C2000062A05D0AA0711D1184A296891420DD178
:101C30002340062B05D0A307E3D1144B22689A4218
:101C4000DFD1281C211C0AF057FD19E02340062B88
:101C5000D7D0A30703D10D4B22689A42D1D0281CBC
:101C6000FFF72EFF8369002BCBD01B20291C221CE1
:101C700098470028C5D0064BC01A42424241D0B214
:101C800038BDC04674E00200070080FF80CA020031
:101C900034CD020008B5104B984219D00F4A0123E9
:101CA000904217D0184201D0184114E0830706D1A2
:101CB0000B4B02689A4202D103F014F90BE021F0B9
:101CC0008AFB0849021C08480FF05EFBFEF7A3FAE6
:101CD000002000E0181C08BD78CD020034CD0200C1
:101CE00030D302004042030000FD020008B5C307E4
:101CF00005D4830706D1054B02689A4202D122F02F
:101D000036F801E0FFF7C6FF08BDC04630D3020039
:101D100038B50F4B0124984202D100230B6014E028
:101D20000C4B984201D10C600FE0031C234002D001
:101D30004010086009E0820708D1074A056895420B
:101D400004D10D1C03F0CEF82860231C181C38BDEC
:101D500078CD020034CD020030D3020008B5184B14
:101D6000984228D0174B984227D0C30703D540107C
:101D700018F060FF23E00323184206D1124A0168DD
:101D8000914202D121F0FCFF19E00340022B09D15E
:101D90000E4B0340062B05D0FF23DB05C0180323A1
:101DA00098430CE021F017FB0949021C09480FF089
:101DB000EBFAFEF730FA002001E0FE20800508BDB6
:101DC00078CD020034CD020030D30200070080FF3E
:101DD0005842030000FD020010B583070CD10368D0
:101DE0000A4CA34202D123F0C7F80EE0084CA342EC
:101DF00002D121F09CF808E021F0EDFA0549021C1F
:101E000005480FF0C1FAFEF706FA10BDBCDC02006F
:101E10009CC602007242030000FD020013B50C1CB8
:101E200001A9FFF7D9FF019BA34206D00349221C59
:101E300003480FF0A9FAFEF7EEF913BD954203002F
:101E400010F80200F7B5051C0C1C171C1E1CD3074C
:101E500002D55710019710E0101C01A9FFF758FF99
:101E600000280AD1381C6C6821F0B5FA1349031C0C
:101E7000221C13480FF088FA1BE0019B002B08DAA4
:101E80001B190193002E0AD0002B04DA00230193C2
:101E900011E0002E03D0A3420DD901940BE0019B69
:101EA000002B01DBA34206D3064807496A680FF0FE
:101EB0006BFAFEF7B0F90198FEBDC046C2420300BE
:101EC00000FD02006CF90200E642030010B5041C9C
:101ED000830710D10D4B02689A420CD10C4B034082
:101EE000062B03D1C00820F0C5FD00E08068012367
:101EF0004000184308E0201CFFF7E2FD4369181E6C
:101F000002D00120211C984710BDC04648EF0200B6
:101F1000070080FF174A70B50023904227D0164C67
:101F2000A04201D1012322E0144A002390421ED096
:101F3000012606409E4201D0401015E0051CFFF727
:101F4000BFFD4369002B09D0301C291C984700288D
:101F500004D0031B58424341DBB208E0281CFFF7C2
:101F6000B5FF0028DED00138431E9841C3B2181CCB
:101F700070BDC04678CD020034CD020074E002008E
:101F800010B5041CFFF7A2FF002809D1201C21F086
:101F900022FA0449021C04480FF0F6F9FEF73BF957
:101FA00010BDC046FC42030000FD020070B5041CD9
:101FB0000D1C161CFFF784FD036A002B05D0201CA6
:101FC000291C321C984700281AD10E4D201C002EC7
:101FD00005D121F000FA0C49021C281C06E0042E51
:101FE00008D121F0F8F9021C281C08490FF0CCF99F
:101FF000FEF711F921F0EFF90549021C281CF5E75D
:1020000070BDC04600FD02001D43030048430300AD
:102010006943030008B521F0F4F9002805D103490C
:10202000034825F06CFFFEF7F6F808BD9643030061
:1020300000FD0200F0B585B000AF7A601D1C7B6822
:10204000C26BCB18061C0C1CFB60934204D02B49BE
:102050002B480FF099F93BE0FB68994245D09A0074
:10206000131C69460E33DB08DB00CB1A9D46181C97
:102070000021BB6029F0DDF80023A200934204D0C8
:10208000E858B968C8500433F8E7F9687A688C46AC
:1020900062447A60ED1803E06A6802341A60083519
:1020A0007B689C4220D2286809F0E0FE0021021CD7
:1020B000F36B3B603B68994206D08B00F018006CD4
:1020C000904207D1013107D10D480E490FF05CF95C
:1020D000FEF7A1F80131EDE7B968CB1819680029BE
:1020E000DAD007480849F1E7BD68F868291C07F00D
:1020F000E9FDBD46066005B0F0BDC046803F030067
:1021000000FD0200BB430300DC43030038B50C1C98
:10211000051C0B6805495A6824F04BFD2168281CF2
:102120004031221C10F0A6F838BDC0465B83030086
:10213000F0B585B00C1C032509F098FE2540071C5E
:10214000002D03D11E4B22689A4205D01D491E481E
:1021500025F0D5FEFEF75FF8201C02A903AA20F0A7
:10216000E6FE029E039B301C10308000019321F09C
:102170006FFA041C291C3C2229F05BF8134B6760A2
:102180002360134BE663A360124BE360124B636161
:10219000124BA361124BE361124B2362124B636239
:1021A000124B6363B54208D0019BAF00D85909F0C8
:1021B0005DFEE71938640135F4E7201C05B0F0BD79
:1021C0009CC602000B44030000FD02006CEB020001
:1021D0000D21000035200000459C0000099D0000F5
:1021E000F1210000019E0000A19C0000D4CB020060
:1021F000136870B5002B11D10568EE6BB34213D094
:102200009C002C19246C8C4201D00133F6E7591C38
:102210000AD002339B001B58136005E003490448B1
:1022200025F06DFEFDF7F7FF70BDC04619440300B1
:1022300034FB0200F8B5214D2E687368012B3BD9A1
:10224000B1685C1E0A5D0A2A36D1002C03DD621ECD
:10225000885C0A2801D1221C05E0141CF5E7885C83
:10226000202802D101329A42F9D3002C0BDD501CF8
:10227000984208D1601E002805D001380F5C0A2F53
:102280001AD0202FF7D0CB18023B1B78141B3A3BF7
:1022900059425941A4086418013C0DD3084F301C21
:1022A000391C042220F01AFC381C042111F00CFE09
:1022B0002B6904332B61EFE7F8BDC04644010020D1
:1022C000CAA7030008B503480021202228F0B1FF67
:1022D00008BDC046D02E002008B5084B42681860E3
:1022E0000020986018750138D860081C5A601A617F
:1022F000996126F0E2FAFFF79DFF08BD4401002036
:10230000F8B50378002B1ED00F4D041CA86C0028D4
:1023100004D0211C29F088F8002814D0201C29F0B2
:102320008DF8471C381C21F0A0F9061E0BD03A1C72
:10233000211C28F061FF054B054A1968043B996090
:102340009342FAD1AE64F8BD882E0020E82E00201A
:10235000CC2E0020F0B5BD4B051C18689E68426865
:1023600085B001921C1C002E00D0C5E06B1E042B12
:102370001BD820F01CFC6368984200D163E1012D5A
:1023800000D106E1022D0AD00FE09A60412D37D02E
:10239000422D2ED0432D19D0442D00D0E8E02369E2
:1023A0006268934200D91CE158E1032D00D14AE153
:1023B000042D06D1206821694368994200D3E0E0EA
:1023C000FCE0052D00D1EFE0062D06D123685D6805
:1023D0002369AB42AD416D4228E10B2D07D1019B32
:1023E00022692068991A20F06FFC002504E10E2D67
:1023F00004D1E368002B00DBA1E02FE1102D04D114
:10240000E368062B00DC8DE028E1152D0BD1236954
:10241000626820689A1A616820F064FC2369626827
:1024200000259E1A1DE10D2D0AD1894826F045FA96
:10243000206820F0EEFB6368C018FFF761FF14E12D
:102440001B2D02D10123A36008E1082D01D07F2DAF
:102450001BD121696268914200D8FFE0131C2068FB
:102460009D1A8B4205D08568ED5C202D06D1013385
:10247000F6E70126032D02DD033600E00126891B65
:10248000321C20F02FFC0127ADE0092D28D1236854
:1024900061689868236940186E4A591A03AB0EF0B8
:1024A000D7FD061E00D1D9E00025431C0BD1A06941
:1024B00026F003FA23686168986823694018591A5E
:1024C00011F002FD98E023692068E918039B0135AB
:1024D0005A1C03921A7820F0E5FBB542F3D18BE049
:1024E0002B1C203B5E2B00D9B8E02A1C20682169F8
:1024F00020F0E1FB01257FE00022012E07D14F2DC6
:1025000003D05B2D6BD1023269E0042267E0022E1A
:1025100033D1291C3039092900D936E703221D752A
:102520009A609BE05A1C4C4913339B005958002970
:1025300000D193E020686368E26043600FE02068A8
:10254000013BE36062684368991A20F0BDFBE368D1
:10255000002B06DB1233404A9B002068995820F07C
:1025600074FB63682269D61A22685568ED1A78E010
:10257000482D0ED0462D71D116E0032E29D17E2D87
:1025800002D000252F1C1EE01B7D312B01D0372BE4
:1025900005D10025236962682F1C9E1A14E01A1CBD
:1025A000FB21343A0A4206D1002723683E1C5D68AD
:1025B0002369ED1A08E0332BE3D1FBE6012220F07A
:1025C00091FB002501272E1C0023A3609E420BDCFB
:1025D00010E0042E03D1462DE6D0482DD9D09A60C4
:1025E0003CE0002701260025301C11F091FC2369F6
:1025F0009E1B2661002F19D02368019A5B689342C5
:1026000004D2131C2269981A11F092FC22682369E3
:102610009168C8185168C91A11F056FC23685868A7
:102620002369C01A401B11F073FC08E0002D15DD72
:102630002368291C98682369C01811F045FC236998
:10264000ED1825610AE02E1C0FE0C0464401002071
:102650003E4B030010F00200882E00200126764237
:1026600003E00127002EBFDCC6E7301C05B0F0BD3B
:10267000F7B51F1C13780E1C0A3BD9B2051C1F4866
:102680000F2904D850781B02184320F0F8F91524BC
:10269000037801931A4B01331522121B009219780B
:1026A000019A91421CD1427859788A4218D1827895
:1026B0009978914214D100290FD1009B9A00104BB8
:1026C000D45CBC4217D93B1C0E480F49321C0EF09B
:1026D0005BFEAB68002418600DE0C1780029ECD0E7
:1026E000013C0433002CD7D106480849321C0EF0B7
:1026F0004BFEAB681860201CFEBDC046BF740300D3
:102700002846030078FD020093440300AC44030014
:10271000F0B5177885B0051C0E1C992F47D1101CF9
:1027200001A920F0D6FD019B021E9A423FD00378FA
:10273000191C0A390F2908D80F23281C311CFFF750
:1027400097FF01238340181C39E0AE2B2FD120F0D6
:10275000BBFD041C20F0B3FD02900378B22B26D100
:10276000221CA33B311C281CFFF782FF012403A974
:102770008440029820F0ADFD039B0290984203D064
:1027800002A8391C20F0B4FD029A039B9A420CD097
:10279000311C0F23281CFFF76BFF01238340029895
:1027A0001C4320F08CFD0290EEE7201C07E005485A
:1027B0000549321C0EF0E8FDAB681860002005B03A
:1027C000F0BDC04678FD0200C4440300F0B585B0FA
:1027D000041C0D1C101C03A91E1C20F056FD071E16
:1027E00008D10E480E492A1C0EF0CEFDA3681860D1
:1027F0003B1C0FE00398FFF779FA021C031CB2435D
:1028000008D00096054807492A1C0EF0BDFDA368B4
:1028100018600023181C05B0F0BDC04678FD02000A
:10282000DF440300F744030038B513780D1C0A3B5E
:10283000D9B2041C0F2908D92A1C124812490EF0DB
:10284000A3FDA368002518601AE052781B02134309
:10285000C2680020904208D02569810049599942F8
:1028600001D1051C0CE00130F4E722880025042A80
:1028700006D11A1C034805490EF086FDA3681860AE
:10288000281C38BD78FD02002345030038450300AD
:10289000F0B587B0041C0F1C081C04A91E1C019273
:1028A00020F0F2F8019B051C002B13D1322F03D12D
:1028B000BF2160690902EAE1482F08D0019BBE48A8
:1028C000BE492A1C0EF060FDA3681860E1E1606952
:1028D000BB49DCE1019B012B00D08BE0412F09D1EA
:1028E000291C201C3268FFF79FFF011C606923F040
:1028F000AAF90AE0422F12D1291C201C3268FFF7E6
:1029000093FF011C606923F0F5F9002800D0C0E1B5
:10291000A948AC49A46825F0F2FA2060B9E1432F38
:1029200009D1291C201C32680F23FFF7A1FE8E213C
:10293000C000C901A9E10378622B33D1049B032BAA
:1029400007D0052B2ED1C3785F2B2BD103796E2BAB
:1029500028D101279C4A6978531C7F422B32187872
:10296000884206D1A87884465878844501D1581EFB
:10297000077803339342F2D17B1C9FD03268201C2E
:10298000291CFFF751FF049B021C00266069052BE0
:1029900003D12B79773B5E425E41331C391C23F017
:1029A0006EF9B2E7462F02D1606988496FE1472F7F
:1029B00002D1606986496AE1442F0BD1291C201C91
:1029C0003268FFF7A5FEFF231B02B421184200D096
:1029D00074E70DE0452F00D070E7201C291C3268F9
:1029E000FFF796FEFF231B02184200D066E7BC21CA
:1029F00009024AE1019B022B00D0D4E073681B78E6
:102A00000A3B0F2B49D8332F12D1291C3268201CC6
:102A10000F23FFF72DFE291C071C7268201C0F23B3
:102A2000FFF726FE391C021C606923F0F7F830E13D
:102A300000230293342F1BD18027FF01291C326809
:102A4000201C0723FFF714FE291C01907268201C2C
:102A50000723FFF70DFE391C031C019A606923F060
:102A6000D6F816E1029B013302930F2B00D125E724
:102A7000029B281C9F00574B791C5918032228F0F1
:102A8000E4FC0028EED1EB78002BEBD1514BFF5C3E
:102A900080233F01DB011F43D0E7332F01D1802783
:102AA00002E0352F13D1A027291C32680723201CF0
:102AB000FFF7DEFD291C0190FF23201C7268FFF741
:102AC00085FE019BBF01074319023943DEE0362F23
:102AD00001D1C027E8E7372F01D1E027E4E7002341
:102AE0003D4A990050184088874258D18B5A201C83
:102AF000029332680723291CFFF7BAFD766803901A
:102B00003378982B28D1301C20F01EFC002823D1CC
:102B1000301C20F0D9FB03789A2B1DD105A920F099
:102B2000D8FB0599071C20F0BEFB022814D1381CE5
:102B300020F0C5FB3A1C0723061C291C201CFFF7AC
:102B400097FD029B071CDB040ED5201C291C321CA0
:102B50001F23FFF73BFE17E0174820492A1C0EF001
:102B600013FCA3681860A9E6029B201CDB0B291C40
:102B7000321C002B04D03E23FFF728FE400803E060
:102B80007C23FFF723FE80080399029BFF00194373
:102B90000F43F8218001C9000840391C75E001335A
:102BA000062B9DD18AE6019B032B00D086E6382FA9
:102BB00016D1002718E0C04678FD02004F450300FB
:102BC00030BF0000AF4503006944030072B6000047
:102BD00062B600002D440300262403008445030050
:102BE000392F1DD180273F01291C32680723201C63
:102BF000FFF73EFD291C019072680723201CFFF798
:102C000037FD291C02901F23201CB268FFF7DEFD50
:102C10000199029B394380010143DB00194335E0F0
:102C20003A2F02D180277F01DEE7362F01D1C0275E
:102C300003E0372F00D041E6D027291C3268072354
:102C4000201CFFF715FD726801900723201C291C2A
:102C5000FFF70EFDB2687F01137802900A3B0F2B3D
:102C600005D8201C291C0723FFF702FD07E080235D
:102C7000DB001F43201C291C0723FFF7A7FD029B35
:102C80008001D900019B194339430143606922F057
:102C900087FF07B0F0BDC046F7B5061C0D1C002429
:102CA0000192019B9D4228D0631C0093052B03D108
:102CB000B4681348134907E028780A38C3B20F2BC9
:102CC00007D9B4680E48104925F019F92060002092
:102CD00014E06B78000218431FF0D1FE0235071C88
:102CE00028F0ACFB0228ECD13B78722BE9D17B7841
:102CF0003034A342E5D1009CD3E7201CFEBDC04682
:102D000078FD0200C3450300F645030030B50724F3
:102D100002784160A243053C224302707F22039C5B
:102D200005882240D400034A83602A40224302805F
:102D300030BDC04607FCFFFF10B5072403782140D3
:102D4000A34319437F230170049904880B40D900E1
:102D5000084B426023400B430380039B04685B05E0
:102D6000D90A054B23400B430360029B8360059BFC
:102D7000C36010BD07FCFFFFFF03E0FFC3790248FB
:102D8000002B00D10148704734CD020078CD0200FD
:102D900008B501F03FFA014808BDC04674E00200E2
:102DA00008B5086801F036FA004808BD74E0020072
:102DB00073B50D1C022823D10126486801A909F02A
:102DC000EBFC7642341C019BC31898421BD001785F
:102DD000722901D0772905D1621C0ED172394C427B
:102DE0004C4108E0622901D0742906D1721C04D13B
:102DF00074394E424E410130E7E70E480E4913E068
:102E000001267642341C01A9286809F0C5FC7342EA
:102E1000734162426241DBB2D2B2019901F04EFBD2
:102E2000002805D10548064925F069F8FDF7F3F9B2
:102E300076BDC04610F802007C460300C0F90200CF
:102E400089460300F8B5061C10200D1C141C1F1C1D
:102E500020F00BFC011E09D02C190F604D608D6015
:102E6000CC60301C024A034B22F030FAF8BDC04659
:102E7000BF350200D53502000022114B1A60031C39
:102E8000104A1233FF33811800225A701A7004332B
:102E90008B42F9D1011C031C09310833FF31002298
:102EA0001A709A705A70DA7004338B42F7D1C323C8
:102EB0007F329B00C254044A044B1A607047C046DC
:102EC00060010020110300002948030004000020D5
:102ED0000023F7B5071C1C1CA200BA18FF32517C56
:102EE0007F2951D0927C651C9B18DBB2EF2B2AD92D
:102EF000EBB20193C1239B00FE187D23351C009388
:102F0000009B019A934209DB281D291C042228F00A
:102F100073F9009B043D013B0093F1E7002395000A
:102F20007D19FF356B74AB74EB742B757D25023402
:102F3000E4B2A5421CDB301D311C042228F05CF9F0
:102F4000013D043EF5E77D291BD8104A525CD207AB
:102F500017D5C1237D269B00ECB2FD18A64207DBE6
:102F6000281D291C042228F047F9013E043DF5E7FD
:102F70007E23A200BA18FF32537400239374D374D3
:102F800013750134E4B2A7E7F7BDC046DB47030081
:102F9000012110B54B1EDBB29B00C318FF335A7CD6
:102FA0007F2A15D00B4CA25C520602D40131C9B263
:102FB000F0E75A7D7F2AF9D0A25C7F2AF6D9DA7D24
:102FC000002AF3D054B2002CF0DB0132DA74EDE7C2
:102FD00010BDC0463A470300031CF7B54B4A1333F4
:102FE000FF3382180021197004339342FAD10B1C6D
:102FF0005AB2002A01DA464A7DE0021CFC32176907
:10300000B94205D37F2244339B001A5401207CE04F
:10301000D668755C602D01D9203DEDB24C1CE4B240
:10302000BC4223D0325D0092602A02D9203AD2B24B
:103030000092232D1ED1009A303A092A01D9354A2F
:1030400059E00231CCB2BC4204D3FF2AF7D8427017
:10305000211CCDE7315D0D1C303D092DF5D80A2529
:103060006A430134303A5218E4B2ECE7232DE6D03B
:10307000002200920026F7B20197274FF25DAA4284
:1030800014D1264AB25C94462A2A0FD0009A94455D
:103090000CD16C469A0024798218FF32547444781B
:1030A000013302311475DBB2CCB2D1E70136512EB7
:1030B000E1D10022194ED1B2965D2A2E0BD1BE5C11
:1030C000AE4208D19A008218FF3251744178013320
:1030D0001175DBB2BCE70132512AEBD1493A1049F4
:1030E000895CA94204D0002A04D0013AD2B2F6E7A2
:1030F000002A04D10B4A0C4B00201A6005E0191C71
:103100004331890041188A70A2E7FEBD1203000016
:103110002C4803003E48030098460300E94603009C
:103120000B4903004C480300040000201130FF301D
:1031300003787F2B0AD002228256002A01DC044A3F
:1031400000E0044AD35C43700430F1E77047C046A6
:10315000BB4803008B4703000023F0B589B0019002
:103160000093009B019A9B00D3180393FF335E7C6E
:103170007F2E00D1C6E064498A5D900702D4009B8F
:103180000133BDE0D2074BD4009A7D25571C721C39
:10319000D2B204925D4AFFB2921952780592DA7C5B
:1031A0001B7D0692C122920094460793019B6344C3
:1031B0001C1C0293BD4207DB201D211C042228F0A9
:1031C0001BF8013D043CF5E7019BBF00DF196B468E
:1031D0001B7CFF377B746B461B7DB51CBB746B4639
:1031E0001B7EEDB2FB746B461B7F3B75009B9C1CEA
:1031F000464BE4B29E19B7787D26039BFF33DA7CF9
:103200001B7D03920493A6426CDB029B0422181DD3
:10321000191C27F0F1FF029B013E043B0293F2E7E9
:10322000009A0132D2B2131C019844339B001B5CFC
:10323000002BF6D0009A571C7F2B07D0CA5C1207D0
:1032400002D4243B012B01D8FBB289E7731CDBB20B
:1032500004932E4B7D259B195B78FFB20593039B4E
:10326000FF33DA7C1B7D0692C122920094460793BD
:10327000019B63441C1C0293BD4207DB201D211CE3
:10328000042227F0B9FF013D043CF5E7019BBF0094
:10329000DF196B461B7CFF377B746B461B7DB51CAF
:1032A000BB746B461B7EEDB2FB746B461B7F3B759C
:1032B000009B9C1C154BE4B29E19B7787D26039B9E
:1032C000FF33DA7C1B7D03920493A6420ADB029B48
:1032D0000422181D191C27F08FFF029B013E043B9E
:1032E0000293F2E7019BA4001C196B46FF3465743E
:1032F000A7741B7BE3746B461B7C2375009B033315
:10330000DBB22DE709B0F0BD3A470300BB4803002C
:10331000F0B5002587B00190019AAB00D318029355
:10332000FF335A7C002A00D12EE17F2A00D155E1DB
:10333000AB496C1C895CC8062AD5DA7C7D260492D0
:10334000202211404A424A4115218A1A0392C12281
:103350001B7D92000593019BE7B29C18BE4207DBE0
:10336000201D211C042227F047FF013E043CF5E705
:10337000019BBF00DF196B461B7BFF377B7400236B
:10338000BB746B461B7CFB746B461B7D3B75ADE0D1
:1033900018264E2A02D04F2A23D11B26DA7C7D27FD
:1033A00002920D225A74C1221B7D92000393019B4D
:1033B000E4B29D18A74207DB281D291C042227F030
:1033C0001BFF013F043DF5E7019AA300D31800223B
:1033D000FF339A746A46127A5E74DA746A46127B14
:1033E000B1E0502A01D11C26D8E7C90933D0D97CD5
:1033F000002930D0E4B2211C019844318900095CD5
:10340000002928D1A91CC9B20391890041180F1CB9
:10341000FF37787C7F281ED0714E305CC0091AD0EF
:10342000F97C002917D0C1227D26019B92009D18AE
:10343000039B9E4207DB281D291C042227F0DCFE8B
:10344000013E043DF4E71F237B740023BB74FB742F
:103450003B75251C60E76C1C172A12D1597B6A1E2C
:10346000D2B2452901D11B3902E0392902D10D39E7
:1034700059738DE05A4A525CD20900D1ACE0122255
:10348000A9E0182A07D15A7B55498A5C7F2A00D8BF
:10349000A2E013229FE0202A05D15A7B3C2A00D0CB
:1034A0009AE0262297E0482A09D15A7D7F2A03D044
:1034B0004B498A5C92060FD44B225A740CE03C2A8A
:1034C0000AD15A7D7F2A00D186E045498A5C92065E
:1034D00000D581E03F227EE05A7C4149895CC907E2
:1034E00004D5597B20294BD10C3A74E0029B6C1C0B
:1034F000FF335A7C352A06D15A7B3A498A5C5207F7
:103500006AD5102267E02A2A1FD1C1227D26DF7CDE
:103510001B7D92000293019BE4B29D18A64207DB3B
:10352000281D291C042227F067FE013E043DF5E713
:10353000019AA300D3182B22FF335A7400229A74E5
:103540006A46DF74127A1A7583E72C2A18D1C122D1
:103550007D26DF7C1B7D92000293019BE4B29D18C7
:10356000A64207DB281D291C042227F045FE013E48
:10357000043DF5E7019AA300D318FF332D22DCE7C1
:10358000452A04D0392A02D00135ECB261E72A1C61
:10359000111C019843318900114B095C6C1C595C6A
:1035A0007F2919D901320199D2B292008A18FF32CB
:1035B000517C002906D05B5C7F2B0DD9D37C002B7E
:1035C00006D009E0527D7F2A06D09B5CDB0903D040
:1035D0001E22029BFF335A74E4B23AE707B0F0BDF3
:1035E0003A470300DB470300F7B501214C1EE4B264
:1035F000231C44339B001B5C7F2B2CD0554DEB5C74
:10360000DB0702D40131C9B2F0E7231C013BDBB276
:10361000002B21D01A1C44329200125C7F2A03D066
:103620004D4EB25C7F2AF1D99A008218FF32567C47
:103630007F2E0BD0AF5DBF0603D5474FBE5D76072B
:1036400004D5967C77080136F61996740133DBB2FF
:10365000A342E9D1D6E700239A008218FF32517CB9
:103660007F2976D03C4D6E5CF40933D04127591C3C
:10367000C9B28C000419FF34667C0194BC467F2ECD
:1036800001D0AF5DBC464024AF5D27420FD1123E52
:10369000012E01D90B1CDFE70233DBB244339B0060
:1036A0001B5CEB5C2342F5D0937C013B08E0634656
:1036B0005B0707D46346DB07ECD5937CDC081B1B58
:1036C0009374E7E7019B9B7B5A1C9B08D318019AD4
:1036D0009373DFE71F4C645C21070FD50133D9B228
:1036E0008B00C318FF335A7C7F2AD3D0AA5C920781
:1036F000D0D506229A74013A9A73CBE702210E4282
:103700001BD01C1C0134E4B2211C44318900095C2B
:103710000029F7D001337F2919D00F4D695C890743
:1037200015D5A4000419FF34A17C49080131A17406
:10373000947C64080134947409E0E40606D5547B53
:103740002C5D0C4202D0917C023991740133D9B2C4
:10375000A0E7F7BDDB4703003A47030070B5041C40
:10376000FFF78AFB201CFFF737FC231C0022FC33E9
:10377000011EDA601A61914244D0261C224D113696
:103780002B68FF36934203D02048311C02F07CF8AE
:10379000201CFFF7BDFD201CFFF7FAFB201CFFF7E4
:1037A000C5FC201CFFF720FF201CFFF7D5FCC4221E
:1037B000331C9200A1181A78502A06D97F2A07D004
:1037C000134A144B00211A601CE004338B42F2D1DF
:1037D0002B68002B02D010481EF0BCF9201CFFF70C
:1037E00077FB2B68002B03D00C48311C02F04CF8FF
:1037F000201C1FF0FFFE074B0949186827F014FE34
:1038000041424141081C70BD6C0100206348030027
:10381000724803000400002098480300A8480300F1
:1038200029480300034B82B001AA98331A6002B002
:103830007047C046882E0020034B82B098331B6827
:1038400001A8181A02B07047882E0020014B9C3343
:1038500018607047882E002008B50349034824F0FB
:1038600047FBFCF7D8FCC046260900004CF80200D4
:10387000064B07B51A1C9C33983212681B6801A9C5
:10388000521A9A4201D3FFF7E7FF07BD882E0020A6
:1038900008B50B790349002B00D1034923F0BDF88B
:1038A00008BDC0466B2903006329030037B51D1C02
:1038B0000023081C00930C1C111C1A1C0133FCF77C
:1038C00093FE064B002C06D02868FEF723FB044B22
:1038D000002800D1014B181C3EBDC04678CD020027
:1038E00034CD020010B50B1C041C002906D0054A7B
:1038F000096802609A6B00230DF0B4FD201CFCF7F0
:103900008AFCC04678FD0200F0B5041C87B0039223
:1039100002936718002A0ED0023A222A0BD93D4999
:103920003D4824F0ECFAFCF776FC207802F06AF9C6
:10393000002803D00134BC42F7D30AE023782B2BB4
:1039400001D1013405E0061C2D2B03D101340126E1
:1039500000E00026391B201C03AA1FF0FDFA2318E3
:103960001D1C00240093BD4210D22B78181C01931B
:1039700002F060F9039B002806D0019A2F3A9A4280
:1039800002DC019B303B0DE0102B03D0002E19D040
:10399000644217E02023019A13431A1C613A052A56
:1039A000F4D8573B201C0399019305F099F900289E
:1039B0001AD1039B5C43019B1C196300634013D421
:1039C0000135D0E7012364001C43009B9D4216D0C3
:1039D000BD4206D2287802F015F900280FD0013533
:1039E000F6E7BD4213D00AE0009B05A80593F91A3B
:1039F000321C039B20F0A4F9059D041CE5E7074950
:103A00000548039A0DF0C0FC0299FFF76BFF201CDC
:103A100007B0F0BD1449030010F802003749030055
:103A2000F0B5041C8BB00993431808920193019BD5
:103A30009C4200D30EE1207802F0E4F8002801D087
:103A40000134F4E723782B2B02D10134049005E0F4
:103A500004902D2B0ED12C3B01340493019B9C42EE
:103A600008D3824B002706930023251C07973E1C92
:103A7000039356E0202322781A43692A2ED1019914
:103A8000A21C914200D8BEE062781A436E2A00D090
:103A9000B9E0A2781A43662A00D0B4E0E21DE51C22
:103AA000914200D8A8E0E2781A43692A00D0A3E046
:103AB00022791A436E2A00D09EE062791A43692A5D
:103AC00000D099E0A2791A43742A00D094E0E279F8
:103AD0001343792B00D08FE005358DE06E2AC0D1DD
:103AE0000199A21C914200D88DE062781A43612AA4
:103AF00000D088E0A27813436E2B00D083E0E51C51
:103B000000265B4F7BE06B1C02932B781A1C303A2B
:103B10000592092A30D8022E07D10A237B43D718F1
:103B2000029D019B9D42EED354E0012E15D10598D4
:103B300017F0C8F8069916F0ADFD011C039816F0B1
:103B40003BFA0390069818F0F1FE4A4A4A4B18F0E7
:103B500067F818F03FFF0690E2E74849039816F02F
:103B600099FD051C059817F0ADF8011C281C16F0EE
:103B700023FA00260390D3E7002E02D12E2B02D188
:103B800026E0022E19D020221A43652A15D1029B65
:103B9000019A93420BD26B782B2B02D1AB1C029370
:103BA00005E02D2B03D1AB1C029301230793029B4D
:103BB000019A934247D00226B2E70026089AB24201
:103BC00009D0202213436A2B05D1029D013602E061
:103BD0000126A5E70026079B002B00D07F42381C5A
:103BE00017F028F8011C254819F028FF011C03983C
:103BF00016F050FD071C02E0FF270026FF05049B7E
:103C0000002B09D005E0049B002B1CD0251C0026AE
:103C1000002780231B06FF18A54214D0019B9D425C
:103C200006D2287801F0EEFF00280CD00135F5E728
:103C3000019B9D4207D1002E02D1099B002B0CD085
:103C40000F48104901E00E480F4924F058F9109927
:103C5000FFF748FE0023049303E7032302209F435A
:103C60000A4B0743F8180BB0F0BDC046CDCCCC3D95
:103C70000000C07F9A9999999999B93F0000204115
:103C800010F802005F4903007C49030000008080B7
:103C900038B5051C0C200C1C1FF0DAFC024B4560EB
:103CA0000360846038BDC04680CD020010B5041C9E
:103CB0000C201FF0CDFC034B4460036001235B42EA
:103CC000836010BDBCCD020010B5041C0C201FF099
:103CD000BFFC034B446003600223037210BDC04667
:103CE000ACCF020010B5041C10201FF0B1FC044B37
:103CF0000360237A0371636883600023C36010BD8F
:103D000044CF020010B5041C10201FF0A1FC044B8E
:103D100084600360034B43600023C36010BDC04652
:103D20003CE20200A737020008B504301FF0DFFEB6
:103D3000004808BD74E00200F8B5041C0D1C0B7AA5
:103D4000124A9B00995822F068FE1149201C22F06B
:103D500064FE281CFFF7C6FF0126071C381C1FF055
:103D60002CFD051E0CD0002E03D1201C094922F089
:103D700054FE201C291C0122FDF7BCFE0026EDE7A5
:103D8000201C054922F049FEF8BDC04604CE0200C1
:103D9000964903008B40030099490300F7B50B686F
:103DA0001C4A041C0D1C934203D01B495A6822F084
:103DB00000FF201C194922F030FE00230127019347
:103DC000281C01A91FF0DAFC061E15D0002F03D114
:103DD000201C134922F021FE0122201C3168FDF72E
:103DE00089FE1049201C22F018FE201C7168012257
:103DF000FDF780FE0027E3E7201C0B4922F00DFEB3
:103E00002B68044A934203D0201C084922F005FE87
:103E1000F7BDC04664CE02009C490300A0490300E0
:103E20008B400300A1870300DD4403001B43030014
:103E3000002806D001280BD14B68DB085B00184333
:103E400007E007224B680348934302D1024800E091
:103E50000020704734CD020078CD020038B5151C23
:103E60001A1C1C1C00F01CFE002802D04368002B0A
:103E70000ED12B1E08D1094B022C05D10849094847
:103E800024F03DF8FCF7C7F9012C05D1436003E0AD
:103E9000022C01D100224260181C38BD74E00200DF
:103EA000A2490300F0FD020030B5002585B001A94C
:103EB000041C01951FF062FCA84205D10A490B4879
:103EC00024F01DF8FCF7A7F9636802A9083B6360BA
:103ED0000368029343680393042328C0022005F07B
:103EE000F1FE05B030BDC046AA490300F0FD020056
:103EF00073B50C1C151C1B280BD000231F2839D1AF
:103F0000081D111C002200F0CBFD1B4B002831D1F5
:103F100018E00323194208D10A6818498A4204D1DB
:103F20002B4002D12968914224D0154BAA0721D1F8
:103F3000144A296891421DD162686B685340072278
:103F4000934301D00E4B15E00193201C01A91FF0F3
:103F500015FC061E0DD0281D3168002200F0A0FDC2
:103F6000031EEFD070685968FDF742FE0028ECD1BF
:103F7000E8E7014B181C76BD34CD020028CE0200C4
:103F800078CD020064CE0200F0B51368141C012243
:103F900087B00F680D1C0092D9080223061CFCF79D
:103FA00023FB022E22D103236868034016D1026846
:103FB000D1682C4A914211D12A68904216D00593BB
:103FC000686805A91FF0DAFB061E0FD0381D31689E
:103FD000012200F065FD73684360F1E704F0C8F862
:103FE0000390039804F012F9002801D1002526E07F
:103FF00004F0BEF8051C04F009F90290281C04F036
:1040000005F9061C281C04F001F9029B002B03D0C3
:10401000002E01D0002805D01349144823F06FFF6B
:10402000FCF7F9F8381D0299012200F039FD4660CD
:10403000D7E7A368EE009959002904D101356368D8
:104040009D42F6D30AE00429F8D0381D012200F081
:1040500027FDA3689E1973684360EFE7044807B023
:10406000F0BDC04629410000C949030010F8020014
:1040700074E0020010B5041C0C201FF0E9FA034B99
:10408000446003600023037210BDC046ACCF020041
:1040900010B5041C0C201FF0DBFA034B44600360D6
:1040A0000123037210BDC046ACCF020008B5043036
:1040B000002200F0F5FC002805D10449044823F053
:1040C0001EFFFCF7A8F8406808BDC046A2490300DF
:1040D000F0FD020008B5024B08C01FF0E9FC08BD66
:1040E00064CE0200F8B5071C48680E1C04F040F8C6
:1040F000041CFDF7EBFE0B4D022F00D9B56800281C
:1041000000D040101FF0ADFB061C201C04F07EF810
:10411000011E05D0301D012200F0C2FC4560F4E70D
:10412000301CF8BD74E00200F0B5071C89B0002017
:104130001E1C0D1C01921FF094FB0E4B041C07600B
:104140009F4203D10422037913430371019B2B4344
:104150000DD03368AA00B21805A8019903940493FE
:104160001FF0B8FC681C03A905AAFFF70DFF201C6F
:1041700009B0F0BD28CE020008B5002A02D11FF018
:10418000B3FB11E0042A0DD10430002200F088FCBA
:10419000002805D10549064823F0B1FEFCF73BF89D
:1041A000406802E01FF096FB024808BDA2490300E8
:1041B000F0FD020074E002008023044A5B051B69E5
:1041C000107858438023DB02181A7047F82D00201E
:1041D0008023044A5B051B69107858438023DB0267
:1041E000181A7047F72D002038B5084DC4012B6808
:1041F000002118191FF0D4FD2868054B00197F30E5
:1042000000781B788342F0D238BDC046640100209C
:10421000F92D002010B5C379041C002B08D0064BE3
:1042200000791B68C00118180130A1791FF0B8FD92
:104230000023237210BDC0466401002008B5034965
:10424000034823F05CFEFBF7E6FFC0461A4A030072
:1042500010F80200021C124B10B518685379DB01EC
:10426000C3181C1C7F342178FF2908D11179C9019A
:1042700041184978FF2910D0907988420DD0917962
:104280005B1801315878CBB27E2B01D0937106E0D8
:10429000002393712378537101E00120404210BD47
:1042A0006401002038B5F8239B021A784D2A01D00A
:1042B0008023DB02802580206D052C69C0026442CA
:1042C00023402C6929691C1B001B15F0C5FB2A4BD8
:1042D0002A4A18702B69E518AD185B421D40284921
:1042E000284B294A5B1A9B18802252059D4202D214
:1042F0001369ED18F3E78020C0021169401B15F027
:10430000ABFB0122214B641B1870E411204BE4B27B
:104310001C70204B1A6000221F4B5A6059681D4ABE
:104320000029FBD0A123DB00D358DBB2A342F2D299
:104330001A4901330B7001235360FFF73DFF0378E7
:10434000051C174CFD2B09D180235B051869154B03
:10435000C009C018C001281820600BE0FFF738FF23
:104360000378803DFD2B04D0FFF732FFFD211FF0C5
:1043700017FD256038BDC046F72D0020FF87FFFFE1
:104380000000002028010020ACB10300F82D00201F
:10439000F92D002000D00040FCD00040F62D002078
:1043A00064010020FFFFFF01F0B585B0264E274ACB
:1043B0003478274D201C1378296801330296039224
:1043C000C201525CFF2A3DD00130C0B2984200D1F8
:1043D0000120A042F4D1802300275B051B69DB0983
:1043E0000193E3010093009A2B689E183278301CE9
:1043F00053425341FF181FF0E9FC002809D0002365
:10440000019A934218D0DA01B25C002A01D101333B
:10441000F6E7039B01341B78E4B201339C4200D1E0
:104420000124029B1B78A342DBD1072F02D91FF086
:1044300066FABBE7FF2005E02868009BC0181FF064
:10444000BBFC201C05B0F0BDF62D0020F92D00208E
:1044500064010020F7B5071C0D1C01240E4B1B78CE
:1044600001930E4B1E68019B9C4211D8E10171180B
:104470000B78FE2B09D18B78AB4206D10331381C67
:104480002A1C26F0AAFE002804D00134E4B2EAE790
:10449000FF2000E0201CFEBDF92D0020640100205B
:1044A00008B5054A03791268DB01D318D81C99783E
:1044B000002207F0B9FC08BD64010020F0B585B00A
:1044C00002900D1C171C039378294DD8FFF7C2FFEB
:1044D000031C041C002F2AD0254EFF2805D032686B
:1044E000C301D01800211FF05BFCFFF75DFF041E25
:1044F000FF2C05D11F49204823F001FDFBF78BFE5F
:104500003368C0010190FE2118181FF049FC336880
:10451000019AE9B2981802301FF042FC3068019B02
:104520000299C01803302A1C00F028FF02E0381C52
:10453000FF2B1AD00C201FF08BF8039B002B01D00F
:104540000E4B00E00E4B0360094B04711B68447175
:10455000E4011C19A378C77102338371012303722C
:104560006B461B7B437200E0002005B0F0BDC046E7
:1045700064010020374A0300C0F9020040CC020069
:1045800088CC020007B501A908F006F90199FFF7E8
:1045900061FFFF2805D10549054823F0B0FCFBF772
:1045A0003AFEFFF721FE03480EBDC04689460300D0
:1045B000C0F9020074E00200F7B50192027A061C0D
:1045C0000091002A01D1FFF739FEC579002D06D1EF
:1045D000214A17680279D201D25D002A23D109222B
:1045E00001201A60404236E03279D201BA1852787E
:1045F000FF2A24D0D21A944200D9141C019A521BCB
:10460000944200D9141C002C24D0009AC9185019C7
:104610000131221C26F0F0FDB379E318DBB27E2BCA
:104620000FD0B3712D1971797E24C90179180A1C34
:104630007F32B3791278E41AFF2ADFD1D4E700245D
:10464000DCE70023B3717379DB01FB187F331B7840
:104650007371E7E7281CFEBD64010020F0B585B04A
:104660000393037A041C01910292002B01D1FFF7FE
:10467000E5FDC379002B07D02B4A03791268DB01D3
:104680009B5C029F002B1CD1092341E060793368B9
:10469000C0011818291C7F301FF082FB3368ED0120
:1046A000581961791FF07CFB63793268DB01D318FC
:1046B0007F331B786371009A019B94466344019396
:1046C000BF1A002F29D07E22A3790097D21A9742D1
:1046D00000D90092144E60793268C0011018C018D9
:1046E000009A0130019900F049FEA379009AD3188D
:1046F000DBB27E2B13D10023A371FFF755FE051EFD
:10470000FF2DC3D12079FFF76FFD002323721C23F7
:104710000120039A4042136003E0029801E0A37174
:10472000C9E705B0F0BDC04664010020002038B5DF
:10473000011C1EF0E4FB0124051C0C4B1B78A3425A
:1047400012D30B4AE3011268D3181A78FE2A08D153
:104750009978D81C002207F067FB011C281CFCF785
:1047600089FA0134E4B2E8E7281C38BDF92D0020AD
:104770006401002013B501A908F00EF80199FFF7B4
:1047800069FEFF2805D10F490F4823F0B8FBFBF75E
:1047900042FD0E4B1C68C301E31859789B78023325
:1047A000DAB20023C00120187F300078FF2803D040
:1047B0009B1A7E330022F5E7881AC0181FF09AFA78
:1047C00016BDC04689460300C0F9020064010020FE
:1047D00008B5024A024B20F079FD08BD55420000A1
:1047E00015420000FF2310B50324DB05CB18A343BB
:1047F000021C181CA24213D0042A09D00021002A4E
:104800000ED115F0F5FA0749002809D0064907E04E
:104810008022022012069B18A343044A03439918DE
:10482000081C10BD34CD020078CD0200000080804D
:10483000FF23DB0510B5041CC818032386B098437A
:1048400004330093002302A901931022673300F080
:10485000BFFD02A9201C22F0E0F802A82E2126F0BC
:10486000D5FD00280FD102A8652126F0CFFD002834
:1048700009D102A86E2126F0C9FD002803D1201C11
:10488000024922F0CAF806B010BDC046094B030029
:1048900030B51D1C002385B00C1C0093081C111C96
:1048A0001A1C0133FBF7A0FE002C21D02868124B04
:1048B0000340062B06D0032318420DD10F4A01688E
:1048C000914209D103A907F067FF002303990093E0
:1048D0001A1CFFF7A5F80CE00340022B09D0FDF7E6
:1048E0003DFA03239843013B1843054BC01800E0F1
:1048F000044805B030BDC046070080FF80CA0200F2
:10490000000080800200808070B5051C86B0101CFD
:104910000191FDF723FA041C0390681F182800D9A1
:10492000B0E015F07BF80D10161B2C37686DAFAF9B
:10493000AFAFAF0D10161B2C3768898E93989D0072
:104940000198211C54E00198211C15F0D5FF01901D
:104950008FE00198211C15F09DFEF8E7201C002136
:1049600015F046FA002805D04849494823F0C7FA0F
:10497000FBF751FC01A803A91FF027F879E0201CE0
:10498000002115F035FA0028EED10198211C15F010
:104990008FFCDCE7201C002115F02AFA0028E3D167
:1049A000211C019818F06AFF0021051C019015F0E8
:1049B0001FFA002807D0039A0023002A01DA802377
:1049C0001B06019355E00021281C15F017FA431E21
:1049D00098410124039E404204400021301C15F000
:1049E0000DFA431E9841E4B2844242D0281C311C87
:1049F00015F0E2FAABE70198211C19F01FF8A6E7C1
:104A0000201C002115F0F4F90028ADD101A803A95C
:104A10001EF0DBFF03220220019B1E499343034348
:104A20005B180493039B934303435B1804A905930A
:104A300005F048F9031C26E00198211C15F0DEF969
:104A400012E00198211C15F0EDF90DE00198211CF0
:104A500015F0CEF908E00198211C15F0D9F903E012
:104A60000198211C15F0E8F90B4B00280BD10B4BDA
:104A700009E00323019A02209A43131C054A0343C9
:104A80009B1800E00023181C06B070BD4D4A0300BF
:104A90006CFC02000000808034CD020078CD020062
:104AA000F0B5067887B0B30702D5002A00D0F2E04F
:104AB000F307DB0FDBB20293002B0ED0774B0B40DA
:104AC000062B0AD003230B4003D1754C0D68A54279
:104AD00002D0012A01D0DEE0029301920D1C041CD9
:104AE000730749D503688768DE08F600BE19B74228
:104AF00011D23868A84204D1019B022B00D0A1E05A
:104B00009EE0029B002B04D1291CFDF771F80028C0
:104B1000F2D10837EBE7019B012B00D0BBE0236803
:104B2000D9086368994210D104316160A068C90056
:104B30001EF0A4FD23686268DB08D21ADB00A060C7
:104B4000D200C018002126F074FB07222068C30899
:104B5000591CC90002400A432260A268DB004F4989
:104B6000D3181D60181C0D40062D00D194E00121C2
:104B700022788A4322708FE04368002B05D1019B85
:104B8000012B00D087E000F08DF8444B2B400493BC
:104B9000062B04D1E8081DF068FF039005E0022011
:104BA000291C03F081F9431003930398616814F002
:104BB000D9FF002600910591009BDF00A368DF1953
:104BC000386800281AD1019B311C012B63D1206861
:104BD000C3080133DA000723034013432360002E88
:104BE00000D1391C00234B60049B0D60081C062B70
:104BF00052D001222378934323704DE0042803D13F
:104C0000002E21D13E1C1FE0A84203D1019B022BA4
:104C100018D108E0029B002B16D1291CFCF7E8FFF5
:104C2000002811D0F2E723686168083B23600098F0
:104C3000013014F097FFA368C900CB58002B00D0B7
:104C400004233B60381C27E000986168013014F0B1
:104C500089FF059A00919142AED1019B012B1AD197
:104C6000002E0ED023680833236000237360049B5A
:104C70003560062B03D02378019A93432370301CB0
:104C80000AE0201C00F00EF80398616814F06AFF37
:104C90000091059190E7002007B0F0BD070080FF6C
:104CA00080CA0200F7B54368041C0193591C002315
:104CB000174A9A588A4205D204335C2BF8D1012551
:104CC0000D4300E0151CE800A7681EF0D3FC072385
:104CD00022686560134001223D1C002623601343B7
:104CE0002370A060019B9E420DD02968002907D047
:104CF000042905D0201C0122FFF7D2FE6B68436017
:104D000001360835EEE7381C1EF0C9FCF7BDC04679
:104D100048D002000022F8B50768051C8668781C98
:104D2000114BD358834205D204325C2AF8D10123B7
:104D3000184300E0181C002428606C6080001EF0FE
:104D400099FCA860BC420BD0A300F158002905D003
:104D5000042903D0281C01221EF0E8FE0134F1E7EB
:104D6000301C1EF09CFCF8BD48D002007FB5012825
:104D700003D108680021FCF7D7FE02A810211DF01E
:104D8000CEFE02A809491EF055FB039B0193002BA0
:104D900006D1042804D1064823F0A4F8FBF73BFA17
:104DA00002A9044807F00AF807B000BDBF74030069
:104DB00030FC020080CA020010B510201EF048FC32
:104DC000041C034B08C021F0C6F8201C10BDC046CF
:104DD00030D3020038B5052827D80D1C14F01EFE6C
:104DE00005250D03141C081C20E0081D21F0DFF927
:104DF000031E0F481AD00F4818E0081D21F0F6FCDA
:104E000001214000084311E0FFF7D6FF291D041CD3
:104E1000043021F002FA06E0FFF7CEFF291D041C42
:104E2000043021F00AFA201C00E0002038BDC04602
:104E300034CD020078CD020038B5051C83070CD1B3
:104E4000104B02689A4208D1FFF7B6FF041C291DD7
:104E5000043021F0D7F9201C12E0281CFCF71AFFBF
:104E6000C0231B06984205D180200021C0051EF0FA
:104E700032FF05E0C317C018584001234000184313
:104E800038BDC04630D3020038B5051C18F0FAF919
:104E9000012802D10F48104903E0002805D10F482E
:104EA0000F490CF071FAFBF7B6F9281C1FF054F803
:104EB000002806D1281C15F09DFE01244000204347
:104EC00007E0FFF779FF041C291C043021F0C2F829
:104ED000201C38BD3CFD02005E4A030010F80200B1
:104EE000774A030007B5C30701D540100DE0043031
:104EF00001A908F06FFF002801D0019805E00349DF
:104F0000034822F0FCFFFBF786F90EBD904A030030
:104F10003CFD0200F0B58DB00190012008400D1C51
:104F2000171C041E07D04B1003A802A9022221F06F
:104F300051F803AE08E003230B4065D19A4A096893
:104F4000914200D025E12E1DFB0707D57B1003A859
:104F500002A9022221F03EF803AD1AE003231F420A
:104F600005D1914A3968914201D13D1D11E03B4084
:104F7000022B00D011E18D4B3B40062B00D10CE100
:104F8000301C21F086FC3A1C011C0198FFF7BCFC88
:104F900008E1019B092B01D0162B16D1281C21F00A
:104FA00006F900283DD1301C21F073FC041C281C9C
:104FB00021F06FFC011C201C15F07AF90323022458
:104FC00098437B4B0443E018ECE0019B182B00D97D
:104FD000BAE0FFF7F1FE041C019814F01FFD6A709F
:104FE0006476760D10171DDC478E946A70647676B1
:104FF0000D10171DDC478E00201D311C4FE0201DB9
:10500000311C2A1C21F0EBF9201CCBE0201D311CA7
:105010002A1C21F025FBF7E7281C21F0C8F80028FE
:1050200002D06448644957E006A8271D20F093FF8A
:10503000321C2B1C381C06A908F076FD2A78337820
:105040005340DB070ED506A821F0B1F8002809D19E
:10505000012109A8494220F0B3FF381C391C09AAD4
:1050600021F082F906A820F082FFCDE7281C21F06C
:105070009EF80028D5D109A8271D20F06CFF321C0E
:105080002B1C09A8391C08F04FFD09A820F06FFF60
:105090002A7833785340DB07B6D5381C391C2A1CD4
:1050A00021F062F9B0E7201D311C2A1C21F0DFF944
:1050B000AAE7201D311C2A1C21F059FAA4E7201D63
:1050C000311C2A1C08F0BCFC9EE7381CFFF70AFFC5
:1050D000021E05DA39483A4922F011FFFBF79BF826
:1050E000019B201D311C032B01D0102B02D108F095
:1050F0003BFC89E721F0D8F886E7201D311C2A1CEB
:1051000021F031FB80E7281C21F051F8002888D1DC
:10511000FFF752FE271D0190321C2B1C0430391C56
:1051200008F002FD2A7833785340DB0704D5381C99
:10513000391C2A1C21F018F9019B09A902200993A6
:105140000A9404F0BFFD2DE0301C291C21F034F836
:10515000019A031C193A0020042A23D8101C14F0C9
:105160005DFC0307130B0F001648002B1ADA0EE044
:105170001448002B0BDC15E01248002B12DC06E073
:105180001048002B03DA0DE00E48002B0AD10E4820
:1051900008E0181C06E0002004E00198291C3A1CD5
:1051A00001F090F80DB0F0BD30D30200070080FF91
:1051B000000080806CFC02004D4A030010F80200E1
:1051C000BD4A030078CD020034CD0200A0200B4A76
:1051D0000B49D36F30B5C0058B4201D1094C01E0BA
:1051E000A124E4001D68055118895B68D3671B89F9
:1051F000181A002801DC0B89C01830BD882E002049
:10520000080000200C05000008B5044A044B0220E9
:10521000DA670449782205F0A5FF08BD08000020E0
:10522000882E0020CD510000F8B5144BC218144B45
:105230009A421FD8134B051118681E1C002801D173
:105240001D8119E01EF0A7FDA0220F4B3168D20589
:10525000D15037897468B44207D02089391C68431B
:1052600014F08AFC20816468F5E72581FFF7CCFF04
:10527000002001E001204042F8BDC04618FCFFFFBD
:10528000583E0F00080000200C050000014B188953
:105290000001704708000020334BF7B5051C994208
:1052A0005ED80120314AA840161C5368B34205D08D
:1052B0001F68074204D11A1C5B68F7E7002310E05F
:1052C000C44327401F60A0270194294CFF05385193
:1052D0003068019C0440346018680028EED158689A
:1052E0005060002081423DD0204A4900148901319C
:1052F0006143C912814200D10121081B4742474145
:105300006DB2C91B641A291CA0200326C131FF31CC
:105310008900C0050E500120A840051C161C10680D
:1053200051682843A4B210600889914204D0A04279
:1053300002D20E1C4968F7E7A04203D10B681D4357
:105340000D600BE0002B04D1191C0C2001F08EFD28
:10535000031C72681D605A601C817360002001E0AC
:1053600001204042FEBDC046FF03000008000020AF
:105370000C05000000487047F0D00200F8B50D1C85
:10538000061C141C05F03AFE2B1C032733433B423A
:105390000BD1BC4209D9A208301C291C13F03EFFD6
:1053A000231CBB43F618ED183C40002C04D0301CE5
:1053B000291C221C25F060FD8023044ADB00D35801
:1053C000002BF9D005F00AFEF8BDC04600E0014010
:1053D000F0B58BB0079310AB80CB041C01911B7808
:1053E000062A11D8012A05D93F230B700B1C013363
:1053F000019301E0002A02D0002301990B700123E0
:105400009342AD4168423BE2002809DA019B0199D1
:10541000013300932D230B7080231B06C41807E073
:1054200001990091002B03D00131009101990B707B
:10543000FF21C905081C019B20400993231C8842B9
:105440001FD12023079A00991A40131C64024E2290
:10545000CD1C002C09D100985A40492142704622A7
:10546000594053400170837007E000991A430A7055
:1054700041214B4000994B708A7000232B70019B97
:10548000D0E1002F00DA0627551E0099019A521A22
:10549000AD182022079911430291672903D1002FEB
:1054A00012D1012710E0002B1DD1029B662B0DD1DC
:1054B0007B1CAB4200DBAF1E6623039300237D1CE5
:1054C000049305931E1CE9E0002B0CD17B1DAB421D
:1054D00000DBAF1F029B652B00D0CDE003933A3B6E
:1054E00000250493CCE0B64A934271D8201CB549FC
:1054F00014F0A2FC431E9841002620233030059072
:1055000004930396B04B211CF05814F08BFC002838
:105510000AD0049A039B944663440393AB4B201C2C
:10552000F15815F0B7F8041C049B04365B10049383
:10553000182EE7D12D230493A14B039EA34213D32E
:10554000201CA04914F078FC002804D0002E09D1BA
:105550002B23049306E0201C9D4915F09BF801368F
:10556000041C01E0FE24A405029B662B03D0672BDC
:1055700024D1042E22DC6A46009B127D1A70029B05
:10558000672B01D1731EFF187B1CAB4200DBAF1EE3
:10559000002F00D155E12E23009A3D1C5370131C9F
:1055A0000233013E0093002E6DD0002D04D0302236
:1055B000013D1A700133F4E7049565E06B1FBB42AF
:1055C00000DD48E1029A672A63D0AF1F131C62E036
:1055D00000262023039604937C4B211CF05814F0E2
:1055E00017FC00280AD0049A039B94466344039353
:1055F000754B201CF15815F04DF8041C049B043623
:105600005B100493182EE7D1201C7149039E14F0FF
:1056100013FC002805D0201C6E4915F03BF801361C
:10562000041C029B662B0AD1AE420BDAF31901333C
:10563000AB421ADBAD1BAF1E17D56F1E15E0029BE8
:10564000652B05D16B1FBB4200DDEDE0AF1FEBE02A
:10565000029B672B00D00CE13B1DAB4200DB6F1FB0
:10566000BE4200DBE7E0F343FF180023BD190493BB
:10567000013505966633DCE00025029B0495039313
:1056800005952E1C0AE0049601235B4205936733BF
:10569000CFE01F1C029B002503930595FB43DB17FE
:1056A0001F40039B652B01D17D1C06E0039B672BEC
:1056B00003D13D1E01D101252F1C00230693069B1B
:1056C000AB4225DA201C15F095FA009B009A0133B5
:1056D0000893031C30331370059B069A934207D13D
:1056E000002F05D0009B009A023308932E2353709D
:1056F00015F0A0FA011C201C15F0FEF8344914F036
:10570000C9FF069B041C01330693089B0093D6E750
:10571000029B009D662B02D1012E62DCA1E0201CC1
:105720002D4914F089FB00283FD0009B013B1A78DB
:105730002E2AFBD0111C3039092902D901330193DB
:105740000AE0392A03D0013201931A7004E03022B2
:105750001A70019A9342E9D1019B1B78302B1CD11E
:10576000019A52782E2A0BD10399662908D0019903
:105770004B70049B0A702D2B01D1013E00E00136D5
:10578000009D01352B1C019A934204D95A1E1178B1
:105790001970131CF7E731231370094B9C4204D88E
:1057A000039B663B5A425341FF1A029B672B18D159
:1057B000002F16DD6B1E1A78302A0FD11D1CF9E759
:1057C000FFFF7F3FF8FF7F3FC0D10200A8D102005A
:1057D00000002041CDCCCC3D0000A0402E2A00D1BD
:1057E0001D1C049B002B1AD02023079A0A211A4063
:1057F000131C452213432B706B461B7C301C6B70B3
:1058000014F0BAF90A2114F09DFA3031A970301C55
:105810000A2114F097FA2C1D3031E970251C002361
:105820002B70099BE81A2BE02B2300250493059588
:105830003A33039332E7672303933C3B00250493F9
:105840002BE7009B04970133009301235B420593F0
:105850006733039303E0029B039300230593002522
:105860001FE7201C074914F0E7FA002800D05CE786
:10587000B7E7029B002503932B230595049310E7BC
:105880000BB0F0BD0000A040F7B5061C194D0C1C74
:10589000281C1CF05FF9311C17481CF089F81748C8
:1058A0001CF058F916481CF055F9FF239B00E61828
:1058B00021787F2916D0B44214D0627850290BD8B1
:1058C000104B11485F5C114B5B5C0092A278019217
:1058D0003A1C1CF06DF803E0A3780D481CF068F842
:1058E0000434E5E7281C1CF035F90A481CF032F9AD
:1058F000F7BDC0460C4B0300394B0300414B03007E
:10590000174C030098460300624B0300E94603006E
:10591000854B0300354C0300F0B51D1C89B0069083
:105920001B48161C07911CF015F9291C19481CF07E
:105930003FF819481CF00EF918481CF00BF9002428
:10594000AC4220DA079BA0001818C778069BBC461B
:105950003F073F0F195D82780378009707889B0601
:10596000FF047F0E019767463F09029700681209FE
:105970000003400E0390305D9B0E049008481CF01D
:1059800017F80134DCE702481CF0E4F809B0F0BD78
:105990000C4B0300A64B0300D34B0300054C030044
:1059A000374C0300F0B5456887B00393AB6805A892
:1059B0000F1C029205931FF011FD061C05A81FF095
:1059C0000DFD0323321C58430932101880001DF0CE
:1059D0003FFE041C094BAA6803606B68291C4360E6
:1059E000059B06629B1AC360039B083000933A1C18
:1059F000029B05F061F9201C07B0F0BD20D2020027
:105A000038B5051C88680C1C1FF0AEF80349021C51
:105A1000231C281C21F0CDF838BDC046594C03008A
:105A200010B5041C08201DF013FE024B44600360F7
:105A300010BDC046D8D10200F8B5041CC0680E1CC9
:105A4000002801D118602FE0201C111C6269203051
:105A50001D1C824208D1154A964206D014491548A9
:105A600022F04DFAFAF7D7FB1660201C124E63683D
:105A70000830776873600BF043FD7760012806D02B
:105A80000023E360022809D063691B680BE06369A7
:105A90001B682B60002B07D1E36005E0236A073306
:105AA0009B00E41863682B60F8BDC04674E00200F8
:105AB000774C030000FD0200882E002013B501ABD7
:105AC000141CFFF7B9FF01280DD0184C02281CD078
:105AD000019BA34228D0002B26D0012101AA144803
:105AE00022F0FAF90DE0002C0DD0201CFBF7E8FFA6
:105AF000104905F0FFFF002805D00F480F4922F09C
:105B0000FEF9FAF788FB01980FE00198FBF7D8FF40
:105B1000074905F0EFFF002801D10198F1E701984E
:105B20000BF012FCA042F8D1002016BD74E0020078
:105B3000BCFA0200B4FD02004CF80200AD4C0300B8
:105B400010B50C1C022801D1486800E0886802F0FA
:105B5000D7FF0649021C2068FFF7B0FF002804D1D8
:105B6000034822F0BFF9FAF756FB10BD74E00200BB
:105B7000BCFA020008B50022FFF7A0FF002804D1FC
:105B8000024822F0AFF9FAF746FB08BDBCFA020062
:105B900008B502490022FFF791FF08BD74E002003A
:105BA00013B5124C124A211C01ABFFF745FF012827
:105BB00002D0022805D017E00E490F4822F09FF9C5
:105BC00010E00198FBF77CFF0C4905F093FF0028DB
:105BD0000AD10198FBF774FF094905F08BFF0028F3
:105BE00002D10198FAF717FB201C16BD74E00200E1
:105BF000CCF80200AD4C03004CF80200B4FD0200EA
:105C0000BCFA020000237F2803D8034B1B5C9B07D0
:105C1000DB0F181C7047C046CD4C030000237F28C3
:105C200003D8034B1B5C1B07DB0F181C7047C046D7
:105C3000CD4C030000237F2803D8034B1B5C5B077C
:105C4000DB0F181C7047C046CD4C030000237F2893
:105C500003D8034B1B5C5B06DB0F181C7047C04668
:105C6000CD4C030000227F2808D8054B0132195C77
:105C70000C23194202D15F3842424241101C704746
:105C8000CD4C030000237F2803D8034B1B5CDB06AD
:105C9000DB0F181C7047C046CD4C030000237F2843
:105CA00003D8034B1B5C9B06DB0F181C7047C046D8
:105CB000CD4C0300F8B50327041C381C0E1C5043C0
:105CC000151C1BF02FFA0121331CA022B140C13357
:105CD000FF33D2059B006060267065809F50094BA2
:105CE000D1500022AA420CDA0323002153436068FA
:105CF0000132C1546068C01841706068C31899705F
:105D0000F0E7F8BD0C0500000122F0B50378A021F2
:105D10009A40131C894AC905051C85B08B50322056
:105D20000138C046C046C046C046C046C046C04610
:105D3000C046C046C046C046C046F1D1EFF3108110
:105D4000019172B60020698802910299884200DBB5
:105D500007E1032141436C686118CC1C0394A02423
:105D6000A1260F78E405FF09F600002F0BD0A35100
:105D7000C046C046C046C046C046C046C046C046F3
:105D8000C046A3500AE0A351C046A350C046C04637
:105D9000C046C046C046C046C046C0460C78A12793
:105DA000A446A0246646E405FF00E35176060AD522
:105DB000C046C046C046C046C046C046C046C046B3
:105DC000C046A35009E0C046A350C046C046C046E6
:105DD000C046C046C046C046C0460C78A127A4466F
:105DE000A0246646E405FF00E351B6060AD5C04686
:105DF000C046C046C046C046C046C046C046C04673
:105E0000A35009E0C046A350C046C046C046C046A5
:105E1000C046C046C046C0460C78A127A446A02470
:105E20006646E405FF00E351F6060AD5C046C046C3
:105E3000C046C046C046C046C046C046C046A35045
:105E400009E0C046A350C046C046C046C046C04652
:105E5000C046C046C0460C78A127A446A02466468A
:105E6000E405FF00E35136070AD5C046C046C046E8
:105E7000C046C046C046C046C046C046A35009E022
:105E8000C046A350C046C046C046C046C046C046F5
:105E9000C046C0460C78A127A446A0246646E40567
:105EA000FF00E35176070AD5C046C046C046C0464B
:105EB000C046C046C046C046C046A35009E0C046E2
:105EC000A350C046C046C046C046C046C046C046B5
:105ED000C0460C78A127A446A0246646E405FF002E
:105EE000E351B6070AD5C046C046C046C046C046C4
:105EF000C046C046C046C046A35009E0C046A350B5
:105F0000C046C046C046C046C046C046C046C04661
:105F10000C78A127A446A0246646E405FF00E351BF
:105F2000F6070DD5C046C046C046C046C046C0466E
:105F3000C046C046C046A3500CE0C0460C05000059
:105F4000C046A350C046C046C046C046C046C04634
:105F5000C046C046039C0131A14200D0FFE601309B
:105F6000F3E6019B83F3108805B0F0BD30B58DB02A
:105F7000051C6846FAF734F9011E0ED12A1D0120CE
:105F80001EF008FD0122EB68041C5B1001335B006E
:105F90001343EB60FAF73AF90AE00198064A0368FE
:105FA0000024934204D0054A934201D0FAF733F912
:105FB000201C0DB030BDC046BCFA02006CF90200D6
:105FC00010B5041C10201DF043FB044B0360236834
:105FD0004360636883600123C36010BD9CD20200EC
:105FE000F0B500270D1C85B003901E1C081C104B3B
:105FF000111C00970222FAF7F7FAA81C80001DF086
:1060000027FB039B041C03606B1E3D1C0393436032
:1060100033688360039B9D4207D20135AF00F0597E
:1060200002F0A6F8E719B860F4E7201C05B0F0BD4F
:10603000FFFF00007FB54B680E1C5C106846211CFA
:106040001CF084FD029D0021281C221C25F0F1F883
:1060500001213068014004D1221C2B1C1DF022FEBE
:1060600008E0042C00D9042443100021201C2A1C21
:106070001EF0AEFE6946024805F0A0FE04B070BDF9
:1060800048EF0200F0B5002585B0081C0C1C1E1C52
:10609000111C00952A1C0223FAF7A6FA0120AC4233
:1060A0003FD0844228D1306820423AD103230340B4
:1060B000AB4203D11C4A0168914232D01B4A0240D4
:1060C000062A06D0002B0BD103689A69184B9A4216
:1060D00006D103A906F060FB00220399131C18E007
:1060E0000323021C1A40022A16D1FF22D20580186F
:1060F0009843FEF7C9FE14E003A9306806F04CFB94
:10610000071C7068039CFBF7C5FD211C021C2B1C9F
:10611000381CFDF7F9FB04E0FBF7BCFD0123400050
:10612000184305B0F0BDC04630D30200070080FF21
:1061300079CD0000F0B58DB0099214AA1278041C34
:106140000B9215AA12780F1C0892DA0700D494E07B
:10615000181CFBF79FFD002305900793002803DA26
:10616000434205932D230793129B0026023B1E2BCF
:1061700016D8524B129A2020995C13F06DFC089BA4
:10618000C5B2B34204D0681C032113F065FC061CA1
:106190001398002801D025F051F90335AE193618AF
:1061A0003B689E4204D9301C1DF052FA20603E60CC
:1061B00023689F19069300237D1E2B70059B002BDF
:1061C00003D1023F30333B7033E00A9505981299B2
:1061D00013F0B8FD0F1C0598129913F0CDFC3B1C71
:1061E00005903033092F02DD0B9B0A3BFB186F1E15
:1061F0003B70089B002B16D0059B002B19D0069BEB
:106200009F4216D90A9BDB1B032B01D03D1CDDE707
:106210006B4620229B181B78AF1E3B70069B9F424B
:1062200007D90A97F2E7069B9F4202D9059B002BEC
:10623000ECD1139B002B0ED0181C25F0FFF8069B09
:10624000381A984207D90023139AD25C002A2ED01C
:10625000C2540133F8E7079B002B06D0069B9F42F0
:1062600003D96B461B7F013F3B702368381C9E1986
:10627000F61B099B013E1E601EE09A0710D1104AD2
:10628000196891420CD1129A391C0092139A01920A
:106290000B9A0292089A0392099A1DF0DAFC0BE01D
:1062A000002322681370099A2068136004E0079B9A
:1062B000071C002BD5D1D8E70DB0F0BD4D4D030024
:1062C00030D3020010B50C1C1449031C8A4202D1C1
:1062D000211C01221EE012498A4202D1211C032204
:1062E00018E00020072B17D10E4B1340062B0ED0C1
:1062F000930711D113680C498B4208D00B498B428C
:1063000005D00B498B4202D00A498B4204D1111CA3
:106310000720221C01F0BAFF10BDC04678CD020054
:1063200034CD0200070080FF80CA020048EF02005F
:10633000BCDC02009CC6020070B5061C081C1CF0E8
:1063400068FC051C1DF02EFB041E06D108492A1C02
:1063500008480BF019F8F9F75EFF301C1EF00DFC31
:10636000031C0121201C1A1C02F066FC70BDC046F3
:106370006E4D0300B8FB020010B5041C1CF049FC74
:106380001EF011FC031C012083420CD00649201C86
:106390001CF05BFC201C1CF03CFC1EF004FC0238D2
:1063A00043425841400010BDBF4D0300F0B59DB0C1
:1063B00000AF0C68032807D9CB680025FB600428D0
:1063C00005D00D696D1002E00025A24BFB601C2377
:1063D000201CF91806F0E0F97861002D56D09E4C8B
:1063E0006E216068FDF762FE061C6068962100223F
:1063F0000430FEF755FB1823FA18D118041C301C82
:1064000006F0CAF93B6B011C013DC018002C0CD1F1
:1064100088420AD9013803782E2BF9D105E0884249
:1064200003D9013803782E2BF9D1013DF7D2FE694B
:10643000441A251C002E01D0751C2D192B1C6A46F0
:106440000E33DB08DB00D31A9D46181C221C3B616F
:1064500024F0D2FE002E08D02E233A697969135514
:1064600001341019321C24F0C7FE3869291CF9F7D1
:106470007BFF012804D17949794821F040FD5FE094
:1064800006243B69C0000443FD617B61201C05F0CC
:10649000EDFC02F007FE051E15D02E21786924F0D0
:1064A000B5FF011C281C002900D1D0E0694BFA6817
:1064B0009A4200D0CBE07B69C91A181CF9F754FF47
:1064C00002F0F0FDC3E018220823BA18D0181033E8
:1064D000FA184021D2181CF041FB0126BD603D6135
:1064E0002C1C04E07B699B5D2E2B05D00136FB69DB
:1064F0009E4200D9A5E0F5D1311C7869F9F734FF47
:1065000018220823BA183860D0181CF050FB182243
:106510000823BA18002815D1D018321C79691CF04C
:10652000DDFA18220823BA18D018FFF725FF786083
:106530007B68002B13D14A484A493A680AF024FF85
:10654000F9F769FED0182F21F9F7E4FF7B693A6962
:106550001820991808233818B21AC018DFE73868CD
:1065600002F0A0FD041E57D1386802F061FDFB69FE
:10657000041C9E4208D13C4BFA689A4204D18068C0
:106580006E215E221DF0A6F97B68012B3DD11822F9
:106590000733BA18D0181CF003FB18220823BA18C6
:1065A0007860D0181CF003FB0022011C786805F00D
:1065B0003BFC1221021C201C01F0B6FD182208230E
:1065C000BA18D0182F21F9F7A5FF18220823BA18F6
:1065D000D01826491CF039FB18220823BA18D01805
:1065E0001CF017FB1EF0DFFA022806D11822082340
:1065F000BA18201CD118FFF79FFE18220823BA18DA
:10660000D0180C211CF060FB06E018220823BA18F1
:10661000201CD118FFF790FE002D0AD03A697B6943
:10662000B11A9818F9F7A0FE221C011C281C01F0D1
:106630007BFDBB68002B00D1BC60731C3B61251C3B
:1066400054E7044BFA68201C9A4200D1B868BD4652
:106650001DB0F0BD74E00200882E0020834D0300C1
:10666000B8FB0200A24D030078CD0200B74D030035
:1066700010B5041C08201CF0EBFF024B44600360C3
:1066800010BDC0469CD302000F22114008B5031C68
:10669000081E03280ED813F0C1F90204090D181CB6
:1066A0000BE00648002B08D1054806E0181C1DF039
:1066B00021FB02E0181C1DF038FB08BD34CD0200A0
:1066C00078CD0200F7B5002805D13A493A4A3B484F
:1066D00020F06FFA6BE00D68281CFBF7F1F94368B6
:1066E000061CEF2B04D16D68281CFBF7E9F9061C8A
:1066F00000233349DA005058854203D18A182F48C5
:1067000051680AE00133602BF3D12C4C2D4B201C37
:106710009D4201D09E4203D12B4920F07EF946E0F4
:106720002A4920F046FA281C0021FBF7FDF9201C1D
:106730002749726820F03DFA264B9E4203D1281C5F
:106740001EF01BFA0CE0244B9E4200D0351CA86BB7
:1067500000282CD083072AD1204B02689A4226D1E8
:106760001DF0CBF80025061EAE4220D073689D4276
:106770001DD2B268EB00D3181F68002F15D05B68DC
:106780001749201C019320F014FA381C0021FBF754
:10679000CBF91449201C20F00CFA01980021FBF7DA
:1067A000C3F9201C104920F004FA0135DEE70F4838
:1067B000FEBDC046C7A40300C34D030010F0020095
:1067C000D8D30200780303003A5203005652030064
:1067D0005E52030028D902006CEB020064CE020076
:1067E000CCA703006E5203003F4B030074E002008D
:1067F00038B5151C041C1DF038FC2A1C201C02494D
:106800001DF0E4FB38BDC0464D40020038B5437969
:106810000D1C0024032B06D9836A074C9200E41A4E
:10682000C369D358E41803211DF010FC44702412EE
:106830000570847038BDC046FD7F0000F8B50023A8
:10684000041C617183608371E260036101330F1C7A
:10685000151C4361032906D80121836949429A0026
:10686000C06924F0E6FC0023A36223622A8C6B8CAF
:10687000D3180122002B00D01A1C364E201C311CCC
:106880001DF0A4FBAA8C201C311C1DF09FFBE368AB
:10689000201C197E1DF0D3FBE368201C997E1DF09F
:1068A000CEFBE368201C197F1DF0C9FBE368201CA8
:1068B000997F1DF0C4FB042F07D1636A226A201C54
:1068C0009A1A311C1DF082FB03E0201C02211DF0EE
:1068D000AAFB311C201C2A691DF078FB311C201CEE
:1068E000EA681DF073FB00262B8D9E420BDAEA6AE4
:1068F000F300D3181A78032A03D19978201C1DF0CD
:10690000B4FB0136F0E7201CFF211DF0AEFB042F85
:106910001FD10022698BAB8BC9188A4219D0002085
:106920002E8DB0420CDAEF6AC300FB185F78FF07C8
:1069300004D55F88974201D15B6802E00130F0E73F
:1069400002230626DB003343666B9000835101323D
:10695000E3E7F8BD2740020013B54379012B2FD0A0
:106960008268041C002A03D01648174920F021F938
:10697000201C00211DF063FB6379032B13D1226AD5
:10698000D01C9843A36A20626062E362C0181CF0C6
:1069900071FEE3682063588B9B8BC01880001CF04D
:1069A00069FE60630CE0042B0AD1E368616AE26A65
:1069B0005218197E00915869216B636BFCF7A6F998
:1069C00013BDC04610F00200D4730300224BF7B58C
:1069D000A0331B68022B3ED84469A1423BD9051C59
:1069E000836A026901919E1A0C1B331C23432ED02B
:1069F0000096062C10D81F2E01D91F230093271EA6
:106A0000032F00D90327281C01211DF00CFB009A3D
:106A10007B011343037016E00F2E01D90F2300935F
:106A20000E4B271E9F4200D91F1C0221281C1DF05F
:106A3000FAFA8023702200995B4219433B09134004
:106A40000B4303704770009BE41BF61ACDE7AB6A5B
:106A50002B61019B6B61F7BD882E0020FF070000B2
:106A600038B5041C0D1C01211DF0CFFA201C0F2D80
:106A700005D0102D05D010210E2D06D102E01121D8
:106A800000E012211DF0F1FA0DE017211DF0EDFAE2
:106A90000322A36A201C03339343A36204211DF045
:106AA000D5FA014B036038BDCCEF0200F8B5061CE7
:106AB0000D1C141E124F11D1111C1DF0A6FA8023BB
:106AC0001B021D4203D0301C32211DF0CEFA2A1CBD
:106AD000301C3A403521FFF799FE0FE03A1C0A407E
:106AE0004621FFF793FE80231B021D406A1E95413D
:106AF000ED012C43E1B2301C1DF0B7FAF8BDC046E1
:106B0000FF7FFFFFF7B52E4B2E48191CFC31CA6BD7
:106B1000824254D9043ACA63191C1268A4310F681E
:106B2000501C84083E5D051C032425406D002E4149
:106B3000811A34400130022CF3D0AC331B681201AF
:106B40009B180901019389080029DCD0019B1B686F
:106B50001A072FD11A48041CAC342468A34229D345
:106B6000051CB0352D68AB4224D2051C1B1BDC175D
:106B7000240FE318A4351B112E689C0836191D1C20
:106B8000032425406D00AC46377862463D1C154114
:106B90002540012D0ED194403C433470061CFC3638
:106BA000F46B094FBC4203D2201DF063236001E067
:106BB000B4300560019B013904330193C4E7F7BD8C
:106BC000882E0020402F0020C02F00200F23994343
:106BD00070B5061C0D1C081A412112F03DFF104C27
:106BE000021C231CA8331860231C211CA4331E6024
:106BF0008301EB1AAC310B60231C301CB033002135
:106C00001D6024F016FB221C0023FC325364221C5E
:106C1000FE32D38701223F33FF33E25270BDC046BC
:106C2000882E0020024BFE33DA8F0132DA8770475C
:106C3000882E0020024BFE33DA8F013ADA87704744
:106C4000882E0020034BFE33D88F431E9841C0B2DC
:106C50007047C046882E0020F7B5002400900191AF
:106C6000019B9C4238D0009AA300D3581A072FD119
:106C70001A4A111CAC3109688B4229D3101CB03060
:106C80000068834224D2101C5B1AD917090FCB1855
:106C9000A4301B11066899087618181C03210840B7
:106CA0004000844637786546381C28410840012852
:106CB0000ED1A94039433170161CFC36F16B084FD8
:106CC000B94203D20A1DF2630B6001E0B4321060D6
:106CD000FFF718FF0134C3E7F7BDC046882E002038
:106CE000C02F002008B5FFF79DFF06480022031CB7
:106CF000B4331A60031C044AFC332621DA63FFF71D
:106D0000ABFF08BD882E0020402F0020F8B52C4C8A
:106D10000025221CB4321368AB4221D0231C15601D
:106D2000284AFC33DA63231CA8331B689B009D426E
:106D3000EDD2221CA4321268AB08D15C03232A1CBA
:106D40001A40520011410B40032B07D1221CFC3288
:106D5000D36B191DD1631D60FFF7D4FE0135E2E747
:106D60001E1C221CA83212689200934221D2211CC0
:106D7000A43109689A088A18032011781F1C0D1C79
:106D800007407F003D410540022D05D0854209D0D6
:106D9000012D0CD12E1C01E0002E08D0B8408143FB
:106DA000117004E00220B8400026814311700133C5
:106DB000D7E70023FC346364FFF73CFFF8BDC0460F
:106DC000882E0020402F0020274AF0B5131C111CEC
:106DD000B033AC3109681B685B1A111C03600023D7
:106DE000A8310C68191CA432156843608360C36025
:106DF00003614361A400A1422FD08A08AE5C032244
:106E000094460A405700321C66463A413240012AF5
:106E100012D8012B03D1C6680136C66004E0022BEC
:106E200002D10669013606614669B34200D9436161
:106E3000012A0CD0002A06D0022A0CD14268013364
:106E40000132426007E083680133836002E04368F7
:106E500001334360131C0131CDE743681B014360DC
:106E600083681B018360F0BD882E0020F7B5404D7C
:106E70000F302B1CFE33DC8F0609002C01D00020C4
:106E800075E0002EFBD09F235B00E95A4B4259412D
:106E90002B1CFC335A6C2B1CA8331B6801932B1C36
:106EA000A4331868019B9A4228D2835C9F0704D1BF
:106EB0000134B44202D3920026E000240C273B4266
:106EC00005D10134B44203D3920001321CE0002406
:106ED00030273B4205D10134B44203D39200023241
:106EE00012E000243F27BB4305D10134B44203D351
:106EF0009200033208E000240132D3E70029BED11A
:106F000002F0ECF90121C3E7131B591C012C04D139
:106F10002E1C541CFC36A40874648C08001903242D
:106F200001260C406400A640341C0678023334432A
:106F3000047093420FD82C1CA43424689808241899
:106F400003200226184040008640301C267801337A
:106F500030432070EDE7AC352C680B010132E418AA
:106F6000521A1201201C002124F063F9201CFEBDDE
:106F7000882E0020224B70B51A1CFE32D28F002AB8
:106F80003DD102073BD11A1CAC321268904236D375
:106F9000191CB0310968884231D2801AC217120F09
:106FA00010181A1CA432001112688108555C041CC8
:106FB00003221440640025412A40012A1FD11A1CD3
:106FC000FC32546CA14200D251641D1CA4352A68C5
:106FD000840814190322011C161C114049008E401C
:106FE000311C267801308E4326702C688108645C41
:106FF000011C114049000C412240022AE5D070BD1D
:10700000882E0020031C0F2070B518402AD1164A84
:10701000111CAC3109688B4225D3141CB034246890
:10702000A34220D25B1AD917090FCB18A4321B1127
:1070300015689A08AC5C191C0322114049000C41E8
:107040002240012A0FD15A1C91086E5C141C0321A6
:107050000C4064002641D01A314001320229F3D09D
:10706000000100E0002070BD882E0020F0B55B4FCD
:10707000051C3B1C0020FE33DB8F85B0834200D013
:10708000A9E001920E1C854204D1081C291CFFF7BF
:10709000EDFEA0E0002900D199E00F22181C2A4043
:1070A00000D098E03B1CAC331B68101C9D4200D202
:1070B00091E0391CB03109688D4200D38BE0EB1AA6
:1070C000D917090FC9183B1CA4331B680911009379
:1070D00000988B08C35C0324081C20404000034137
:1070E000101C1C40012C76D1331C9446A8373868FC
:1070F0000F3380001B0902904F1C029A97421AD24C
:107100000098BA08825C381C039203221040039A4C
:1071100040000241101C03221040022801D101341A
:1071200007E0002807D101229444624612199A42CE
:1071300001D20137E1E7A3423AD01AD2CB181E1C84
:107140000C192649A6420DD0A4310F68B208BF1809
:107150000320321C0240520090403A7801368243AC
:107160003A70EEE7FC314A6C9B08934220D24B64A4
:107170001EE06246A21893421CD86218C8188242C8
:107180000FD216489608A4300068022786190320FB
:10719000104040008740381C377801323843307047
:1071A000ECE71A1B240112012819002124F041F8F0
:1071B000281C10E0019800280DD0301C0021FFF79A
:1071C00055FE061E07D02201291C24F015F8281CA4
:1071D000FFF7D0FE301C05B0F0BDC046882E002061
:1071E00010B58AB004A8FFF7EFFD069B094C039386
:1071F0000093049A059B201C07491FF0DAFC099BA9
:10720000201C039300930549079A089B1FF0D1FCAB
:107210000AB010BD10F002000074030023740300D4
:10722000F8B53F4D3F4E2B1CAC33301C3E491A681D
:107230001FF0BFFC00242B1CA8331B689B009C4242
:1072400024D2A20632D12A1CA4321268271C9446EA
:107250006146BA08895C03203A1C02405200114181
:10726000014202D101379F42F2D33A1B7F2A12D941
:107270009209301C2D491FF09CFC3C1C3F239C4371
:107280002B1CA8331B689B009C4204D3301C28494C
:107290001FF0C3FBF8BD2A1CAC3212682301D218C0
:1072A0001203120B301C23491FF083FC2A1CA4324A
:1072B0001268A308D15C0322231C13405B00194110
:1072C0000B1C13407132022B23D0073A032B20D022
:1072D0002E22012B1DD12B1CAC331B682201D3584D
:1072E000154954228B4214D01449083A8B4210D0CD
:1072F0001349083A8B420CD0124902328B4208D013
:107300001149043A8B4204D010490B328B4200D011
:107310001B32301C0E491FF04CFC01348BE7C04679
:10732000882E002010F002005774030072740300CE
:107330003F4B03008E740300BCDC02009CC60200BD
:1073400064CE02000CD00200C0D8020028D902008E
:1073500093410300F0B593B0061C06A80F1C141C43
:10736000F8F73EFF051E23D13368311C012603A820
:107370003A1C0193FAF70CF8A3082A1C3340019930
:1073800003A808F017FF051C03200CF069FD281C5A
:107390001DF0F1FA012040420CF062FDF8F736FFD3
:1073A000344203D01348311C0CF08EFD012518E047
:1073B000012040420CF054FD01210C4202D00D4846
:1073C0000CF082FD0798FAF77BFB0B4904F092FB67
:1073D000051E04D109480799FAF7B0FB01E08025A2
:1073E0006D0001210C4202D002480CF06DFD281CFA
:1073F00013B0F0BDBE74030030F9020010F00200BB
:107400001FB5202168461BF08AFB254821F055FA5C
:1074100068461BF0B9FB234821F04FFA0CF03CFD05
:107420000128F2D002280AD11F4821F046FA684606
:107430001BF09FFB01221D4B00201A702DE003283A
:1074400003D168461BF0A0FBE8E7042804D0C1B2D2
:1074500068461BF0F1FBE1E7154821F02EFA019A8E
:10746000002A08D1104821F028FA68461BF081FB59
:107470008020400011E09620029940000023FBF795
:10748000E1FC002803D10B481AF092FAC0E7012171
:107490000A1CFFF75FFFC305BAD505B000BDC046A3
:1074A00096740300C18303003E4B030006010020D5
:1074B00029480300B174030030B587B002A8202129
:1074C0001BF02DFB444821F0F8F9444821F0F5F970
:1074D00002A81BF059FB02A841491BF0ABFF012891
:1074E00009D1404821F0E9F902A81BF042FB002035
:1074F0003D4B18706EE0022803D13A4821F0DDF9C7
:10750000E0E703281AD0042808D1364821F0D5F93D
:1075100002A81BF02EFB802040005BE0052825D14F
:10752000324821F0CAF902A81BF02EFB0CF0B4FC83
:107530006B46C1B2DC1D2170032901D12948C5E782
:10754000042904D1274821F0B8F9012427E002A832
:107550001BF072FB23780D2B03D1254821F0ADF9E8
:10756000E4E7201C01210CF0AFFCDFE702A81BF0D0
:107570001EFB0028ACD002A81BF04BFB09F0B6FCA8
:1075800000280BD002A80A211BF056FB02A81949BB
:107590001BF050FF0328D1D00428ECD1002402A80E
:1075A0001BF0FEFA051C02A81BF001FB021C962032
:1075B000291C40000023FBF745FC002803D10E489E
:1075C0001AF0C8FA84E7211C0622FFF7C3FEC305A0
:1075D00000D47DE707B030BDC0740300057503001B
:1075E0002B7503003E4B030006010020307503009D
:1075F00060750300677503009828030038B50523FC
:10760000041C094A094D1068434309481B199B0093
:1076100018582B68146018180F23194009012860A6
:1076200003F016FB38BDC046680100206001002051
:1076300048D70200A839031C00B5081E06282ED81A
:1076400012F0ECF9040A10151B2027009A18E22307
:10765000DB00D218107826E0C4329200D05C80069D
:10766000800E20E0C4329200D05AC00403E0C4323D
:107670009200D0580003400E15E0C43292009A18D0
:1076800090780AE0C43292009A18D0780007000F70
:1076900009E0C43292009A18D078000903E0002073
:1076A000014A024B1A6000BD597D0300040000200E
:1076B000A83910B5041C081E062846D812F0AEF9E9
:1076C000040A131E29333B00E221A218C9005218F4
:1076D00013703DE03F20C4329200115D03408143AE
:1076E0000B43135534E07F21C43292000B409901C3
:1076F000105B184B03400B43135329E07F21C43226
:1077000092000B40105914495B0301400B43135185
:107710001EE00F21C4329200A21890781B01014094
:107720000B43937014E00F20C4329200A218D1785A
:107730000340814306E00F21C4329200A218D078A2
:107740001B0101400B43D37002E0044A044B1A6052
:1077500010BDC0463FE0FFFFFF1FF0FF647D030048
:1077600004000020F0B585B003930723D2B2134084
:10777000013BDBB20F1C042B02D92B4C2B490C60B4
:107780002B49CE5C07211B028A43019308D1294B68
:10779000C55C2D09ED43EBB23D7800932C1C1FE036
:1077A000D443E4B20825244B019A1B199B5C5F006B
:1077B000FFB2DB0904D002200521FFF71FFF05E01F
:1077C0000120311CFFF71AFF002EF4D0013DEDB26D
:1077D0003B1C002DEBD10134E4B2002CE2D120E0BF
:1077E0000826154B019A1B199B5C5A00D2B20292D3
:1077F000DB0902D003201A2101E004200621013E0A
:10780000F6B2FFF7FBFE029B002EEED1009B013487
:10781000E4B25B1B1B19DBB2002BE1D1009BED1A1C
:107820003D70039805B0F0BD707D0300040000209A
:107830008380030019070000927503000022F0B551
:10784000051CFF248BB008AB0191DA71231CC433F3
:107850009B00EB189978604E0A09B05C0F2200017A
:10786000114001439970D9780807000F375C9143A4
:10787000174039430809305C0A4000010243DA70BE
:10788000013CE3D2E223DB00EE5CB308F31ADBB287
:107890000693524B1B68002B0BD081231B01E81869
:1078A000C4239B00E918E223DB00EA18019BFEF7E2
:1078B00033F800244823271C049303940294812264
:1078C0002B1912019B181B7805930723059A9A43DD
:1078D00007920BD008ABD91D281C231C059AFFF773
:1078E00041FF019B0230C4B2023B32E03C48029BA4
:1078F000C35C9C46231C6246C4339B00EB189978FA
:10790000DB7809091143374A515C039A805C1A07F6
:10791000120F1043334A1B09105C40183249C95DED
:107920000B43D15C01234118FF2801DC6B461B7F10
:10793000C9187839C9B209090020FFF75FFE049B16
:10794000013BDBB20493002B0AD1019B0134E4B26A
:10795000013BDBB20193019B002B3BD02B780493BE
:10796000013EF6B2002E0CD1E22200272B19D200E4
:107970009B181E780397B308F31ADBB2069302979D
:107980009DE7069B013BDBB20693002B02D1059BD2
:10799000002B16D1221CC4329200535D02999B0623
:1079A0009B0ECB18DBB20293535B0399DB045B0E97
:1079B000CB18DBB2039353591B035B0EFB18DFB2EA
:1079C0007DE708ABD91D281C231C059AFFF7CAFECA
:1079D000041CC9E70BB0F0BDDE7D03006C01002084
:1079E000BF800300E27A03003F7E0300064A125C78
:1079F000002A05D0054A135C4B43D811C0B201E000
:107A0000034A105C7047C046DF7F03008880030094
:107A1000927A0300064A125C002A05D0054A135CDC
:107A20004B43D811C0B201E0034A105C7047C04616
:107A3000DF7F0300827C030033800300F0B5037A0C
:107A40008BB07F2B00D14DE1031C071C0025041CCB
:107A50000933FF330837099300953E787F2E03D111
:107A6000002302930093DEE0012E02D1201C311C82
:107A700003E0022E05D1201CFF21009A2B1C1CF0D4
:107A80000EFF994ABB78301CD3185B780093FB78C3
:107A90000193A178FFF7AAFF3F2318400290E178F5
:107AA000301CFFF7B7FF7F23904A1840925D039088
:107AB0001A408F4B04929A5D0F231A4005928D4A0B
:107AC000925D1A4006928C4A925D1A408B4B079247
:107AD0009B5D08937B78EB18DBB29C462A1C3F2108
:107AE000C4329200135D8B4302990B431355105B14
:107AF000039B83499B01014019431153049B105977
:107B00005903804B18400B1C03430F201351059958
:107B10001E0C06400901A21831431B0E069E9170EF
:107B2000834307993343090118400843D0706946DD
:107B30002020812209186319097812019A181170FE
:107B4000E222D2009B180199009A01355218EDB239
:107B50001A706545C2D1099B04379F4200D07CE76B
:107B60007EE76949CD5C8E5C6849AE4264D18D5C2C
:107B7000CB5C0493039B597A009B5918CBB20093BA
:107B8000049B5B19DBB20693023B1B0647D4A82675
:107B9000009B5D1BEBB20593A82E55D1039B311CB6
:107BA0005F7A5A7B7F085208D3190193009B201CEF
:107BB0009A18D2B2DF1BFFF73DFDFFB2051C311C46
:107BC000201C3A1CFFF736FD2D1AEDB27F232A1C2C
:107BD0006DB29A43EB17E81858400199079212F0DA
:107BE000B1F8281CCBB20199089311F0C5FF00250C
:107BF000C3B2059F09933A1C311C201CFFF71AFDE4
:107C0000019A0599099B01375218C318FFB2D2B2E5
:107C1000DBB2BA422BD10136F6B2AF2EBCD1029BF9
:107C20000133DBB20293029B9B00E31803931A7AA1
:107C30001B7B7F2B95D133E03548AE4201D2C55C2A
:107C400096E78D5C835C94E7049B009A311C9A183C
:107C5000D2B2201CFFF7EEFC311C051C059A201C3B
:107C6000FFF7E8FC069B2D1AEDB20193AEE7089AE8
:107C7000AD18019AEDB295420CD3AD1A6A46127F47
:107C8000EDB252B2002A03DB002B03D0013300E037
:107C9000013BDBB2201C311C3A1CFFF709FDAAE7AF
:107CA000029B02339B00E3185978009B59186368C4
:107CB000C9B2002B03D0201CFFF7C0FD12E0E22266
:107CC000D200A0181A1CC4329200125D05789206E8
:107CD000D20EAA1A02708022013301305200934260
:107CE000F0D1E8E70BB0F0BDD37D0300E27B0300E9
:107CF0003F7F0300837D0300327C0300EF7D0300A0
:107D00003FE0FFFFFF1FF0FFB97C0300097D030088
:107D10008F7F03000D4B73B530CB161C012804D99F
:107D20004D682C1C022800D08C68086801A904F05A
:107D300033FD011C2C20019A0023FF30FBF782F851
:107D4000311C2A1C231C00F077FF76BD882E0020F2
:107D500070B5F8F7C7FA0B4C0026231CA0331E6041
:107D6000266301F089F9084D0121281CFCF7B2F9BE
:107D7000281C6E215E221BF0ADFD656025606664E7
:107D800070BDC046882E0020BC2E002070B5062491
:107D9000134EC3001C4373680022051C211C181DD0
:107DA000FCF77EFE021E18D1706C002807D004304C
:107DB000211CFCF775FE002801D040680EE000226F
:107DC0000848211CFCF76CFE021E06D106492A1C3D
:107DD000064809F0D9FAF8F71EFA506870BDC04697
:107DE000882E00205CF70200BF810300FCF902002E
:107DF0000A4B10B5041C18685B6898420AD006212B
:107E0000E300043019430022FCF74AFE002801D0A9
:107E1000406802E0201CFFF7B9FF10BD882E00204B
:107E200008B5074B586C002801D1064807E004301C
:107E300026210022FCF734FE0028F6D0406808BD59
:107E4000882E002080F402000A1C062108B5034B8E
:107E5000C000014318681BF03DFD08BD882E0020BE
:107E6000062108B5034BC000014318681BF03CFD18
:107E700008BDC046882E00200A1C062108B5034B09
:107E8000C000014358681BF025FD08BD882E002066
:107E9000062108B5034BC000014358681BF024FDC0
:107EA00008BDC046882E002038B5051C0C1C0628CD
:107EB00006D1081CFAF72EF800284CD028484DE0CF
:107EC0000123194217D04810042D06D0052D0FD0DC
:107ED000002D42D10028F1D03DE0C0221206904290
:107EE00004D18020C0051BF005FF37E0404200E0D0
:107EF000C043400013E0022813D11A4B0B40062B5D
:107F000008D08B070DD10B689A69174B9A4208D19C
:107F1000486802E0C8081AF0A8FD01234000184391
:107F20001CE0201CF9F7CCFD4369002B0DD10F4B51
:107F3000AD00201CED581BF04EFA0D49031C2A1C05
:107F40000C4809F021FAF8F766F9281C211C98471B
:107F5000002803D1EBE7084800E0081C38BDC04604
:107F600078CD0200070080FF79CD0000F0EC020020
:107F7000D881030000FD020034CD0200F8B5041CD6
:107F80001D1C0F1C161CF9F79BFD0369201C9C4649
:107F9000002B08D11BF01FFA0549021C054809F007
:107FA000F3F9F8F738F9391C321C2B1CE047F8BDFF
:107FB000F681030000FD0200F8B5061C0D1C171C1D
:107FC0001C1C00290BD01868F9F77AFD73689842D9
:107FD00005D0064906481FF092FFF8F71CF9B06873
:107FE000291C3A1C231CFFF7C9FFF8BD12820300AD
:107FF00000FD0200F8B5061C0F1C141C1D1C930785
:1080000014D11368174A934202D163682B6028E0A9
:10801000154A934207D1002802D0F9F751FD071CF9
:10802000636888C51DE0114A934201D12C6018E0B5
:108030005B681A1CF23A012A01D9F02BF6D1002E06
:108040000ED1201CF9F73CFD094B984208D10C20B9
:108050001BF0FEFA074B476003608460286000E075
:1080600050C5F8BDA8EC02006CEC02006CEB0200FD
:1080700084D8020000D80200F8B5002313605360D2
:10808000071C0C1C151CF9F71BFD061C102C05D138
:10809000836A002B02D00F4B88C519E0F369002BCF
:1080A00004D0381C211C2A1C984711E0B06B002812
:1080B0000ED00621E4001A1C04302143FCF7F0FC2A
:1080C000031E05D05A68381C311C2B1CFFF792FF89
:1080D000F8BDC0464CF7020070B5161C041C0D1C00
:1080E000FFF7CAFF3368002B15D10B4EA30707D14A
:1080F0000A4B22689A4203D1301C0949626805E0A4
:10810000201C1BF068F9021C301C06492B1C09F0CE
:108110003BF9F8F780F870BD34FB02006CEB02000D
:108120002A8203005182030073B5041C0D1C161C27
:10813000F9F7C6FCC369002B09D00422019600920E
:10814000201C291C6A469847009B002B0AD0201C43
:108150001BF041F90449021C2B1C044809F014F9D6
:10816000F8F759F873BDC0465182030034FB020092
:1081700013B5041CF9F7A4FC436A002B0BD1201C97
:108180001A216A46FFF778FF009B002B08D068464B
:10819000FDF716FF0EE0201C984700280AD1EEE7F5
:1081A000201C1BF018F90449021C044809F0ECF8E3
:1081B000F8F731F816BDC0467382030000FD0200D7
:1081C00037B5041CF9F77CFC856A201C002D01D012
:1081D000A84716E010216A46FFF74EFF009B002BD0
:1081E00005D0281C291C6A461CF0D4FB09E0201C81
:1081F0001BF0F1F80349021C034809F0C5F8F8F731
:108200000AF83EBD8F82030000FD020030B5051C58
:108210008FB0FBF72DFB281CF9F752FC846A281C51
:10822000002C01D0A04728E010216A46FFF724FF68
:10823000009B002B17D002A8F7F7D2FF011E07D131
:108240006A461CF0A7FB041CF7F7E0FF201C14E0B3
:10825000039B0B49186803F04DFC031C201C002BEA
:108260000BD1039807E0281C1BF0B5F80549021C48
:10827000054809F089F8F7F7CEFF0FB030BDC046CA
:10828000BCFA02008F82030000FD0200F0B585B049
:1082900002900E1C171C202802D1914214D1A1E19A
:1082A000029B1B2B01D01E2B10D1301C391CF9F75F
:1082B0009FFC002803D0029B1B2B05D192E1029B5F
:1082C000BA481B2B00D099E1B94897E1029B212BBA
:1082D0002AD1101C09F0A0F8002807D0301C391C46
:1082E0001FF017FE002800D07CE1EDE703243C409E
:1082F00000D042E1AF4B3A689A4200D03DE17B6842
:108300009C42E1D2A300FB189D68281C09F084F868
:10831000002800D130E1301C291C1FF0FAFD002894
:1083200000D05FE10134EAE70123194200D1EAE01D
:108330004D101A4200D1DEE0029B54101D2B00D9D3
:108340001BE1181C11F07EFB1E00200023002600FC
:1083500038003F00410043004E0056006B0074009F
:10836000A3001E0020002300260038003F0041002B
:1083700043004E0056006B007400BC00C0001901A1
:10838000C400C800254300E065402E1CA8E02C4036
:10839000261CA5E0002C02DA8748884902E11F2C40
:1083A0006FDC874B23419D426BDCC0231B062341BE
:1083B0009D4266DBA540E8E7002CEDDB1F2C00DDCD
:1083C0001F242541E1E72E198AE02E1B88E0281C96
:1083D000211C00F085FC002853D101206C4364006F
:1083E00020430BE1002C00D1DAE0281C211C1CF0FA
:1083F0001BFB1BE0002C00D1D2E0281C12F01AFC61
:10840000051C201C12F016FC011C281C11F050FF4A
:108410000323022598436B4B2843C018EEE0002C41
:1084200000D1BDE0281C211C1CF0EEFA061C57E010
:10843000002C02DB0395012617E0281C12F0FAFB42
:108440000323022698435F4B0643F61889E0E307AF
:108450000ED4012C44D003986410011C00F040FCA1
:1084600000280ED1039B5B430393002CEFD137E030
:10847000301C039900F034FC002802D1039B5E43BA
:10848000E7E7E917281C1BF026FC061C69E0002C16
:1084900000D185E00021022001F014FC211C061C03
:1084A000281C1CF0C1FA012740003843B060211C91
:1084B000281C1CF0A9FAB8403843F060301C9DE03D
:1084C000A54200DB00E78DE0A54200DCFCE689E088
:1084D000A54200DDF8E685E0A54200DAF4E681E099
:1084E00073001A1C724002D40120184386E0301C2D
:1084F0001BF000FC82E003231340022B03D1324B1C
:108500001340062B70D1029B1F2B2AD1381CF9F780
:10851000D7FA8369051C002B07D16B6A002B16D094
:10852000381CFFF725FE041C0BE00298391C321C96
:108530009847002862D1F0E7311CF9F759FB002871
:1085400050D1201CFFF762FE0028F5D1BCE6381C94
:108550001AF041FF1D49021C1D4808F015FFF7F7EE
:108560005AFE301CF9F7ACFA8369002B05D002984B
:10857000311C3A1C98473FE02F1C029B301C9A008C
:10858000144BD5581AF027FF041C381C1AF023FF8F
:10859000114900902A1C231C0D4808F0F5FEDEE767
:1085A0000E480F491FF0ABFCD9E7C04634CD02009E
:1085B00078CD0200BCDC020010F80200BD4A0300C6
:1085C000FFFFFF3F00008080070080FF73820300F1
:1085D00000FD0200A8EB0200AE8203006CFC02006A
:1085E0004D4A0300064809E0281C12F023FB3A1C00
:1085F000011C0298FCF788F90028BED005B0F0BD38
:1086000034CD0200F0B513688DB00693002803D175
:10861000131D0393041C03E0131C546808330393D5
:10862000FF220B1C13400193090A1140019A4B00D1
:1086300005939B18039A9B00D558D3185F68049143
:10864000381E09D00020BB0706D17F4B3A689A42FA
:1086500002D1381C1BF03BF9049BC618002D16D123
:10866000019B760001339B19980000931AF0F0FFEC
:10867000251C061C002C01D001250460019BA800CC
:108680009A003018039922F0B7FD019B30E0AB0748
:1086900031D12B686D4A934202D06D4A93422AD160
:1086A000281C09A90AAAF9F797FB099B019A01332B
:1086B0009B1876009B19980000931AF0C9FF251C9F
:1086C000061C002C01D001250460019BA8009A0023
:1086D0000399301822F090FD019B0A99E818099B34
:1086E00080009A00301822F087FD019B099A9B18A0
:1086F0005B19029338E0019B7600181D83199800DE
:1087000000931AF0A5FF0294061C002C02D001234E
:1087100004600293029B03999800019B30189A0011
:1087200022F06AFD019A029B9446281C634402933E
:10873000FFF71EFD029B07909C000798FFF766FD60
:10874000051E11D0029B009A934207D3301CD10022
:108750001AF094FF061C009B5B000093029B3551AE
:10876000013302930434E8E7029B9800049B30181D
:10877000DA00019B9900039B591822F03DFD029AF3
:10878000059B944663441C1C002F4ED00325381CC7
:108790003D4019D12C4B3A689A4215D11BF0ADF8E7
:1087A00041688D4241D08368EA009F58002F09D06C
:1087B000042F07D0A300F7508768F318BA1852683F
:1087C00002345A600135ECE7C5210AAAFFF784FCA0
:1087D00000200AAA011C1CF0DDF8FFF7C9FCA50067
:1087E00001900198FFF712FD071E1ED0009A631C2E
:1087F00093420BD353000093032B01D8042300931F
:10880000009B301C99001AF039FF061C09AA381C7D
:108810000221F9F703FB099B02341B687351099B82
:108820005A6873195A600835DBE7029B0698E21A0A
:10883000191C5208331CFFF7A1FB041C301C1AF052
:108840002EFF201C0DB0F0BD64CE0200BCDC020087
:108850009CC6020073B50C1C161C83071FD103684D
:10886000224A934207D0224A934218D1694601AA6C
:108870001AF05DFB03E0694601AA1CF07DFB009B3A
:10888000A34227D32AD80023019DA000A3422CD0C5
:108890009900421A043AAA5801337250F6E7FFF7DA
:1088A00067FC0023051C0093009B281CA3420CD2EC
:1088B000FFF7ACFC00280DD0009A0E49A31A5B18F4
:1088C0009B00013298510092EEE7FFF79FFC0028D1
:1088D0000BD003E008480949009A02E0221C064830
:1088E000074908F051FDF7F796FC73BDBCDC0200A8
:1088F0009CC60200FFFFFF3F10F80200D382030076
:10890000F6820300F7B5141C0A0AFF230E1C151C7F
:108910001E401D4083073CD107683E4B9F4203D059
:108920003D4B9F4235D104E0694601AA1CF024FB6F
:1089300009E0FF231143194201D1206068E0694634
:1089400001AA1AF0F4FA009BAA19934259D39A008B
:108950009446002001998200A84206D06746BF1ABB
:10896000043FCF590130A750F5E79B1BB500181AFB
:108970004919A4181AF0C3FA019B20605D1900235D
:1089800001360133B34243D09A0051426958A15095
:10899000F7E7FFF7EDFB0023071C0093009BB342B2
:1089A0000CD2381CFFF732FC00282AD0009AB31AE8
:1089B0005B199B00013218510092EFE70020011C67
:1089C0001AF09DFA061C381CFFF720FC011E03D08C
:1089D000301CF8F74FF9F6E7B168A94211D3AB00A4
:1089E000E3181E6088009C4206D0C21AF768A218DD
:1089F000D259043B1A60F6E7491B301C1AF09CFA66
:108A000006E00649009A064808F0BEFCF7F703FCAA
:108A1000F7BDC046BCDC02009CC60200D382030046
:108A200010F80200F0B587B01D1C061C0C1C01924A
:108A3000F9F746F82F4B984206D1301C211C019AB9
:108A40002B1CFCF7F9FF53E0876A2B4B002F07D054
:108A50009C4220D1301CB8472860002816D147E03E
:108A60009C4218D1301C102103AAFFF705FB039B81
:108A7000002B0DD1301CCD2103AAFFF72DFB0120C7
:108A80000021059403AA1BF085FF286001202FE038
:108A9000381C391CF6E7002CECD1019B201C002B64
:108AA00026D0181CF9F70CF8144903F023F8002815
:108AB0000FD0301CCC2103AAFFF7DEFA039B002B5A
:108AC00007D0201C211C03AA1BF064FF2860201C77
:108AD0000EE0301CCE2103AAFFF7CEFA039B002B39
:108AE00003D00120002101AACDE70220019B2B60C9
:108AF00007B0F0BD20D2020074E00200B4FD020015
:108B000010B5041C08F088FC002806D00021201CA9
:108B10000A1C0B1CFFF732FA0AE0201C1FF0F3F9C5
:108B2000031C201C002B03D1024803491FF0E7F966
:108B300010BDC04600FD02001E8303007FB5062362
:108B4000C0001843054B01900491052001A9029330
:108B500003930592FDF72AFC07B000BD74E0020004
:108B60000C23F0B58BB000AFFA18051C0C1CFFF7F6
:108B700083FA3B69002B06D02B49221C2B4808F0B6
:108B800003FCF7F748FBF86800284AD1281C1BF0C3
:108B90000FFA0028F0D00C23281CFA180D21FFF73B
:108BA0006BFA0823F868F91803F0F6FD3860201C0A
:108BB000BD6819F05FFF6A4601352B187B600E33E4
:108BC000DB08DB00D31A9D46BD6839682A1C68465D
:108BD00022F012FB6E462E23201C735519F04FFF16
:108BE0003860201C19F046FF01357519021C3968E0
:108BF000281C22F001FB79686846F7F7B5FB0623CD
:108C0000C00018430A4B0822BB61FB61094BBA182C
:108C10003B6201237B620B337861D1180520FDF79D
:108C2000C5FBBD460BB0F0BD48830300B8FB020096
:108C300074E0020034CD0200F0B5174C0F1C6168DF
:108C400095B003912168061C08A804916260236016
:108C5000F7F7C6FA051E06D0039B09986360049BCC
:108C60002360F7F7D8FA336805A8311C3A1C019342
:108C7000F8F78EFB2A1C2B1C019905A807F09AFA1D
:108C80001BF079FE051CF7F7C1FA281C039B6360F3
:108C9000049B236015B0F0BD882E002010B5041C85
:108CA000FDF7D0FF031E064803D006491FF027F941
:108CB00003E00549221C08F067FBF7F7ACFAC04651
:108CC00090F802005E83030087830300011C08B54F
:108CD00002481FF014F9F7F79EFAC046A8FC0200FC
:108CE00070B5061C0D1C002811DD002906DD154895
:108CF00010F042FF0124864213DC11E0C020311C39
:108D0000000610F039FF012485420ADB08E0002943
:108D100009DDC020000610F02FFF0124864200DB91
:108D20000024E4B20BE00024A04208D00548311C26
:108D300010F022FF0123854200DB231CDCB2201C43
:108D400070BDC046FFFFFF3FF0B5051C89B002AF04
:108D50000E1CBA603B60FAF78BFDAB687B61142395
:108D6000F8181CF03BFB14237860F8181CF036FB55
:108D7000032358437B68C0188300FB602C2B0AD860
:108D80006B46F8682A30C008C0001B1A9D460023B5
:108D900002ACFB6005E0F8681C301AF066FC041EAB
:108DA000EED0AA687B69201C9B1A63607B68321C2A
:108DB000A3613B68291C0093BB6801F07DFF184E3E
:108DC000201C7368002163616B68736008F098FB76
:108DD0006369B8607360002802D0022803D00BE0FA
:108DE000E3681D6809E07B6805339B00E3185D6854
:108DF000FB68002B0CD005E00A4DFB68002B0AD065
:108E00000023BB60201C1AF04AFCBB68002B02D078
:108E1000281CF7F700FA281CBD4607B0F0BDC04675
:108E2000882E002074E002000122031C30B513409C
:108E300085B04510002B4ED128491D1C88424AD0D0
:108E4000274B984247D0274B151C984243D0032309
:108E5000041C034006D1244A0168914202D11AF051
:108E600086FF0EE0214A251C2240062A05D0002B51
:108E700009D11F4B22689A4205D1201C01A903F099
:108E80008BFC051C27E0201CF8F71AFE194B9842B2
:108E900007D1FF23DB05E0180323984311F0AAFE56
:108EA000EFE7154B984205D1201C694601AA1CF03A
:108EB00063F80FE0114B984205D1201C694601AAC6
:108EC0001AF035F806E0201C01A902221AF099FADE
:108ED000002800D0019D281C05B030BD74E00200C0
:108EE00078CD020034CD020030D30200070080FFAD
:108EF00080CA02000CD00200BCDC02009CC602004A
:108F0000F0B585B0051C0E1C029203931F4F00287C
:108F100004D043680193002903D125E0002903D040
:108F20000190019B581C01E0081C01910430800055
:108F30001AF08EFB164B041C03607B684360029B97
:108F40008360039BC360002D07D0291C201C019B5C
:108F500008319A00103022F04FF9002E13D0019BF7
:108F600004339B001E510EE0019B181D80001AF077
:108F70006FFB074B041C03607B684360029B8360AC
:108F8000039BC360E1E7201C05B0F0BD882E0020E4
:108F9000C0D8020070B5061C10200D1C141C1AF05D
:108FA00057FB034B466085600360C46070BDC046DC
:108FB00048D8020008B50B1C02495A681DF0F9FD9B
:108FC00008BDC046B583030070B5151C12680C1CA3
:108FD0008368002A09D1CC000621181D2143FBF724
:108FE0005FFD00281ED043681BE01A79181C920709
:108FF0000BD50D4A934215D10C4E736C002B03D147
:1090000001201AF02EFC7064706C06216A68E4007E
:109010002143002A02D11AF067FC01E01AF05AFC41
:1090200000232B6070BDC04658F70200882E002038
:10903000F8B50625C3001D43071C291C0C48012256
:10904000FBF72EFD061C4068002810D10C301AF0EA
:10905000FFFA084B041C0360476001201AF001FC72
:109060006E21A0602A1C1AF035FC201C7460F8BD2B
:10907000AC2E002028D9020008B502480321FBF7D6
:1090800029F808BDA82E002010B50C1C0621C00030
:10909000014301220248FBF703FD446010BDC046B6
:1090A000AC2E002073B50625C3001D43061C291CE9
:1090B0000F480022FBF7F4FC041E17D1221C0D48B8
:1090C000291CFBF7EDFC041E11D0606808216A46DC
:1090D000FEF7D2FF009B002B08D000206A46011C3F
:1090E0001BF058FC301C6168FFF7CEFF606876BD4E
:1090F000AC2E002064D9020010B588B0694601AAE0
:10910000041C08F0E7F9009B022B2AD904A832219D
:1091100002AAF7F7F3F9019B13495A6802A81DF058
:1091200048FD201CF8F7CCFC104BC2689A4210D1C5
:10913000236802A85A680E491DF03BFDE368002B26
:1091400007D05A68002A04D002A899680022F8F7CC
:10915000D1FC04A819F05DFD0AF0FEFE04A819F088
:1091600008FD08B010BDC046C383030071120100A2
:10917000CC83030070B5051C90B0002803D11F48B4
:1091800018F0E8FC38E004A8F7F72AF8041E19D113
:109190002E6801A8291C0122F8F7FAF8221C231CCA
:1091A000311C01A807F006F8041C03200AF058FE41
:1091B000201C1BF0E0FB012040420AF051FEF7F7B3
:1091C00025F819E0012040420AF04AFE05990C48B2
:1091D000F8F7B4FC0598F8F773FC0A49041C02F090
:1091E00089FC002808D1201C074902F083FC0028D4
:1091F00002D10598FFF780FF10B070BDD083030047
:1092000010F0020030F90200C8F7020037B5294B10
:1092100001AA1A60FAF706FBE120C000FAF716FB74
:10922000254B2648C118FDF7D1FCFEF791FD0AF049
:10923000F5FDF9F747F80BF0D1FE0023204CA367AA
:10924000204B1A781D1C012A1FD1F8239B021A7883
:109250004D2A07D15A78502A04D159881A481BF050
:109260008FFC12E0002219480721131CFBF726F996
:10927000002802D01BF08FFC07E0A6201449012231
:109280004000FFF75BFC1BF09EFB2B78002B0ED100
:10929000FEF7B6F80028F8D00E481FF00EFB0023AA
:1092A0000D4A5360136063671BF061FB37BDFEF727
:1092B00003F9EFE74C270020DC25000070010020B7
:1092C000882E00200601002004E00300FD83030037
:1092D000F8DC020005840300F42E002007B5FDF73A
:1092E00001FD054B01A81968091A8908FDF7B4FCAE
:1092F000FDF70CFD07BDC0464C2700209F23002131
:10930000024A5B000248D1527047C046882E0020B6
:1093100074E002009F230121024A5B000248D152FF
:109320007047C046882E002074E002009F23044A44
:109330005B00D35A0348002B00D103487047C04656
:10934000882E002034CD020078CD020008B5FFF74A
:10935000C5FF014808BDC04674E002000023820733
:1093600008D10268044901338A4203D0034BD31A5F
:109370005A425341181C704764DC02002CDB020087
:1093800070B5061C0D1C0124B44206D2A300286847
:10939000E9581BF02AFC0134F6E7014870BDC046CD
:1093A00074E0020010B5041C10201AF051F9044BAF
:1093B00084600360034B43600023C36010BDC0465C
:1093C0003CE20200C94C020038B5051C10201AF01E
:1093D0003FF9041C074B696808C01AF09DFBAB6895
:1093E000E968A3606B68E0689A0021F005FF201C23
:1093F00038BDC04664DC02000023F7B5041C0D1C18
:1094000001938B0705D10B68224FDF1B7A427A410B
:109410000192AB68002B09D1019B002B03D0201CCB
:109420001D491DF0FAFA201C1C492FE0019B002B5E
:1094300003D0201C1A491DF0F0FA201C19491DF018
:10944000ECFA002601236A68964216D2B200171C75
:10945000EA68D259002A0ED0042A0CD0002B03D17E
:10946000201C11491DF0D9FAEB68201CD9590122A2
:10947000F8F740FB00230136E5E7201C0B491DF0FF
:10948000CCFA019B002B03D0201C09491DF0C5FA22
:10949000F7BDC0462CDB0200138403001A840300CE
:1094A00020840300A04903008B400300DD44030037
:1094B0001B43030008B5FFF751FF002805D10349FE
:1094C000034807F061FFF6F7A6FE08BD2B840300F2
:1094D00000FD020038B50D1C041CFFF7EBFF281C33
:1094E000FEF746FE051C281CFEF790FE011E07D065
:1094F000201D00221AF01AFB0028F4D0014800E0D9
:10950000014838BD78CD020034CD020008B583078C
:109510000BD10368084A93420DD0084A934204D104
:10952000074908481EF0EBFC03E00748074907F02D
:109530002BFFF6F770FE08BD64DC02002CDB020096
:109540004184030034FB020000FD02002B84030071
:1095500038B50D1C041CFFF7D9FF281CFEF708FEC8
:10956000051C281CFEF752FE011E04D0201D0322FC
:109570001AF0DCFAF5E7014838BDC04674E0020095
:1095800038B50D1C041CFFF7C1FF291C201D01224A
:109590001AF0CCFA004838BD74E0020038B50D1C52
:1095A000041CFFF7B3FF291C201D02221AF0BEFA8B
:1095B000004838BD74E0020010B5041CFFF7A6FF98
:1095C000201D1AF03CFB014810BDC04674E00200AB
:1095D00008B501221BF042FB004808BD74E0020000
:1095E00038B5041C0D1CFFF791FF201D291C022219
:1095F0001AF09CFA002804D103481EF073FCF6F719
:109600000AFE024838BDC046F0FD020074E00200C8
:1096100010B5041CFFF77AFF201D1AF0F2FA00289B
:1096200005D1034903481EF06AFCF6F7F4FD10BDAE
:1096300063840300F0FD0200F8B501280AD0002879
:1096400002D002280AD029E08B681548002B26D1C9
:10965000144824E08B685B00184320E003250020B9
:109660000D4085421BD10C680F4B281C9C4216D123
:109670000E1C4F68BD420DD0F268AB00995800290E
:1096800006D0042904D00220FEF70EFC4010241856
:109690000135EFE701206400204300E00020F8BD21
:1096A00034CD020078CD02002CDB0200F7B5071C98
:1096B0001020019119F0CCFF051C0A4B061C08C5AF
:1096C000281C391C1AF028FA0024BC4208D0019A40
:1096D000A300D158281C01221AF028FA0134F4E71B
:1096E000301CFEBD64DC0200F7B5051C0E1C171E05
:1096F00005D0FFF70BFF1A4CB54209D12EE0FFF75A
:10970000D9FEB54204D1281C1BF080FA041C25E0C8
:109710000020011CFFF7CAFF041C301CFEF728FDC7
:1097200001900198FEF772FD061E0BD0281D311C1A
:1097300000221AF0FBF90028F3D0201C311CFFF79F
:109740001FFFEEE7002F09D0E86819F0A8FF636853
:109750006B60A368AB60E368014CEB60201CFEBD4E
:1097600074E00200F0B585B0041C039002910192F0
:109770000027FFF7F3FDB84207D13A1C204801212A
:1097800003AB1BF0C6FA041C0137029D0026281CFF
:10979000FFF7E4FDB04207D1321C1948012102ABAA
:1097A0001BF0B7FA051C0136019B002B05D0A368FE
:1097B000AA68934201D1002310E0201CFFF7F2FDBC
:1097C000019001981BF080FA011E06D0281D00228E
:1097D0001AF0ACF90028F4D1EDE701230193002F32
:1097E00002D0201CFFF7E8FE002E02D0281CFFF755
:1097F000E3FE019B0348002B00D1034805B0F0BDF8
:1098000064DC020034CD020078CD020037B500914F
:1098100001921F2850D8151C0C1C10F0FFF81015D1
:109820001A4D4D4D1F4D4D4D4D4D4D10151A4D4D71
:109830004D1F4D4D4D4D4D24272C393E4D43081C99
:10984000111C1BF0EDF938E0081C111C1BF0F6F997
:1098500033E0081C111C1BF051FA2EE0694602206F
:109860001BF02DFA29E0081C111C00E0101C01223D
:10987000FFF778FF21E0081CFFF71CFE281CFFF70C
:109880006DFD031E0D4818D0A368AA68934214D139
:10989000201C291C1BF06EFA0FE0081C111C1BF089
:1098A00061FA0AE0081D111C00221AF03FF9031E9C
:1098B000034802D1014800E000203EBD78CD0200FF
:1098C00034CD02003E2803D0402809D03C280ED1D8
:1098D0004239C9B22F290AD8084B585C012308E045
:1098E000712904D8064B585C064B5B5601E00123F6
:1098F0000020002A00D013607047C0465D85030039
:1099000079840300EB84030008B5512836D00FD8C2
:10991000492827D006D842281CD048281FD0002824
:109920004BD117E04F2840D042D84C281AD044E001
:10993000682811D007D864282AD0662825D0622844
:109940003BD188563AE06C2832D071280FD0692874
:1099500033D12DE0885C31E05200505E2EE05200A1
:10996000505A2BE0920050581AF0DFF929E0D2004B
:109970008A18106851681AF0AEF922E0D2008A18ED
:10998000106851681AF0C2F91BE09200505805E0C7
:10999000D2008A181068516813F01CF8032398430A
:1099A000013B1843074BC0180BE09200505808E0E9
:1099B000920050581AF09EF903E000200123400065
:1099C000184308BD00008080F7B5161C156801AA71
:1099D000041C0F1CFFF776FF402C05D1019B043CB3
:1099E0005A1EAD185B421D402B183360221C5A26AC
:1099F0003E3ABE42B6415442624176422B1CD2B23C
:109A0000311C1BF0BCF9041C0D1C4F2F3ED0532FF2
:109A100008D1201C21F012FD0022011C201C02F0A4
:109A200003FA33E0662F06D1032302209C43184B30
:109A30000443E0182AE0642F09D1201C12F0CAFF69
:109A4000032302249843124B2043C0181EE0002E2B
:109A500010D080220023D20512196B41201C002B4C
:109A600004D1002A02DB1AF045F90FE0291C1AF094
:109A700032F90BE0201C002905D1064B9C4202D88C
:109A80001AF053F902E0291C1AF040F9FEBDC04655
:109A900000008080FFFFFF3FF0B587B0141C03AAD1
:109AA000071C0E1C01931D68FFF70CFF0090402F50
:109AB00005D1039B043F5A1EAD185B421D40009B1D
:109AC000019AEB1813603E3F642E09D0662E02D037
:109AD0004F2E22D140E0201CF8F740F9041C3BE057
:109AE000201CF8F73BF97C427C4112F01FFFE4B2E6
:109AF00004900591A30006AAD318083B211C2A1C38
:109B00001B6804201BF064F901235C40A40006AB31
:109B10001C19083C043524681EE0A3070CD1154B22
:109B200022689A4208D179427941201CC9B2009A30
:109B30002B1C1AF0B7F81AE0201CF8F7ABF8009BC2
:109B4000041C042B08D95A2E06D9002804DA281D33
:109B50001A1FFF2121F06DFB0098042800D9042072
:109B6000794279412A1CC9B2231C1BF031F907B094
:109B7000F0BDC04630D3020070B5061C0D1C141C8D
:109B8000181C642E0CD0662E04D04F2E11D19400D8
:109B9000635127E094000D19F8F7E0F8286021E000
:109BA000D4000D19F8F7DAF812F0C0FE28606960E9
:109BB00018E020233343712B0CD10321014009D13C
:109BC000094B02689A4205D1E4002B1908221AF0C9
:109BD00069F807E0F8F75EF8291C031C221C301C0A
:109BE0001BF009F970BDC04630D3020070B50E1CE1
:109BF0001049041C00251CF010FF73689D420ED212
:109C0000002D03D0201C0C491CF007FFAB00F318FB
:109C1000201C99680122F7F76DFF0135EDE7012B54
:109C200003D1201C05491CF0F8FE201C04491CF03F
:109C3000F4FE70BD638703008B4003008D85030035
:109C40001B43030070B501281ED0002805D0022850
:109C50001ED10D1C0F4C002605E04B680E48002B52
:109C600017D10E4815E06B689E4209D2B300EB187D
:109C700002209968FEF718F9401024180136F2E71F
:109C800001206400204304E04B685B00184300E0BF
:109C9000002070BDF8DC020034CD020078CD020057
:109CA00010B5041C102019F0D3FC044B8460036031
:109CB000034B43600023C36010BDC0463CE202007A
:109CC000374F020070B50E4A002816D0841CA4003D
:109CD000061C201C0D1C19F0BBFC0A4A46600260E1
:109CE000021C002D09D00022083CA24204D0AB582F
:109CF00081188B600432F8E7021C101C70BDC0464E
:109D0000F8DC0200BCDC02007FB5041C0E1C151C34
:109D1000072829D002D8052805D062E0031C193B8A
:109D2000042B3ED95DE0101CF7F7CAFE2F4901F065
:109D3000E1FE011E56D06B68726800219818FFF78B
:109D4000C1FF311C7368041C9A000831083021F0EF
:109D500053FA291C70686B680230800020189A0042
:109D6000083121F049FA18E003A9101CF7F7D0FFD9
:109D70000021884236D00398884210DD736858432A
:109D8000FFF7A0FF041C231C301C0833009308308D
:109D900004217268039B1BF041FB211C22E0144943
:109DA00020E0081CF7F78CFE281CF7F789FE114B02
:109DB000426A9A4206D0281C0C491BF0B2FC0E499C
:109DC000051E0FD0311C2B1C6A6808310092083325
:109DD000201C726801F07AFA0849002802D106496D
:109DE00000E00021081C04B070BDC046BCDC0200CD
:109DF000F8DC0200A19C000078CD020034CD020006
:109E000030B585B0042A2DD103240A1C051C0C4052
:109E10001FD1164B096899421BD1111C406801AA39
:109E200001F01AFA002802D11148FEF74FFF019BFA
:109E30000298211CC01AFFF745FF041C6368083014
:109E40009A00019B991C8900691821F0D5F9201C02
:109E500009E0286869680023F7F7F4FF0230800002
:109E6000405900E0002005B030BDC04600E20200CD
:109E70009B400300F0B51D1C002385B0081C009317
:109E80000C1C111C1A1C0133F6F7AEFB1748002CF2
:109E90002AD02868830703D1154B02689A4223D041
:109EA000102019F0D5FB041C2868FEF761F9002585
:109EB000042603900398FEF7A9F9071E0BD0B542BC
:109EC00005D3F100201C19F0D9FB041C7600AB006F
:109ED0001F510135EEE7281C211CFFF7F3FE051C7E
:109EE000201C19F0DCFB281C05B0F0BDF8DC0200DA
:109EF000BCDC020010B5041C081C1BF05FF8031C3E
:109F0000002C04D0012C07D14000204305E0034879
:109F1000002B02DC024800E0002010BD34CD02001E
:109F200078CD020070B54568C6688468102019F0C5
:109F30008FFB034B4560C6600360846070BDC04604
:109F400058DD020038B50D1C041C6A680749AB686F
:109F50001CF02FFEEA68201C012A03D104491CF0E2
:109F60005CFD02E003491CF024FE38BD8F85030030
:109F70001B4303009C85030030B5041C87B0002000
:109F8000042A30D1201C0D1C1BF018F8011CAB0753
:109F90001DD1164B2A689A4219D1291C03AA01F037
:109FA0005BF9102019F054FB114B039A0360E3682E
:109FB00061685A4352184260049A111C5943019235
:109FC00062688A188260059A5343C3600BE00023DD
:109FD00020682A1CF7F736FFE36858436368C01807
:109FE00001234000184307B030BDC04600E2020024
:109FF0001CDD020008B5F7F7B1FE12F097FC002255
:10A00000074B11F00DFE074B074A11F0CBF912F088
:10A01000E1FC03239843013B1843044BC01808BDDF
:10A0200000806640FB210940182D445400008080C8
:10A0300008B5F7F793FE12F079FC084A084B11F0C7
:10A04000EFFD084B002211F0ADF912F0C3FC032321
:10A050009843013B1843044BC01808BD182D4454C5
:10A06000FB210940008066400000808008B5F7F7BA
:10A0700075FE034B184002231843024BC01808BD5D
:10A08000FCFFFF7F0000808008B5F7F767FE13F044
:10A09000F9F8034B002800D0024B181C08BDC0463D
:10A0A00034CD020078CD020008B5F7F757FE13F063
:10A0B000E9F8034B012800D0024B181C08BDC0462C
:10A0C00034CD020078CD020008B5F7F747FE13F053
:10A0D000D9F8034B012800D8024B181C08BDC04614
:10A0E00034CD020078CD02001FB500230193F7F7AD
:10A0F00035FE01A913F036F90322031C0220934315
:10A10000064903435B180293019B934303435B1887
:10A1100002A90393FFF7D6FD05B000BD00008080C3
:10A1200038B50D1CF7F71AFE041C281CF7F716FEAD
:10A1300010F060FD011C201C13F0F0F8032398437D
:10A14000013B1843014BC01838BDC0460000808059
:10A150001FB500230193F7F701FE01A913F0B2F830
:10A16000032302249843074B2043C0180290019810
:10A1700019F0C0FD02A90390201CFFF7A3FD04B055
:10A1800010BDC0460000808038B50D1CF7F7E6FD15
:10A19000041C281CF7F7E2FD011C201C13F06EFBC9
:10A1A00003239843013B1843014BC01838BDC046F8
:10A1B0000000808038B50D1CF7F7D0FD041C281C6A
:10A1C000F7F7CCFDC00FC307600040081843032316
:10A1D0009843013B1843014BC01838BD00008080F4
:10A1E00038B50D1CF7F7BAFD041C281CF7F7B6FDAF
:10A1F000011C201C13F0CAFA03239843013B1843A7
:10A20000014BC01838BDC0460000808008B5F7F784
:10A21000A5FD12F03DFE03239843013B1843014B7B
:10A22000C01808BD0000808008B5F7F797FD13F04F
:10A230005BFA03239843013B1843014BC01808BD48
:10A240000000808008B5F7F789FD13F0FBF90323C0
:10A250009843013B1843014BC01808BD00008080A3
:10A2600008B5F7F77BFD13F069F903239843013B29
:10A270001843014BC01808BD0000808008B5F7F7EF
:10A280006DFD13F019F903239843013B1843014B6B
:10A29000C01808BD0000808008B5F7F75FFD12F018
:10A2A0005FFF03239843013B1843014BC01808BDCF
:10A2B0000000808008B50349034807F065F8F5F70A
:10A2C000AAFFC046A285030010F8020070B5061C64
:10A2D00008680D1CF7F742FD0021041C0FF098FDE3
:10A2E000002801D0FFF7E6FF201C13F029FB041C17
:10A2F000012E06D1032302209C430D4B0443E0189A
:10A3000015E06868F7F72AFD0021051C0FF080FDB5
:10A310000028E7D1281C13F013FB011C201C0FF0B0
:10A32000C7FF032302249843014B2043C01870BD8C
:10A330000000808008B5F7F711FD13F02BFA032316
:10A340009843013B1843014BC01808BD00008080B2
:10A3500038B50D1CF7F702FD041C281CF7F7FEFCAE
:10A36000011C201C13F06AFB03239843013B184394
:10A37000014BC01838BDC0460000808010B5F7F70B
:10A38000EDFC0021041C0FF039FD002801D0FFF77F
:10A3900091FF201C13F0FAFC03239843013B184360
:10A3A000014BC01810BDC04600008080F0B5071CEE
:10A3B000443787B0041C381C0191002618F0E4FBD8
:10A3C0002069431C18D00A2804D1201C1AF036FF3B
:10A3D0000126F5E7FBF716FC002823D12369232B80
:10A3E00008D1201C1AF02AFF23695A1CE8D00A2B36
:10A3F000F7D1E5E75C2B07D0E369256A019AA363EF
:10A40000E563002A12D117E0201C1AF017FF236918
:10A410000A2B07D0E369A363236AE3630423403470
:10A420002370F9E2201C1AF009FFC9E7012B03D1C0
:10A430000622012D00D07AE1636A002B04DA221C87
:10A440000721403211702FE0002B06D0221C06217C
:10A4500040321170013B6362B8E1002E39D0A36A2B
:10A46000002B36D1211C052240310A706362226B19
:10A47000BA4B606BD3185B001B5A013D9D4200D163
:10A48000A4E113D9E16A8A4207D30831490019F0DF
:10A49000F5F8E36A60630833E362236B5A1C2263B6
:10A4A000626B5B009D52636A0133D4E7236BAB4A56
:10A4B0009A185200125A954205D2013B2363636AEF
:10A4C000013B6362F2E7954200D17FE102230B700A
:10A4D0007CE12069431C1BD1A04A236B616B9B1854
:10A4E0005B005A5A231C4033002A00D121E1052287
:10A4F0001A7000236362994A236B9A185200525AC9
:10A50000002A00D162E1013B2363636A013BF1E76A
:10A51000272800D17EE1222800D17BE1752804D0D4
:10A520001023021C9A43622A04D16369272B11D09D
:10A53000222B0FD0722803D16369622B2ED104E045
:10A5400062282BD16369722B28D1A369272B01D0F4
:10A55000222B23D1752803D1201C1AF06FFE59E15C
:10A5600062280ED1201C1AF069FE00230193236992
:10A57000722B00D048E1201C1AF060FE01230193E9
:10A5800042E100230193722800D045E1201C1AF01B
:10A5900055FE2369622BEED001233CE1FBF73EFB25
:10A5A0002169002803D15F2901D07F291ED9231CEE
:10A5B000082240331A70C9B2381C18F03DFB201C29
:10A5C0001AF03CFE2069431C00D1FFE0FBF726FB9C
:10A5D000002801D0217CEFE720695F28FAD07F288E
:10A5E000F8D8FBF727FB0028F4D1EFE0081CFBF7B5
:10A5F00021FB002808D0251C216940352E290CD1CB
:10A600000A2300262B7035E023692E2B52D1606976
:10A61000FBF710FB0028EED14CE0092300262B703D
:10A62000302927D16269173313430122161C622B8C
:10A6300020D06F2B1ED0783B5E425E411AE020692D
:10A64000431C00D1C2E0002E1BD12023021C9A43E0
:10A65000131E452B15D13B3B2B706521381CF5F79C
:10A6600059FF201C1AF0EAFD216902220B1C2B3B2A
:10A670009343E4D1381CF5F74DFF201C1AF0DEFDA2
:10A68000DDE7FBF7CBFA002803D021692E2909D199
:10A690000DE02069FBF7CEFA0028F6D123692E2BB6
:10A6A000F3D093E020230A1C9A434A2AE2D10A23DA
:10A6B0002B70DFE721692E291FD1261C381CF5F7E6
:10A6C00029FF201C1AF0BAFD236940362E2B00D03A
:10A6D00093E165692E2D00D08FE1381C291CF5F718
:10A6E00019FF291C381CF5F715FF201C1AF0A6FDD0
:10A6F000201C1AF0A3FD0D2380E10026184D2F78B1
:10A70000002F0ED0B9420CD03B1CFD20633B6A1CCD
:10A71000034202D0452F01D1013E151C01360135FF
:10A72000EDE7201C1AF08AFD002F04D10122231C22
:10A7300040331A704AE0371C01352B78652B11D154
:10A740006B78226901379A4205D1201C01351AF035
:10A7500075FD3E1C06E00235EFE7C046FFFFFF7FB8
:10A76000DF8503002B78452B0AD16B7822699A424A
:10A7700004D1201C1AF062FD3E1C0EE001220EE006
:10A78000632B0AD16B78226901379A4205D1201CCC
:10A790001AF054FD02353E1CCFE7A04B9A5D231CF6
:10A7A00040331A70231C40331B780422191C914338
:10A7B000422901D0442B02D1A36A013305E0432989
:10A7C00001D0452B02D1A36A013BA362211C403179
:10A7D0000B78082B00D01FE10023E56CA66C904A93
:10A7E0009800805800228418B24205D0875CAC5C87
:10A7F000A74205D10132F6E72278002A00D1FFE016
:10A800000133222BEBD107E1231C0C2240331A70B9
:10A81000012306E000230193231C0B2240331A700E
:10A8200000232722049323690392222B00D1039350
:10A83000201C1AF003FD0123039A05932369934218
:10A840000AD16369934207D1201C1AF0F7FC201C3F
:10A850001AF0F4FC032305930026236902930133C5
:10A8600000D1B0E0059B012B03D1029B0A2B00D144
:10A87000A9E0059B9E4200D3ACE0029B039A934261
:10A8800005D1381C111C0136F5F744FE97E0029BF8
:10A890005C2B00D08DE0201C1AF0D0FC019B2569B8
:10A8A000002B02D0381C02996BE0622D00D1A2E08F
:10A8B00012D84E2D4BD007D8222D66D0272D64D02C
:10A8C00000260A2D7BD045E05C2D5ED0612D00D1A5
:10A8D0008FE0552D3ED11BE0742D11D007D86E2D81
:10A8E00010D0722D12D0662D34D10C2550E0762D6B
:10A8F0000AD00DD30226782D16D06B1C5ED029E02D
:10A90000092545E00A2543E00B2541E00D253FE000
:10A91000049B002B04D0381C5C21F5F7FBFD37E0CD
:10A920000426752D00D0B6190025013E2BD3201C1E
:10A930001AF084FC2369181C0293FBF787F900289E
:10A940004DD0029819F0A0FA2D014519EDE73548D0
:10A95000FEF7BCF92B1C303B072B10D81D1C03261F
:10A960006369303B072B0ED8013E002E0BD0201C14
:10A970001AF064FC2369ED00303B5D19F0E7381CE8
:10A980005C21F5F7C7FD6B1C18D0274B9D420BD8F7
:10A99000049B002B04D1381C291CF5F7BBFD0DE0EE
:10A9A000FF2D01D8E9B206E0231C012240331A70C2
:10A9B00004E06B46197A381C18F03EF90026201C7A
:10A9C0001AF03CFC49E7059B9E4203D2231C03225C
:10A9D00040331A70381C311C18F076F9F6E6231C47
:10A9E000012240331A70049B051C002BDAD11D1C78
:10A9F000D1E70725CCE70825CAE74A233370E5E607
:10AA0000212B07D1094BA0331A681023002A02D04A
:10AA1000023B00E00E330B7007B0F0BDB4850300BD
:10AA2000ECDF020021860300FFFF1000882E0020CB
:10AA3000054B002805D00023022802D101224B003B
:10AA40001343181C7047C04678CD020008B5024970
:10AA50001BF0E3FF08BDC0465C29030073B501A9E4
:10AA600001F09AFE019B061C502B02D91848194987
:10AA70001CE08020400018F0EBFD174C051C231C47
:10AA8000883318600023019A934203D0F15CE954A3
:10AA90000133F9E75B22281CEA5403F01DFA2B1C52
:10AAA000002807D1883420600C4909481DF027FA96
:10AAB000F5F7B1FB5A1B0133591E09789B29F9D1CF
:10AAC000291C07481AF0B5FE00238834236076BDA0
:10AAD00010F80200A0860300882E0020AF86030035
:10AAE00080CA0200F0B58BB0061C10A80778364863
:10AAF00005AD00900195081C111C1A1C0523F5F7E3
:10AB0000A5FD9120000118F0A3FD304B304A1860DC
:10AB1000059B476043702B7904A903702B7A041CB2
:10AB200083702B7BC3702B7C301C136001F034FED0
:10AB30000025284B071C0C201D6018F089FD264BB2
:10AB4000061C036008F0F2F9B06008F0EFF9234B3F
:10AB500023491860234B70601D70234B301C1D70FF
:10AB6000224B0A1C1D602B1C08F0EEF8201C391C1F
:10AB7000049A18F03BFD201CF8F7F0FD1C4B071E53
:10AB80000393134E194D164C0AD108F001F80F4BE0
:10AB900018481F60184B19681DF0B1F9F5F73BFB19
:10ABA0000122164B1A7008F0BBF90028FBD1039B59
:10ABB000883318603368002B03D01148296816F0D9
:10ABC000F7FE201C0BB0F0BDC0E00200102F0020EB
:10ABD0006C01002058270020FCE0020054270020D0
:10ABE00074E00200FB2D0020FC2D00205C270020DB
:10ABF000882E002010F8020004000020FA2D00200A
:10AC0000C686030000220D4910B50B78DBB29342D3
:10AC100012D10B4A1478002C02D001240C7013704E
:10AC2000084B1B78002B06D0074A136820331360AB
:10AC3000064B1A6800E08268101C10BDFC2D002035
:10AC4000FA2D0020FB2D002058270020542700203B
:10AC5000D2235B005843134A30B51368000C83427B
:10AC600006D9114C2368013323601368203B13601D
:10AC70001F23051C14689D43A54203D901240B4BD7
:10AC80001C70F5E703401A1D202A00D92022084C29
:10AC90002468934203D2E51829710133F9E7054B83
:10ACA000186030BD582700205C270020FB2D0020B5
:10ACB0005427002050270020F0B5151C42688FB0A3
:10ACC000944606938369CA6802938B6882606344E2
:10ACD0005A1C42601A78041C01929A1C4260DA1CC9
:10ACE0005F7842609A78059104921A1D4260DB7881
:10ACF00000210393031C1833C360029B03339B00A2
:10AD0000C31804330361029B1C309B001A1C079379
:10AD100020F08FFA149AAB00D3180B93029B049A7D
:10AD2000DB1B08939B1A05339B00E3181E1D0122B1
:10AD30000199BD420FD9114203D1834883493A1C7E
:10AD40002CE01E1C149BB900E81B5918FEF7BAFF33
:10AD50003D1C706027E0114202D01E1C7C4B7360CA
:10AD6000069B002B1FD1019B1B071CD4039BFA1AC7
:10AD7000954211D3D91B8B009C462A1CBA4212D291
:10AD8000614693005818059901320818079900691F
:10AD9000CB1AE3189861F1E76B486C492B1C06F05D
:10ADA000F3FAF5F738FA0022AA4208D01499079866
:10ADB0009300C958C31AE31899610132F4E7069B5E
:10ADC000002B03D1019B1B0700D494E00223019ABE
:10ADD0001A4000230A920793002A04D0069818F01C
:10ADE00040FD079030600026A3680B9D0993069BE9
:10ADF0009E4228D000222968049BDB199A4215D272
:10AE000009989300C35899420ED1029B013B9B1AAB
:10AE10009B00E318DA69002A03D0CA084A484D4962
:10AE200066E06A68DA610BE00132E5E70A9B002B15
:10AE300002D14548484963E007986A6818F04AFD1E
:10AE400001360835D3E7089B03989A1D039B9200AF
:10AE5000D91CA218059B043289005918131C00281C
:10AE600008D01D68002D01D10D681D600138043324
:10AE70000439F4E7039B9B00D318029A0632920030
:10AE8000A2180432934209D20433191F0968002919
:10AE9000F3D1D21A92102C48304929E0089B099A24
:10AEA0009D00BB00D31865190693002610E0039B94
:10AEB000059904339B0058580699B3000430C958CB
:10AEC000F9F7EEFD00280CD04368AB610136043D74
:10AED000049B9E421ED2AA69002AF7D1019B1B0740
:10AEE000E5D4F619099BB600F25817481C49D20858
:10AEF00006F04AFA55E7049B002B04D01248194982
:10AF00001CF0FDFF4DE7019B9B0703D5049818F04B
:10AF1000A8FC306065680DA825600D951AF05EFAF2
:10AF20002E180136731E1D78FF2D09D0029B013BA0
:10AF30005D1BAD006519E869FBF79AFBE861F0E776
:10AF400066600FB0F0BDC04600FD0200803F030008
:10AF5000F8DC0200DC430300573F0300D586030002
:10AF6000078703003787030070B5041C0D1C1049C8
:10AF70001BF053FD6968201C0122F6F7BBFD0D4E46
:10AF8000201C311C1BF049FDA968201C0122F6F78A
:10AF9000B1FD311C201C1BF040FDE968201C012282
:10AFA000F6F7A8FD201C04491BF037FD70BDC04614
:10AFB0005E8703008B4003001B43030070B5061C33
:10AFC00010200D1C141C18F043FB034B46608560D9
:10AFD0000360C46070BDC04600E202008022044BE2
:10AFE00052001A600123034A1360034A136070473A
:10AFF00000E100E00C8C0040008000408022054B06
:10B000005200DA67044BFF3A5A600022034B1A6081
:10B010007047C04604E100E0008000400C8C004016
:10B0200038B501251D4B1E4C18601E4BE550C0461F
:10B03000FFF7E4FF1C4A1D4BE560E25000230221AC
:10B040001B4AC220A3500432A15049180832A15013
:10B050008021C12209039200A150053AFF21FF3A45
:10B06000A3504024134B80001A588A432243802463
:10B070001A500C301A5824061202120A22431A508F
:10B0800004301A588A433F390A431A508022120466
:10B090001A60802252041A6038BDC0466027002022
:10B0A00000800040FC0F0000701700004C050000FD
:10B0B0000405000000E100E038B5224C224D636C2D
:10B0C000002B0AD000236364204B1B689847A822FA
:10B0D000D200AB580001C018A850A36C1A4D002B29
:10B0E0000AD00022174B9A64184B5B689847184A9D
:10B0F0000001AB58C018A850E36C134D002B0BD0C7
:10B100000022104BDA64114B9B689847A922D200A9
:10B11000AB580001C018A850236D0B49002B0FD06D
:10B120000022084B0B481A650B4A8B581B188B5092
:10B130000A4A1368063313608022094B12045A60CE
:10B1400038BDC046FC800040008000401400002054
:10B1500044050000701700004C050000FC2C002086
:10B16000FCE100E0F7B50191032824D8134B8000DF
:10B17000C758C2230125124C9B00E75003191D64D8
:10B18000A825ED005E59B4460E4EA659921B6244A6
:10B19000D117090F8C4662441211013200920A49FC
:10B1A000019A4250C121009A89001201B6186750D5
:10B1B00000205E5101E001204042FEBD78E2020025
:10B1C000008000404C0500001400002003280BD82C
:10B1D000074B8000C158C223064A9B00D150064A43
:10B1E000064BC250002001E0012040427047C0469B
:10B1F00078E2020000800040175402001400002092
:10B2000008B5024B1B68984708BDC0466027002060
:10B2100010B50024054AA358002B02D00021A150EC
:10B2200098470434102CF5D110BDC0466427002087
:10B23000074A89008B58002B06D188508021054A87
:10B2400049045160181C01E0012040427047C0468B
:10B2500064270020FCE100E030B585B003AB051C9D
:10B26000141C081C02AA01A91AF0C9F8019A16496F
:10B2700000238A4200D0531002984210884200D125
:10B280002A1C002B04DA5B19D843C017034002E0E4
:10B29000AB4200D92B1C002A01DA521902E0AA4263
:10B2A00000D92A1C23609A4200DA1A1C039B6260B0
:10B2B0008B4205D0032B03D05B10A360002001E07C
:10B2C0000120A06005B030BD74E00200F0B587B089
:10B2D000061C151C0C9F1B2803D1BA4212D000205B
:10B2E0003FE0192808D01C280CD13D1C171C0A1C53
:10B2F0001D26191C131C05E03D1C171C0A1C1A26D0
:10B30000191C131C0397AF4200D903951C1C002382
:10B3100002910193019B039A93421BD0029B0594D7
:10B32000049301CB02CC0293F6F762FC002802D012
:10B33000019B0133EDE71B2ED1D0049B301C196813
:10B34000059B1A68FCF7A2FF074BC01A43425841FD
:10B35000C0B206E0BD4201D002D2C0E71A2EBED074
:10B36000012007B0F0BDC04634CD0200F0B51E1C70
:10B3700085B0039018680D1C171CF6F7A1FB7368C5
:10B38000019002930024022F18D9291CB2680123CE
:10B39000F6F758FD041C032F10D0291C0198F26801
:10B3A0000123F6F74FFD051C08E0039AA300D058CF
:10B3B0000299F6F71DFC002808D10134AC42F4D301
:10B3C000054906481CF09BFDF4F725FF01206400A9
:10B3D000204305B0F0BDC0466587030010F80200A9
:10B3E000F8B5041C0D1CA368002B0AD0334AE96889
:10B3F000914206D0EB58002B03D00422E3681A6078
:10B400005AE0A86B002820D0062163680430DB00D6
:10B4100019430022F9F744FB031E16D0227C002AB0
:10B4200002D0002021680BE02068002807D0234AC2
:10B43000E968914203D0224A954200D00069291C54
:10B440005A68E368FCF7D6FD36E02368002B03D189
:10B450006E6B002E14D12FE0227C002AF8D1174AFF
:10B46000E9689142F4D0164A9542F1D018696168B2
:10B47000E268FCF701FEE3681B68002BE8D01BE0E4
:10B4800075680836002D17D000276B1E0C4A9F42A6
:10B490000CD2BB00F158914206D0201CFFF7A0FF50
:10B4A000E3681B68002B07D10137EEE7054BED1869
:10B4B000AD00AD59954296D1F8BDC04675B70000B4
:10B4C00078FF0200FFFFFF3FF0B5146889B0002C41
:10B4D0001FD143685E6B002E1BD0171C736803AD31
:10B4E00001938368083603936960AC60EA602C744A
:10B4F000019B9C4209D0A300F158281CFFF770FF64
:10B500003B68002B05D10134F2E7281C0249FFF704
:10B5100067FF09B0F0BDC04678FF020008B50B1CFC
:10B5200002495A681BF045FB08BDC0467C870300F2
:10B5300070B50E1C00218AB0041C151C05A814222D
:10B54000009101911FF075FE202307936B4605942F
:10B5500008931C23002D02D0042D07D11A23216843
:10B5600005A80693FFF73CFF022106E01B23216894
:10B5700005A80693FFF734FF03210098042805D19E
:10B580002069311C2A1CF6F711FD0DE000280BD0B4
:10B5900002AB0022029403960495FCF7EFFC031C17
:10B5A0000248042D00D1181C0AB070BD74E00200DE
:10B5B000F0B5204B82008BB0D25805AE00237260EC
:10B5C0001422019003AF05910D1C301C09680393F0
:10B5D0007B60B260F7603374FFF702FF039C042CBA
:10B5E00005D101982969FCF75FFC041C1EE0002CC2
:10B5F0000DD0201C291C19F0C5F9019B041C022B3D
:10B6000014D1F6F773FB0124400004430EE0019BC4
:10B61000022B0BD12433301C29687360FFF7E0FE46
:10B620003B68002B02D101246D002C43201C0BB081
:10B63000F0BDC046F0EC0200F0B5161C724272413B
:10B6400089B00C1C1F3200230492082201A903AD0B
:10B650000691071C2168281C019302932B74039404
:10B660000592FFF7BDFE019B002B08D1002E06D1ED
:10B670001F33281C21686B60AE60FFF7B1FE019894
:10B68000042819D12069F6F71BFA164BC2689A42B2
:10B690000ED1002E07D02368586817F0F0F9011C6E
:10B6A000381C1BF0BAF98022381C324321690BE0A8
:10B6B000381C2169321C07E0002808D0211C19F031
:10B6C00061F90022011C381CF6F714FA08E0201C6E
:10B6D00017F081FE0449021C231C381C1BF069FA78
:10B6E00009B0F0BD711201008987030038B5041C50
:10B6F0000D1C0B491BF091F96968201C0022F6F71C
:10B70000F9F9201C07491BF088F9A968201C0022C0
:10B71000F6F7F0F9201C04491BF07FF938BDC0464C
:10B720009B8703008B400300C1830300F7B500250E
:10B73000436808300F1C061C2C1C0193019B9D4282
:10B7400012D0AB00F358094A93420BD0084AD9688B
:10B75000914202D03B60013404E0586B391CFFF782
:10B76000E5FF24180135E9E7201CFEBD78FF020043
:10B7700075B70000F0B58FB0051C0F1C406B05A914
:10B7800001920293FFF7D2FF061DB600301C17F09E
:10B790005FFF041C002120C018F08AF9321C201C15
:10B7A000103A103000211FF044FD012F05D1029BFB
:10B7B0001B680393042B00D183E00922002309A80E
:10B7C000426007AE0332291C8260C660037407938F
:10B7D00073600993FFF704FE0798042807D10598C2
:10B7E000391CC668019A029BB047206123E00028FB
:10B7F00021D0019A3A4306D1012106AB0695FCF708
:10B80000BDFB041C17E0019B5C003C190134A40043
:10B81000201C17F01DFF221F0390029920C01FF06B
:10B82000EBFC791C3068019A039BFCF7A7FB041C16
:10B83000039817F034FF201CF6F742F9A84240D1D4
:10B840000023082209A8291C089307930B93099445
:10B850000A92FFF7C5FD079B002B32D001993943AF
:10B8600005D1081C07AA19F095F8061C1CE0019BDD
:10B870005E00BE190236B600301C17F0E9FE321C1D
:10B88000051C079B083A03600393089B02994360D9
:10B8900008301FF0B1FC381C01992A1C19F07AF805
:10B8A000061C281C17F0FBFE074B9E4209D0301CDB
:10B8B00017F091FD0549021C054805F065FDF4F7F8
:10B8C000AAFC201C0FB0F0BD74E00200A4870300A6
:10B8D00000FD020038B5C568041C002D06D10449DE
:10B8E0006268044805F050FDF4F795FCA84738BDA0
:10B8F000CC87030000FD0200F8B5041C0F1C161CC9
:10B900001D1C19F00FFE002809D1201C17F063FD43
:10B910000949021C094805F037FDF4F77CFC0428AE
:10B9200001D1206902E0211CF8F7B2F9391C321C60
:10B930002B1CFCF723FBF8BDF681030000FD020081
:10B94000F0B5154B89B0161C8200D5580C1C0C2282
:10B950000021071C68461FF06CFC182303A84560F3
:10B96000836000256B462168C36005740394FFF76C
:10B9700037FD0098042805D1381C2169321CFCF7DA
:10B9800085FC07E0002805D00120291C6A460296A4
:10B9900019F000F809B0F0BDA8EB0200F0B585B0D1
:10B9A000071C0D1C081C161C01A902AA19F0E4FAB8
:10B9B0000023019902988B420CD09A008258D468D7
:10B9C000002C05D123495268234805F0DDFC26E010
:10B9D0000133F0E73C2017F04DFE204B041C0360C0
:10B9E0001F4B476083601F4B4563C3601E4B8663DC
:10B9F00003611E4B03A943611D4B83611D4BC36152
:10BA00001D4B03621D4B43621D4BC362281CFFF795
:10BA10008DFE012805D910481A491CF070FAF4F778
:10BA2000FAFBA36B4E21181D0022F9F739F8051E09
:10BA30000DD0032243681A4009D11B685B68F22BC2
:10BA400005D1031D0121104819F0C7FD6860201CB5
:10BA500005B0F0BDE987030000FD02006CEB0200B9
:10BA600039B6000075B70000F9B80000B1B50000A4
:10BA700041B900004F55020031B500009F56020049
:10BA80005B56020012880300A8EC020037B51C1CAC
:10BA900000230D1C0093081C0333111C0122F4F732
:10BAA000A3FD012D09D0032D0BD1206800F0DEF994
:10BAB0006168A268FFF772FF09E02068F6F700F8F6
:10BAC00005E0034903481CF01AFAF4F7A4FB3EBD55
:10BAD0004088030000FD020038B5051C0C200C1C3A
:10BAE00017F0B6FD024B45600360846038BDC04668
:10BAF00030EC0200F8B50F1CB8421ED003240440FD
:10BB00001DD1134B02689A421BD1466B002E1AD0EE
:10BB100075680836002D18D06B1E9C4208D2A30011
:10BB2000F058391CFFF7E6FF00280FD10134F3E786
:10BB3000084BED18AD00A859DEE7012006E0002013
:10BB400004E0201C02E0301C00E0281CF8BDC046C8
:10BB50006CEB0200FFFFFF3FF0B585B0051C0191C3
:10BB6000081C8B0710D10B68154A934204D101239E
:10BB7000029301AB03930DE0124A934204D102A950
:10BB800003AA19F0F9F905E00F4910481CF0B7F9BC
:10BB9000F4F741FB0024029E039FB4420BD0A300A4
:10BBA000F9580B4B994208D0281CFFF7A3FF002837
:10BBB00003D10134F1E7074800E0074805B0F0BDC4
:10BBC0006CEB0200BCDC02005C88030000FD02009C
:10BBD00078FF020078CD020034CD020008B583075B
:10BBE00003D1064B02689A4205D0054905481CF06E
:10BBF00086F9F4F710FBFFF7AFFF08BD6CEB02000E
:10BC00009588030000FD0200F7B5CC1CA400071CBA
:10BC1000201C0E1C019217F01BFD221C051C054B5D
:10BC20004760866003600C3A01990C301FF0E4FA1B
:10BC3000281CFEBD18ED0200032210B502400121B0
:10BC4000002A04D10A4C03688C46A3420ED00B1C78
:10BC500003409C4608D1002A08D1036805481B1AF6
:10BC60005A425A41944601E001239C46604610BD69
:10BC70003CCD020030D3020010B5041CFFF7DCFFFE
:10BC80000123002809D10322031C2240022A04D1E7
:10BC9000034B2340063B581E83410120184010BD32
:10BCA000070080FF08B517F096FB0349021C034804
:10BCB00005F06AFBF4F7AFFAB888030000FD020054
:10BCC00010B5041C102017F0C3FC044B8460036003
:10BCD000034B43600023C36010BDC0463CE202003A
:10BCE000A35A0200F7B50E1C0193041C8B180A1C02
:10BCF00000210093009B9A420ED21378272B04D088
:10BD0000223B58424341DBB201E0002301210132D2
:10BD1000002BEFD0272503E02725002900D0053D83
:10BD20001F4F201C391C2A1C1AF043FF009B9E4207
:10BD30002FD23278AA4203D1201C1A492A1C24E0AF
:10BD40005C2A02D1201C18491AE01F2A0AD97F2A2E
:10BD500019D0019B002B02D053B2002B0CDB201C0E
:10BD6000391C12E00A2A02D1201C104908E00D2AD1
:10BD700002D1201C0E4903E0092A04D1201C0D49E0
:10BD80001AF04BFE03E0201C0B491AF012FF01369B
:10BD9000CCE7391C2A1C201C1AF00BFFF7BDC0464B
:10BDA000934103009241030096410300994103002F
:10BDB0009C4103009F410300A2410300194B70B551
:10BDC000061C0D1C98420ED188684968F4F796FA53
:10BDD000041E08D0281C16F0CCFE00230620E40028
:10BDE0002B6020431DE0102017F032FC6968041C12
:10BDF00081600660A868F4F763FA6B686060591C9C
:10BE00002B68994202D1AB68E36003E0A86817F0A1
:10BE100035FCE0600023201CE268A1685354AB604D
:10BE20002B6070BD80CA020038B5051C0C1C002AAE
:10BE300002D0F4F799FA03E0F4F760FA002803D08F
:10BE40000623C000184304E00248291C221C19F0F4
:10BE5000F0FC38BD80CA020008B5031C0A1C024869
:10BE6000191C19F0E6FC08BD48EF020008B50B4BA1
:10BE70000340062B01D1C0080EE0031C820708D145
:10BE8000074A0168914204D19968C068F4F76CFAD6
:10BE900002E0181CFFF706FF08BDC046070080FF40
:10BEA00080CA020008B5064B0340062B03D1C00828
:10BEB00016F0EAFD02E08368C0680B6008BDC0466A
:10BEC000070080FFF0B5002689B0051C0F1C081C78
:10BED0001C1C111C0096321C0323F4F785FB0E205A
:10BEE000B74237D0012F0ED104A802AA1021F4F7CF
:10BEF00005FB02A82168321CF5F7FCFD281C04A9EB
:10BF0000FFF75CFF26E0206804A983071AD1124BD3
:10BF100002689A4216D1FFF7C5FF104B061C206835
:10BF20000340062B04D1C00816F09FFD041C00E05E
:10BF300044681020049F17F08BFB05608760C66083
:10BF4000446007E00122F6F765F80498059900229D
:10BF5000FFF76AFF09B0F0BD48EF0200070080FF5D
:10BF6000F0B58BB0049008680D1C06920793F5F7A6
:10BF7000A7FD041C6868F5F7A3FD061EA64202D0C3
:10BF80006868FFF78FFE08A92868FFF78BFF041C7D
:10BF900009A96868FFF786FF089A0590A31803931C
:10BFA000049B271C022B19D9AB681F498B4206D072
:10BFB0000121301C0091211CF5F7ACFC071C049BEF
:10BFC000032B0BD0EB68184A934207D00122301C98
:10BFD0000092211C089AF5F79DFC0390039B381CE6
:10BFE000D91B069B059A0093099B19F003FC011EBF
:10BFF0000AD10120079B4042002B12D00B490C486C
:10C000001BF07DFFF4F707F90A4B9E4205D1201C77
:10C0100017F007FF0121400002E0001B4100012052
:10C0200008430BB0F0BDC04674E00200E488030092
:10C0300010F8020080CA0200F0B58DB0041C039114
:10C04000F5F73EFD04A9061C201CFFF72BFF01900D
:10C05000039883070BD10368314A934204D105A9A1
:10C0600006AA18F089FF10E02E4A934208D02D4806
:10C070000121C36800220293029C03ABA0470390F6
:10C08000039805A906AA16F052FF0024251C059B5B
:10C090009C421ED2069BA700D859F5F711FDB0426D
:10C0A00005D0214921481BF02AFFF4F7B4F8002CF1
:10C0B00001D0049BED18069BD8591D4B0340062B5D
:10C0C00003D1C00816F0D6FC00E080682D180134BA
:10C0D000DDE7291C002508A816F038FD0A9C059B01
:10C0E0009D4217D2002D06D0201C0199049A1FF002
:10C0F00083F8049BE418069AAB00985807A9FFF749
:10C10000D1FE079A011C201C1FF076F8079B013511
:10C11000E418E4E7301C08A9FFF750FE0DB0F0BDAD
:10C12000BCDC02009CC60200F888030000FD02008F
:10C13000070080FFF0B5071C87B008680D1CF5F7F5
:10C14000BFFC04A9061C2868FFF7ACFE05A9041C67
:10C150006868FFF7A7FE0390201C022F07D9012370
:10C16000301C0093211C049AAB68F5F7D3FB059AA9
:10C17000041B0499A418064B8C4206D803991FF09F
:10C180002CF8044B002800D0014B181C07B0F0BD60
:10C1900078CD020034CD020073B50D1C061C086872
:10C1A0006946FFF77FFE01A9041C6868FFF77AFE65
:10C1B000011C022E02D90848FCF788FD019A009B59
:10C1C00006489A4207D8981A20181FF006F8031E4E
:10C1D000034800D0014876BD3D89030078CD0200B8
:10C1E00034CD0200F0B58FB0079010680C1C171CFE
:10C1F000F5F766FC0690012C10D07868F5F760FC26
:10C20000069B984202D07868FFF74CFD78680DA92C
:10C21000FFF748FE0D9B0890099303E0072309935D
:10C220002C4B089338680DA9FFF73CFE0D9B0B9033
:10C230000493079B012B05D1049B5D1E01235B42E8
:10C240000A9302E0012300250A930024261C049B84
:10C2500003940593059B002B22D00B9B08985A1939
:10C2600001230999009319F0C5FA002812D1039B04
:10C27000002B0ED1079B002B03D1049B2E1C5D1EAF
:10C2800019E0079B012B15D001232C1C2E1C0393B6
:10C2900000E02C1C0A9BED18059B013B0593D9E798
:10C2A000039B002B08D10C4B069A0E209A420FD00C
:10C2B0000A480DE0039E2C1C049B0134A21B9A42E9
:10C2C00001D1386804E00B9B0698991919F0B1FA6E
:10C2D0000FB0F0BD0B8D030080CA020054ED0200C8
:10C2E000F0B589B0049008680D1CF5F7E9FB041C53
:10C2F0006868F5F7E5FB071EA74202D06868FFF7FC
:10C30000D1FC06A92868FFF7CDFD061C07A96868BF
:10C31000FFF7C8FD069A0590B3180393049B341CDD
:10C32000022B19D9AB681F498B4206D00121381C5A
:10C330000091311CF5F7EEFA041C049B032B0BD083
:10C34000EB68184A934207D00122381C0092311C36
:10C35000069AF5F7DFFA0390079B0025002B10D112
:10C36000039B201C191B17F06BFD013040000125B9
:10C3700014E0201C05991EF030FF002807D101357C
:10C38000341C079A039BA6189E42F2D904E0201C95
:10C3900017F040FD061CF3E701206D00284309B0AB
:10C3A000F0BDC04674E00200F0B58BB00E1C071C57
:10C3B0000392F5F785FB041C301CF5F781FB8442E2
:10C3C00002D0301CFFF76EFC05A9381CFFF76AFD90
:10C3D00006A9051C301CFFF765FD069B021C002BFF
:10C3E00005D11A491A481BF08AFDF3F714FF1949C1
:10C3F0008C4201D10E2100E0174907910891099163
:10C400000399002901DD079700E009970399281C8B
:10C410000091059919F0EEF9002811D0471B3A1C3C
:10C42000291C201C19F005FA069A059BB918DF1B78
:10C4300007906918BA1A201C089619F0FAF90990A1
:10C4400007A90320FDF73EFC0BB0F0BD4F890300A8
:10C4500010F8020080CA020054ED020008B5011C69
:10C46000014819F0FDFA08BD613E020008B5011C43
:10C47000014819F0F5FA08BD753E0200F7B5061C33
:10C48000081C01A9FFF70EFD019B051C002B01D123
:10C49000144826E0144B041C9E4201D1002712E0F0
:10C4A000124B9E42FAD0019A631B934218D2207815
:10C4B000B04701340028F6D1EAE72078F9F7AEFB5F
:10C4C000002805D10134019A631B9342F5D305E09E
:10C4D0002078B0470028DBD00127F3E7002FD7D022
:10C4E0000348FEBD78CD0200855C00009D5C000025
:10C4F00034CD020008B5011C0148FFF7BFFF08BD9D
:10C50000055C000008B5011C0148FFF7B7FF08BD36
:10C510001D5C000008B5011C0148FFF7AFFF08BD16
:10C52000355C000008B5011C0148FFF7A7FF08BDF6
:10C53000855C000008B5011C0148FFF79FFF08BD9E
:10C540009D5C0000F0B585B0041C0D1C171CF5F7B0
:10C55000B7FA6946061C201CFFF7A4FC041C042F34
:10C5600022D1AB0715D1124B2A689A4211D10098FB
:10C57000291C01AAFEF770FE002802D10D48FCF725
:10C58000A5FB019B029AE118D21A301C19F051F94F
:10C590000BE00023301C00992A1CF5F753FC012303
:10C5A000205C4000184300E0002005B0F0BDC0460C
:10C5B00000E202009B40030070B58AB000296BD0F6
:10C5C00018681C1C031C364D2B40062B05D0830716
:10C5D0001ED1344B02689A421AD10239012955D82A
:10C5E00006A9FFF75FFC061C20680540062D04D154
:10C5F000C00816F03AFA041C00E044681020069DBA
:10C6000017F026F8284B85600360C660446044E05C
:10C6100001293BD8012210420CD04410211C06A84D
:10C6200016F094FA089B0021181C221C01931EF09E
:10C6300000FE26E003A916F0E4FE002805D00399C9
:10C64000049A194819F0F5F827E02068F5F73EFC40
:10C65000002802D106A8102101E0411006A816F01A
:10C660005EFA2068FBF784FD041C201CFBF7CEFD5E
:10C67000002806D0F5F70EFBC1B206A816F0DCFACA
:10C68000F3E706A90848FFF799FB06E007490848C1
:10C690001BF035FCF3F7BFFD06480AB070BDC0467D
:10C6A000070080FF80CA020048EF02005F89030094
:10C6B00000FD020054ED020073B5041C081C01A922
:10C6C000161CFFF7EFFB051C201C042E05D10849A2
:10C6D000019A2B1C1AF06DFA08E006491AF09DF930
:10C6E000201C291C019A0123FFF7FCFA73BDC046E8
:10C6F0008D410300EB260300F7B5021C1A4B051C05
:10C700000C1C1A401E1C062A08D10B40401A062B8E
:10C7100026D0E80816F0A9F9071C00E04768264073
:10C72000062E03D1E00816F0A0F900E06068002FA3
:10C7300005D0002803D0874201D0002013E0281C38
:10C740006946FFF7AFFB01A9051C201CFFF7AAFBF8
:10C75000009A019B011C9A42EFD1281C1EF03DFD5E
:10C7600044426041C0B2FEBD070080FF084B07B5E0
:10C770000340062B08D0830704D103689A69054B50
:10C780009A4201D0FFF78EFA01A9FFF78BFB0EBD8D
:10C79000070080FF79CD00000A4B13B503400C1C45
:10C7A000062B08D0830704D103689A69064B9A4286
:10C7B00001D0FFF777FA01A9FFF774FB019B236013
:10C7C00016BDC046070080FF79CD0000F0B59BB0D4
:10C7D0000B900C1C079212A810210EAA0993F3F7D4
:10C7E0008DFE079B9C4200D3ACE221787D2909D1C4
:10C7F000079B671C9F4202D261787D2910D0BE48FA
:10C80000BE493EE07B2904D012A816F015FA271C79
:10C8100087E2079B671C9F4254D261787B2903D132
:10C8200012A816F009FA7CE27D2916D0212914D02D
:10C830003D1C3A2911D02B787D2B08D0212B06D016
:10C840003A2B04D0079B01359D42F4D140E0079B71
:10C850009D423DD23C1C2F1C01E000252C1C3B7846
:10C86000212B12D1079A7B1C9A4208D97E78331C5F
:10C87000723B012B03D8BB1C934208D328E09E488F
:10C880009F491BF03CFBF3F7C6FC3B1C00261A78C3
:10C8900000273A2A00D048E25F1C5B787D2B14D039
:10C8A0003B1C393A07998B4212D219787B2901D166
:10C8B000013205E07D2903D1013A002A00D134E29A
:10C8C0000133EFE70026351C341C079B9F4202D33F
:10C8D00089488C49D5E7002305933B787D2B02D00E
:10C8E00085488949CDE7002C47D00023207816934E
:10C8F000F9F7A0F9211C002822D0099B1B6804939A
:10C90000002B02DD7C488149BBE716AA201C291CAC
:10C9100018F058FF209A169B013A0690934237D29E
:10C92000219A01339B009B58099A049301235B428F
:10C9300013601CE00B782E2B04D05B2B02D001314E
:10C94000A942F7D30691201C091B0122FFF76CFABC
:10C95000041C00222298211CF8F7A2F8002804D118
:10C96000211C6B481BF0C4FA8DE743680493069BB7
:10C97000AB4217D26748FCF7A9F9099B1B68002B4B
:10C9800002DA5D4864497CE7209A013A934202D377
:10C990006248634975E7013321999A00525804921D
:10C9A000099A1360059B002B03D1002E00D1BAE138
:10C9B00001E0002E12D016A8102110AAF3F79EFD58
:10C9C000321C733A531E9A4110A8D2B20499F5F75B
:10C9D00091F8544816A9FFF7F1F9049001235B423E
:10C9E0000D931093059B002B00D1A3E0F6F740FFB9
:10C9F000209B16A80093219B05990193229B3A1C2A
:10CA00000293099BFFF7E2FE16A816F002F9179BA6
:10CA10000678C3180A930023041C05939E4216D07F
:10CA2000414D311C281C1EF0F1FC002800D07FE194
:10CA300063780593002B09D0281C191C1EF0E6FC16
:10CA4000002800D078E10590061C00E0059E2378C0
:10CA500008932B2B05D02D2B05D00425202B05D199
:10CA600002E0022500E00025013401E000250895E0
:10CA70002378232B02D1133B1D4301342378302B21
:10CA800007D1059B002B01D13D330593002E00D12A
:10CA90003036201C0A990DAA18F094FE03780690EF
:10CAA0002C2B04D10C3B1D43031C01330693069B26
:10CAB0001B782E2B06D106980A99013010AA18F07F
:10CAC00081FE0690069B1C78002C07D01748211C7D
:10CAD0001EF09CFC002800D030E1041C069B1B7853
:10CAE000002B02D004481249CBE616A816F041F8F4
:10CAF000059B002B2BD121E010F80200798903005F
:10CB0000A1890300BA890300D2890300F6890300D2
:10CB1000F0FD0200598A0300768A03006CF90200D6
:10CB2000408A030080CA0200C08A0300C58A03004D
:10CB3000D58A0300059D2C1C2E1C08950498FFF730
:10CB40009BF83E230593002801D1023B0593002E5C
:10CB500000D12036089B002B09D0732C02D17E48CF
:10CB60007E498EE6632C02D17B487D4989E6059B90
:10CB70003D2B05D05E2B05D03C2B05D13B3B02E085
:10CB8000402300E080231D430498FFF755F8002858
:10CB90005FD0632C23D016D8472C06D8452C58D20A
:10CBA000002C27D0252C54D04CE0582C3CD0622CA3
:10CBB00048D10D9B009502930023019603930EA884
:10CBC000049902222EE0672C02D8652C12D340E093
:10CBD0006F2C19D0782C27D06E2C33D10AE0049812
:10CBE000F5F758F80D9B16A90870012200960193DD
:10CBF0000EA889E00D9B00950293002301960393F4
:10CC00000EA804990A220DE0EB0602D580239B00B2
:10CC10001D430D9B08220293002304990095019661
:10CC200003930EA861330AE00D9A231C029200229E
:10CC300004990392173B009501960EA8103201F05B
:10CC400057FC6EE0049816F0C6FB4649031C4248A8
:10CC500063E00498FFF710F8002838D0002C1FD0AC
:10CC60006E2C1DD0472C15D8452C1AD2252C27D137
:10CC70000498F5F773F83C490DF00CFD80230D9AEC
:10CC80005B000192109A011C02922B4300960EA8A1
:10CC9000662212E0231C653BDBB2022B10D800E0B9
:10CCA00067240498F5F75AF80D9B221C0193109BFA
:10CCB000011C02932B1C00960EA819F02BFF30E0EC
:10CCC000049816F088FB2949031C234825E0059B9E
:10CCD0003D2B02D120482649D3E50498002C01D0F1
:10CCE000732C15D116A9FFF757FD109B011C169A3E
:10CCF000002B00DA1092109B9A4200D916930D9BDC
:10CD0000169A009601930EA82B1C01F093FB08E0E5
:10CD100016F061FB1749031C0F48221C04F034FB7A
:10CD2000B1E57C1C5DE5732645E605971F1CD4E53F
:10CD30000596013400268AE6023488E6069B013314
:10CD40000693CBE60B9A12AB13CB13C21B6813608E
:10CD50000B981BB0F0BDC04610F80200EE8A03002D
:10CD60001A8B03004D8B03000000C8427E8B03002A
:10CD7000B28B0300E78B0300F0B5A1B0041C0D1CBF
:10CD80000D920A2800D0E6E1073C0692144010D12B
:10CD90001368B94A934206D1069810A90FAA18F051
:10CDA000EBF806940BE0B54A934202D10F9410942D
:10CDB00005E00DAB0F930123109300230693109B06
:10CDC000281C08930F9B11A90A93FFF76BF8002307
:10CDD0000B900C93AB0705D1A94A2B689B1A5A42BA
:10CDE0005A410C9214AA18A81021F3F787FB119A44
:10CDF000002794460B9B0B9C63440593059B9C4228
:10CE000000D39BE12178252903D018A815F014FF41
:10CE100092E1059B661C9E4202D39A489A4916E00D
:10CE20006178252904D118A815F006FF341C83E188
:10CE30000025282919D1A01C061C00E001363378F2
:10CE4000292B08D0059B9E42F8D38E488F491BF0B2
:10CE500056F8F3F7E0F9311A0122FEF7E5FF011C5D
:10CE60000698F7F723F9051C01360023341C002629
:10CE7000099320330793059B9C4211D223782D2BD5
:10CE800001D12C3B06E02B2B01D1293B02E0202BCA
:10CE900002D11C3B1E430FE0232B0BD0302B05D0BF
:10CEA00000231293059B9C4208D320E04022079365
:10CEB000164301E0102309930134DCE723782A2B81
:10CEC0000FD1089A3B1E934202D371487149BEE7C5
:10CED0000A9A9B009858F4F7DDFE0137129001344E
:10CEE00005E0201C059912AA18F06CFC041C012313
:10CEF0005B421393059B9C428FD223782E2B1ED12D
:10CF0000059B601C984288D263782A2B0CD1089A22
:10CF10003B1E9342D9D20A9A9B009858F4F7BAFE66
:10CF200001371390023406E00023059913AA1393E6
:10CF300018F048FC041C059B9C4200D36DE7002DB3
:10CF400007D1089A3B1E9342BFD20A9A9B009D5874
:10CF500001372378672B0FD8652B6AD2582B00D165
:10CF6000D1E004D81A1C453A022A62D9DBE0632BCF
:10CF700012D0642B42D0D6E0732B07D8722B00D38B
:10CF800092E0692B3AD06F2B63D0CCE0752B35D073
:10CF9000782B00D1B7E0C6E03F4B2B40062B05D0E5
:10CFA000AB0714D13D4B2A689A4210D11CA9281C0A
:10CFB000FFF7F2FB1C9A011C012A02D034483849C1
:10CFC00045E720230093129B14A801930FE0281C2F
:10CFD000FEF732FE00280ED0281CF4F75BFE20235B
:10CFE00001221CA908700093129B14A80193331C02
:10CFF00001F020FAA0E026482A4928E703222B1C4A
:10D00000291C1340022B0AD1234B2B40062B06D0A0
:10D01000FF23DB05E8189043F7F736FF011C079B59
:10D0200000960193129B14A80293139B0A22039368
:10D030001FE0281CF4F792FE079B22780093129BB6
:10D04000011C0193139B14A80293331C19F062FD79
:10D0500072E0099B002B02D084239B001E43291CF5
:10D060000822079B00960193129B14A80293139B1E
:10D070000393612354E0C046BCDC020064CE02008E
:10D0800048EF020010F80200198C03002B8C0300FB
:10D0900000FD0200418C0300070080FF80CA0200EF
:10D0A000688C0300818C030016AA1CA81021F3F7DA
:10D0B00025FA23780122722B0BD000220C9B93427D
:10D0C00007D0AB0705D12B68644A9A1A51425141E7
:10D0D0008A0016A8291CF4F70DFD139A1D9B002A3F
:10D0E00000DA1393139A9A4200D91A1C2023009352
:10D0F000129B14A801931E99331C01F09BF91CA8E4
:10D1000015F037FD18E0099A291C1643079A173BBA
:10D110000192129A00960292139A14A80392102276
:10D1200001F0E6F908E00B9A4D49A41A00941A1C84
:10D130004C4804F029F98CE601345FE6089B9F42D5
:10D1400002D04948494982E60C9B4448002B00D153
:10D15000474818A96EE0081CF4F7B2FC16A9061C93
:10D16000281CFEF79FFE071C0D98072C1DD118A93F
:10D17000F4F7CEFD0025A8426DD01899A94205DC30
:10D180003B4B0E359E4266D03A4D64E0169B1CA880
:10D19000594315F0DBFC1E9B381C059300930121BD
:10D1A000169A189B18F03AF942E0F4F789FC864287
:10D1B00006D10D981CA9FEF775FE1C9D05900DE08B
:10D1C000264B00259E4246D10D981CA9012216F03F
:10D1D00018F9A8423FD01C9B1D9D05931D2C06D815
:10D1E000192C2BD2052C0DD0122C0BD032E01F2C79
:10D1F00030D10123381C00931699059A2B1C18F086
:10D20000F9FA22E0169B1CA8E91815F09FFC1E9B5A
:10D21000391C181C169A06931DF0EEFF169A1E9BD9
:10D22000944606936344181C05992A1C1DF0E4FFDC
:10D23000301C1CA9FEF7C2FD051C0CE00095201C4B
:10D24000391C169A059B18F01DF90B4D002802D1C8
:10D250000A4D00E00025281C21B0F0BD48EF020077
:10D26000928C030010F8020000FD0200C78C03003E
:10D2700080CA020054ED020034CD020078CD0200D5
:10D2800070B58AB0061C0C1C086804A9151CFEF7B2
:10D2900009FE00230593049B011CC218009606A8F2
:10D2A00005AB01940295FFF791FA06A90248FEF733
:10D2B00085FD0AB070BDC04680CA0200F0B5071CEB
:10D2C00087B008680D1CF4F7FBFB0190012F07D90C
:10D2D0006C68022F05D0A868F4F7DCFC071C02E09C
:10D2E000444C01277F420020011C15F008FE04A9D0
:10D2F00000902868FEF7D6FD049B051CC6183D4B20
:10D300009C4238D1B54229D22878F8F77BFC002816
:10D3100024D00135F6E7002F23D02C1C2078F8F715
:10D3200071FC002802D10134B442F7D1291C621BE0
:10D33000019818F07EFA011C0098F3F79BFCB442A8
:10D3400055D2251C2878F8F75DFC002802D001355D
:10D35000B542F7D1FB17DB1BDB0FFF1AB542DAD35F
:10D3600045E0291C721B019818F063FA011C009813
:10D37000F3F780FC3BE0201CF4F7A2FB019A02903B
:10D38000031C201C934201D0FEF78CFC05A9FFF77B
:10D3900003FA059B0390002B25D1174917481AF073
:10D3A000AEFDF2F738FF019BE3189E4209D3201C23
:10D3B0000399019A1DF011FF002803D00134002FBA
:10D3C000F1D1341C291C621B029818F032FA011C9E
:10D3D0000098F3F74FFCB44209D2059BE518FB1700
:10D3E000DB1BDB0FFF1A059B2C1C0193E7E7009862
:10D3F00007B0F0BD74E002004F89030010F802008E
:10D40000F0B50C1C8BB0022802D8FFF757FF7EE066
:10D410000868F4F755FB08A9049020686668FEF7D1
:10D4200041FD0090A068F4F735FC431C051C002169
:10D43000181C059315F063FD364B041C9E4202D167
:10D440003548FBF743FC301C09A9FFF7A5F9099BF8
:10D450000690002B05D1314931481AF050FDF2F702
:10D46000DAFE089A2F1C9446009B63440293AB009B
:10D470000393099B0193019A029B9E1A002D0BD0E6
:10D48000009B9E4208D3301C0699019A1DF0A5FE10
:10D49000002822D0013EF1E7E368BD005E19009A42
:10D4A000029B04989A1A009918F0C3F93060002F73
:10D4B00011D0059BDF1BE368BE005919181C321CF4
:10D4C0001DF0A3FE63680021DA1BE368920098193F
:10D4D0001DF0AFFEA760201C19E0039AE368944694
:10D4E00063440793019B0498F118029B013F9A1B28
:10D4F000019BD21A18F09DF9079B02961860EB1752
:10D500005B1BDB0FED1A039B043B0393B1E70BB0EE
:10D51000F0BDC04674E00200FC8C03004F8903009C
:10D5200010F8020008B50368186B00280ED0CB076E
:10D5300002D50368002B09D08B0702D54368002B66
:10D5400004D04B0708D58368002B05D10349044854
:10D550001AF0D5FCF2F75FFE08BDC046128D03003D
:10D56000C0F90200F0B5012189B00190FFF7DAFFA0
:10D570008021061C490004A815F0D1FA802400235C
:10D58000069D6400009303AB0198291C221C376898
:10D59000B847431C0ED103990B2904D1009B1848AE
:10D5A000002B21D12AE001234900194315481AF024
:10D5B0009FFC14E0002817D0009B1B180093A0428A
:10D5C00002D2241A2D18DEE7802104A8490015F0A4
:10D5D000F5FA051E05D10B480B4903F0D5FEF2F70D
:10D5E0001AFE80246400CEE7009B08480593337B35
:10D5F000DB0700D4064804A9FEF7E0FB09B0F0BD44
:10D6000074E00200C0F90200318D030080CA0200FC
:10D6100048EF0200F0B589B00091041C08680121B0
:10D62000FFF780FF071C012C04D1009B1868FFF74F
:10D6300099FF98E0009B5868F4F72CFB051C431CED
:10D64000F3D001243B7B23426DD0041C291C04A889
:10D6500015F065FA00230193002C62D0211C04A868
:10D6600015F0C5FA011E04D14049414803F08CFE73
:10D670001FE0009B3E681868221C03ABB047031CE8
:10D68000061C013317D1211C04A815F01DFB0399BA
:10D690000B2908D1059B0093002B42D104A815F05B
:10D6A00068FA34485FE001234900194332481AF010
:10D6B0001FFCF2F7B0FDA04202D30699059C14E0CE
:10D6C000211A04A815F000FB002EF6D129E0101C49
:10D6D0001E3398431D3BC0280ED1019A9B18A342CC
:10D6E0001BD8013DA34216D20193019BCA5C0123C2
:10D6F00050B20028F1DAEAE7101C0D3398430C3BD6
:10D70000E028EAD004339A43131CF03B5A425A41B2
:10D7100005239B1AE1E72C1C9DE7013B5B191C1BB1
:10D720009AE716481CE0291C04A815F00FFA009B84
:10D730002A1C1868069903AB3D68A847431C09D109
:10D7400004A815F016FA03990A480B290BD04900D2
:10D750002143ABE73B7B05900848234200D10848B2
:10D7600004A9FEF72BFB09B0F0BDC0463F8D0300B6
:10D7700090F8020074E00200C0F9020080CA0200C2
:10D7800048EF02007FB50C1C061C08680121FFF75A
:10D79000C9FE0222051C01A96068F4F73BFC029A4D
:10D7A000022E07D9A068F4F775FA029B021E9A426E
:10D7B00000D91A1C6B462D6820680199A847431CA4
:10D7C0000BD1009907480B290AD0012349001943BE
:10D7D00005481AF08DFBF2F71EFD012340001843A7
:10D7E00004B070BD74E00200C0F90200F0B589B069
:10D7F0000191041C08680121FFF794FE061C04A88F
:10D80000012C08D9019B5B685C10631C03D0211CB0
:10D8100015F085F913E00124102115F080F9644218
:10D820000DE0019B391C1868012203AB3568A8473D
:10D83000431C11D0002823D03B780A2B2AD0631C2C
:10D8400023D104A8012115F0D2F9071EE9D1164908
:10D85000164803F099FD11E003990B2908D1059BA7
:10D860000193012B0CD104A815F083F9104819E09D
:10D870000123490019430F481AF03AFBF2F7CBFC99
:10D8800004A8012115F020FA04E0631E002C01D049
:10D890001C1CD6E7337B0848DB0700D4074804A9E3
:10D8A000FEF78CFA09B0F0BD3F8D030090F802003E
:10D8B00074E00200C0F9020080CA020048EF0200D2
:10D8C000F7B50F1C0221041C161CFFF72BFE01AB41
:10D8D0004568391C201C321CA847431C0BD10199F8
:10D8E00007480B290AD001234900194305481AF0BB
:10D8F000FFFAF2F790FC012340001843FEBDC0463A
:10D9000074E00200C0F9020070B5051C00290CDBB0
:10D91000032905D8081C00240CF080F80808050528
:10D9200001238C1E9C43FE2601E00024F226B52133
:10D9300009023143281C18F033F9002C04D00449A3
:10D94000281C214318F02CF9EE612C6270BDC046F2
:10D9500080B0000008B50B1C02495A6819F029F97B
:10D9600008BDC0465B830300F0B50E1C496885B056
:10D97000041C151C002901D0002A04D1201C311CD4
:10D9800018F0FFFA58E00F3213095918009318F0F5
:10D9900068FA0F22A368B16870682A4000D110327B
:10D9A000009D264F2D18EF197F00DB190393234BA1
:10D9B0000190C3185B00CB189C46039B0293002385
:10D9C00001991027002913D061460988BF1A0B431B
:10D9D000191CF9400F1C02991B040F800199013991
:10D9E0000191029902390291022149428C44E7E7F0
:10D9F000BF1AFB4003994000081A104903808C4667
:10DA0000009B01995F00C71B023763445A00381C12
:10DA10001DF00FFC002D06D06B00023BFB5A002BC3
:10DA200001D1013DF6E70121656033780B401A1CF6
:10DA300023788B431343237005B0F0BDFFFFFF7FB6
:10DA4000F0B54B68151C526887B0061C0C1C93423D
:10DA500001D22C1C0D1C0123227861681A4201D1CD
:10DA60002A7813405918301C18F0FBF9B36829784C
:10DA70009C46A3680F1C0193636820780093AB68F1
:10DA8000474002936B68059301231A1C1F408B4388
:10DA90000493009B8243591E6346101C03934B1C46
:10DAA00027D0019B1F4A1B889B181818009A059BBA
:10DAB0009B1A5B188B4207D8029B1A4A1B889B183B
:10DAC000029A0232029200E0164B049A0139D318EE
:10DAD0001A1C424092B2D719039A1B0C0493131CD0
:10DAE00002330393019B17800233000C3F0C019318
:10DAF000D5E7009B59006144002F02D001230B8021
:10DB00000231604618F098F90121706022782B7874
:10DB100053400B401A1C33788B431343337007B0C8
:10DB2000F0BDC046FFFF0000F0B55C6891B0002C6E
:10DB300002D144604C6049E1051C0B9353680E1CF4
:10DB4000591C0692019318F08CF9069B00215B6822
:10DB5000A8685A1C520001931DF06BFB00236B60F8
:10DB6000069B301C5B68591C019318F07AF9301C35
:10DB7000069918F006FAB368776802930B9B9B68C6
:10DB800003930B9B5B680593AB680893059B9F42CF
:10DB90000ED310D80298391C039A18F0A8F900285F
:10DBA00004D10123089A7060138002E0002802DA91
:10DBB00000236B60FFE00021059B854A9A18039BB8
:10DBC00052009B1804931B88019119B2002905DBB0
:10DBD00001995B0001319BB289B2F5E7931C0C936C
:10DBE0000C9A039B9B1800229C46039B63450BD217
:10DBF000198801980C1C844022431A801022121AA2
:10DC0000114102338AB2F1E700227C00029BA01C82
:10DC10001A531B1801370993029B77600792099AE0
:10DC200093420FD21988019A081C9040021C079851
:10DC300010431022188001980233121A11418AB23F
:10DC40000792ECE7049B1B880F93029B1C19059B12
:10DC5000FF1A5F4B6F60FF18089B7F00DB19099369
:10DC60007368059A0A93934260D9A31E20880E9385
:10DC70001B88000418430F990BF0EEFE0C9B00224A
:10DC8000E31A191C039F07900D93A1421AD207981B
:10DC90003B88434308888446834202D2C01A90429C
:10DCA0000AD860461B1A9A1853420B80130C92B282
:10DCB000501E8241D21802E0821A0A8000220231EC
:10DCC0000237E2E723889A4208D3D31A5A42190C42
:10DCD0009BB222805A1E93415A180BE09A1A228056
:10DCE000002207E02388C018079B2080013B000C1E
:10DCF000121A0793002A0ED00020039F0D99A1420B
:10DD0000F0D20B889C463B88023763441818088081
:10DD1000000C0231F3E76A46099B928B023B5A8062
:10DD200009930A9B0E9C013B736099E70023049AB8
:10DD300003998A420FD3049A01981288111C014159
:10DD40000B4304990B8010231B1A9A4093B2049A38
:10DD5000023A0492EBE71E4A0A9B9446029A6344F5
:10DD60005B00D318002202998B4214D31988019CBE
:10DD7000081C204102431A801022121B9140023BD2
:10DD80008AB2F0E7124A08999A185200525A002AA9
:10DD90000ED1013B6B606B68002BF3D108E00C4A9D
:10DDA00002999A185200525A002A04D1013B73601A
:10DDB0007368002BF3D101210B9B1A78069B1B780B
:10DDC0005A400A4202D02B780B432B7011B0F0BDA1
:10DDD000FFFFFF7F436830B55A0000238468A21814
:10DDE000944207D2084D023AAB420AD815881B0468
:10DDF0002B43F5E70278D20700D55B420B60012088
:10DE000000E0002030BDC046FF7F0000F8B58D1E49
:10DE100000241E2D16D81F1C40680B4B0001595CB6
:10DE2000151C0BF019FE061CA74204D0013003217B
:10DE30000BF012FE041C281E01D01DF0FFFA033661
:10DE400034192418201CF8BD4D8D0300064B0139F0
:10DE5000C9B21970411880310B78044A1370044A12
:10DE6000D25C044B1A707047FD2D0020FE2D00205F
:10DE70009C8D0300FF2D0020064B0131C9B21970A3
:10DE8000411880310B78044A1370044AD25C044B69
:10DE90001A707047FD2D0020FE2D00209C8D030080
:10DEA000FF2D0020074B984204D9074B1818411842
:10DEB000064B03E0064B1818064B4118C9180878A2
:10DEC0007047C046A4920000228E03005B6DFFFFE6
:10DED000E18F03000083FFFF031C20228033F0B595
:10DEE0001A70CB4B1F3A1A70041C002389B0591CBE
:10DEF000E05C7F23CAB203406F2B01D95F2302E0AD
:10DF00005F2B01D94F230340A21880321370CBB28C
:10DF10007F2BECD1BF4A1370231C1B22FF331A70D6
:10DF2000E432171C531CDBB203936B46B8491B7BCE
:10DF3000B94D0B70039B2E1CE31880331B782B709C
:10DF40005B2B06D19B227B1CDBB20B702A70E25448
:10DF50002DE02E2B11D10232D2B20A70A2188032DB
:10DF60001278AC480270AD48825CD20705D47A1CA6
:10DF7000D7B22B70E355039AD4E7A64A1370A74A89
:10DF8000D05C820727D4002813D120220B782A7076
:10DF9000E31880331A707B1CDFB20F70782F01D822
:10DFA000E255E8E79B23E3556B461B7B337001206A
:10DFB00035E27F229043984A107003D1984A994BDA
:10DFC0001A602CE2413B984ADBB29849D25CCB5CA8
:10DFD0001202134300E0964B0593059B0093009BB0
:10DFE000002101339BB2181C0093FFF75BFF03066F
:10DFF000F5D5009B05930123029300980299FFF742
:10E0000051FF029B0133DBB22828F5D1029D013577
:10E01000EBB20098191C0193FFF744FF019D2928DA
:10E02000F5D10135EBB2191C00980693FFF73AFFC2
:10E030007F23069D18403D28F3D16A46764B127B1C
:10E040001870734B039E1A70029B04965D1C714BF3
:10E05000EDB21D70A31980331B780098291C07931B
:10E06000FFF720FF079B9842B7D10135019A731C37
:10E07000EDB2DBB2954202D01E1C0493EAE7644B7A
:10E08000039D1E706A46029B0098013BDBB202931F
:10E09000127A604B02991A70FFF704FF5E4E030676
:10E0A00000D590E07F225A4B18705C4B1B5C934369
:10E0B000337009D0564B013DEDB21D7063198033AA
:10E0C0001B788342DED088E73070202812D02328C6
:10E0D00019D02E281FD0262825D0402841D05E28D0
:10E0E00049D02B2852D03A285FD0524A4D4B0020BD
:10E0F0001A6094E1201C291CFFF7A8FE7F223378C8
:10E10000934340D069E7201C291CFFF79FFE33781A
:10E110005B0638D461E7201C291CFFF797FE337893
:10E120001B0730D459E7201C291CFFF78FFE102253
:10E1300033781340337026D1354B1B78E11880318A
:10E1400009783170482900D047E7013B3049DBB2FC
:10E150000B70E31880331B789343432B00D03CE7CC
:10E1600011E0201C291CFFF771FE042332781340B4
:10E17000337008D131E7201C291CFFF767FE337884
:10E180009B0600D429E7224B1D787BE7204B013DFD
:10E19000EDB21D70651980352B78452BF3D0102218
:10E1A0009343492B00D018E7EDE7291C201CFFF70B
:10E1B0004DFE2023184A11780B40137000D161E7FF
:10E1C000134B1D78F1E7049D019B124E0133DBB226
:10E1D00001936B461B79069A3370019B934200D1E1
:10E1E00005E1191C0098FFF75DFE7F22084B0A4EDF
:10E1F00018700A4B1B5C934333701DD0044B0135E0
:10E20000EDB21D70631980331B788342DCD0E4E6E5
:10E21000FD2D0020FE2D0020FF2D00209C8D0300F1
:10E22000888D0300040000206E8D0300088E03001B
:10E23000A5920000928D0300307020286ED0232814
:10E2400075D02E287BD0262800D180E0402800D130
:10E250009BE05E2800D1A2E02B2800D1AAE03A285A
:10E2600000D1B6E0252800D03FE76B1C6D4ADBB239
:10E270001370E31880331B786B490B70452B37D133
:10E28000A81CC0B2231880331B78684E3370684EC8
:10E29000F65CF60900D18AE010700B70522B00D1A9
:10E2A00085E0532B00D182E0442B00D17FE04C2B42
:10E2B00008D10335EDB21570651980352B78592BCF
:10E2C00075D08AE6462B00D087E6EB1CDBB21370D4
:10E2D000E31880331B780B70552B00D07DE6043596
:10E2E000EDB21570651980352B784C2B5FD074E634
:10E2F000492B00D071E6AB1CDBB21370E3188033FE
:10E300001B780B704E2B00D067E60335EDB215700D
:10E31000651980352B78472B49D05EE6201C291CD7
:10E32000FFF7AAFD7F223378934340D055E6201CA7
:10E33000291CFFF7A1FD33785B0638D44DE6201C7D
:10E34000291CFFF799FD33781B0730D445E6201CC4
:10E35000291CFFF791FD102233781340337026D12A
:10E36000304B1B78E118803109783170482900D092
:10E3700033E601332B49DBB20B70E31880331B7893
:10E380009343432B00D028E611E0201C291CFFF703
:10E3900073FD042332781340337008D11DE6201C2E
:10E3A000291CFFF769FD33789B0600D415E61D4B49
:10E3B0001D7809E71B4B0135EDB21D7065198035DD
:10E3C0002B78452BF3D010229343492B00D004E641
:10E3D000EDE7291C201CFFF74FFD2023124A11787E
:10E3E0000B40137000D1EFE60E4B1D78F1E7019D55
:10E3F0000098291CFFF756FD7F2303403D2B02D0D8
:10E400007A1CD7B2E3556A1CD2B2010605D5064A7A
:10E4100035701370049B0393ADE5151CE8E709B054
:10E42000F0BDC046FD2D0020FF2D0020FE2D002058
:10E430009C8D0300F0B587B0039205910D9A039966
:10E44000051C541A0CAA12782021101C884305D0F0
:10E45000302A05D00CAA0292012204E0224A00E0F0
:10E46000224A02921022019280221A4005D0E30F24
:10E470001B195B10E71A1C1C03E001210B4012D191
:10E480001F1C002C12DD261C019B04969E4200DD01
:10E4900004936B6828680299049A9847049BF61ABB
:10E4A000002EF1DC03E0271C141C00E00024039B79
:10E4B000002B06D01A1C28686B6805999847039BA7
:10E4C000E418002F0DDDE419019B3E1E9E4200DD85
:10E4D0001E1C28680299321C6B689847BF1B002FCE
:10E4E000F2DC201C07B0F0BDF09F0300DF9F0300AB
:10E4F000F0B593B01F1C18AB10CB05901B780D1C0A
:10E50000161C0793CB070BD48B0703D1814B0A68EA
:10E510009A4205D0281CF3F7BDFB012540000543B6
:10E5200081231C4209D1079B302B06D11A9B1B9AD1
:10E53000934200DA1A9200231B93281C15F0B7FBB4
:10E540000AAA131C00280DDDA30703D52B23137083
:10E55000123B05E0131C620704D520221A70192310
:10E5600004AA9B18E20618D5022E03D130221A7095
:10E570007A1C10E0082E08D130221A70A20501D4AE
:10E5800001330AE03A1C0E3205E0102E05D130228C
:10E590001A703A1C17325A70023300220AA91A70F4
:10E5A0005B1A0693A30600D52C320EAB0B931023F7
:10E5B0000C9300231B990D93012901DD40210C438D
:10E5C00004A9CB75FBB20096610614D50021029315
:10E5D000019103922B1C0BA80CA90DAAF7F7AAFD19
:10E5E0000378061C2D2B15D104AAD3750D9B01367B
:10E5F000013B0D930EE00AA90191029303922B1C9B
:10E600000BA80CA90DAAF7F795FD1B9B061C012B67
:10E610004BDC02E01B9B012B6ADC00273D1C6306E0
:10E6200021D5172104ABC9180B78002B0AD0002381
:10E630000122009301920598FFF7FCFE1A9B2D180A
:10E64000013B1A93069B002B0DD00023012200935F
:10E6500001920598069A0AA9FFF7ECFE1A9B069A02
:10E660002D189B1A1A931B9B012B00DD1A93079BF5
:10E67000059800931A9B311C01930D9A231CFFF7F8
:10E68000D9FE2D18002F09D02023002200930197D6
:10E6900005982149131CFFF7CDFE2D180B980EABE2
:10E6A000984234D014F0FBFF31E00D9A1B9B93424B
:10E6B0001CDB1A9A934206DA0127D51A274004D0A8
:10E6C0002F1C002501E000273D1C01239C43002D49
:10E6D00009D000221F330093019505980E49131CA1
:10E6E000FFF7A8FE051C3023079398E7131CE0E70B
:10E6F0000D9A1B9B934200DA131C172204A952188F
:10E700001278511E8A419B18069A9B18D1E7281C43
:10E7100013B0F0BD30D30200BF740300F0B5071C86
:10E7200000248DB005920D1C2B78002B09D18D4251
:10E730000BD96E1A3868321C7B689847A419291CBB
:10E7400003E0252BF3D00135EEE70B78002B00D149
:10E7500034E120230026013109930B78002B12D0DD
:10E760002D2B01D12C3B02E02B2B02D1293B1E4348
:10E770000FE0202B01D11C3BF9E7212B01D1193BE4
:10E78000F5E7302B02D00023069304E040220993E2
:10E7900016430131E1E70B781A1C303A092A07D8F1
:10E7A0000A22069801314243D318303B0693F2E720
:10E7B00008912E2B27D14B782A2B05D00B1C013327
:10E7C0000893002307930CE0089B02330893059BF2
:10E7D0001D1D1B680793DB43079ADB171A4007923E
:10E7E00015E0089B1B781A1C303A092A09D80A221E
:10E7F00007994A43D318303B0793089B013308938A
:10E80000EFE7059D03E00123059D5B420793089B0D
:10E810001B786C3B59425941089B5B1808931B7845
:10E820000493002B00D1C9E0642B00D187E013D8FA
:10E83000502B00D191E004D8453B022B00D89CE03E
:10E84000B2E0049B622B1AD032D8582B00D0ABE038
:10E850002B1D0593412383E0049B712B34D005D8F5
:10E86000672B00D889E0702B77D09DE0049B752B37
:10E8700058D0782B71D0732B00D095E036E02B1D4B
:10E8800005932B68002B07D0099B381C0093069B2F
:10E890004C490193042206E0381C0522099B4A4991
:10E8A0000093069B0193331CFFF7C4FD241882E0FC
:10E8B0002B1D05932B680BA90B70099B381C00932B
:10E8C000069B01220193EEE72B1D0BA928680593F7
:10E8D00014F0DAF8079B011C013301D10B9B07935D
:10E8E000099B381C0093069B019311E02B1D2D689A
:10E8F0000593002D0ED0079B013303D1281C1CF07B
:10E900009DFD0790381C291C099B0093069B0193D1
:10E91000079AC8E7099B381C0093069B2B49019373
:10E920000622C0E72B1D059361230093099B0196E6
:10E930000293069B381C0393296800220BE02B1DD1
:10E9400005936123381C01220093099B01960293D1
:10E95000069B039329680A230CE02B1D0593612372
:10E960000093099B381C0293069B002203931023FB
:10E970000196296818F05FF898E7072307359D434B
:10E980002B1C28686968083305930EF023F8099B4F
:10E99000011C0093069B381C0193079B049A029369
:10E9A000331C18F0B7F881E73868089901227B68B2
:10E9B00098470134059508990131B4E6201C0DB043
:10E9C000F0BDC046CD9F0300D29F0300D89F030037
:10E9D00008B50B1C4179021C012904D1C06A191C1D
:10E9E00016F04FFA04E0006B0249D26A16F085FA7D
:10E9F00008BDC04628D7020008B50B1C4179021C8F
:10EA0000012904D1C06A191C16F05BFA04E0006BFE
:10EA10000249D26A16F071FA08BDC04618D7020042
:10EA200008B50B1C4179021C012904D1C06A191CCC
:10EA300016F047FA04E0006B0249D26A16F05DFA5C
:10EA400008BDC04638D7020008B53F22014B18F078
:10EA50003FF908BDE176020008B59122014B18F09C
:10EA600037F908BD05FC0000F7B5041CC579868A96
:10EA70000F1CC18A00200191E071A082E082111C6C
:10EA8000201C1A1C0F4B18F023F9A368002B18D177
:10EA9000E18A002908D0A38A002B05D1206B15F04C
:10EAA000EAFD206B15F079FCA38AE28A201C391C50
:10EAB00018F0BEF86B1E9D416B469B88E571A682DF
:10EAC000E382F7BD09F8000038B58368002B0BD14D
:10EAD000041C0D1C0548111C19F011FAA060201C23
:10EAE000291C0C3018F059F938BDC04678FD0200D9
:10EAF000F0B58DB06B4601921B79041C4371012364
:10EB0000E16203610B780D1C012B02D000219B4AAE
:10EB100046E0019B012B07D9836B01991E68231CDA
:10EB2000406B2A1C0833B047AB68181C049314F0E0
:10EB3000C6FB63790490032B0FD109900C2109A81F
:10EB400014F0D6FBA36B021C9B68606B0999984775
:10EB5000A3686883002B00D009E1049814F0AFFB90
:10EB600004900378011C002B23D00A3B0F2B1CD8E8
:10EB700009A918F031F8099B772B14D004D8032287
:10EB80000292312B17D008E0812B04D0022202928E
:10EB9000992B10D001E001230CE0201C0499784A45
:10EBA000FFF792FFE8E0002304E0201C754AFFF71E
:10EBB0008BFF02230293049814F081FB5A210490E6
:10EBC00004A814F095FB049D0390039B9D4200D183
:10EBD000C2E004952B78432B00D1B8E0392B03D049
:10EBE000201C0499684ADBE7281C05A914F071FB76
:10EBF0000378061C912BF3D114F061FB059B98421E
:10EC0000EED1301C05A914F064FB0378071C0A3B05
:10EC10000F2BE5D814F053FB059B061E9E42DFD058
:10EC20000378A02BDCD114F04AFB059B9842D7D186
:10EC300006A9381C17F0D0FF301C14F045FB9C21AE
:10EC4000079007A814F054FB011C079814F02BFB45
:10EC5000069B061C2E2B1FD1012804D10798037890
:10EC60000A3B0F2B03D9201C0499484A98E72669D0
:10EC7000731C2361019B012B66D909A917F0ACFF16
:10EC8000A36B606BDB68311C099A984700285BD145
:10EC9000201C04993E4A83E72F2B15D1012803D16C
:10ECA00007980378032B03D0201C0499394A77E78F
:10ECB000019B012B48D9A36B676B1E6914F0DFFA27
:10ECC000011C381CB0473FE0302B27D1012803D965
:10ECD00007980378032B03D0201C04992E4A5FE782
:10ECE000019B012B30D908A914F0BAFA012707902B
:10ECF00007980378032B03D0201C0499274A4FE779
:10ED000009A914F0ADFAA36B07905B69606B0899D1
:10ED1000099A01379847B742EAD115E0019B012BC8
:10ED200012D9032800D95BE7079B181C099314F03C
:10ED3000C6FA0A9014F0C3FAA36B0B909F69606B3C
:10ED40000699321C09ABB847A368002B0FD1281CC9
:10ED500014F0B5FA051C38E76379012B04D9A36BCD
:10ED6000606B5B6802999847A368002B04D0201C55
:10ED700004990C3018F011F80DB0F0BD0CA0030090
:10ED800030A003003DA0030065A0030088A003009D
:10ED9000A4A00300B4A00300D0A00300F5A00300CA
:10EDA00008B5024AFFF790FE08BDC04617A1030050
:10EDB00030B50B7885B04C1C002B7AD00C1C051C90
:10EDC000032B09D1081C03A914F04AFA0399041C67
:10EDD000286B15F07BFA6CE0012B07D149780234DF
:10EDE000052966D0006BF7F73BFE62E0042B07D1E4
:10EDF0008978637809021943006B15F0ADFA16E0C3
:10EE0000052B19D14379042B02D0006B2A490CE061
:10EE100088784B780002184303A913F035FE039954
:10EE20002D6BFDF719F8011C281C15F0A1FA201C08
:10EE300014F045FA041C3CE01A1C0A3A081C0F2A7C
:10EE400008D803A917F0C8FE0399041C281CFFF773
:10EE5000BFFD2EE0082B0BD103A914F0F7F9039B9B
:10EE60002A6A9B00041C9958286B15F081FA20E04F
:10EE700002AA03AB01A914F053FA041C0299286BEF
:10EE8000F7F7A4FD019B0D4A9B009B58281C211CF1
:10EE9000002B03D10A4AFFF717FE09E0039A9847AF
:10EEA000AB68002B04D0EB68002B01D1029BEB6018
:10EEB000039C201C05B030BD74E0020018F0020075
:10EEC00034A10300F0B587B005930B1C141C5A1E27
:10EED00093410091DBB2061C0599201C019300258B
:10EEE00014F0E1F9019B0290AB4209D0009B1B7822
:10EEF000842B05D1291C306B029A15F03AFC009D39
:10EF0000271C029B013B0493019B0393059B9F429B
:10EF10001CD03B78842B0ED1002D06D1306B039989
:10EF2000049A15F026FC3D1C05E0301C391C214AD2
:10EF3000FFF7CAFD3BE0381C14F0C1F9039B071C26
:10EF400001330393049B013B0493DFE7002D07D1BA
:10EF5000019A029B94466344191C306B15F0FDFB2B
:10EF6000019B002B1CD0009BAB4205D1281C14F048
:10EF7000ABF9011C301C01E0301C0099002200F0AC
:10EF80001BF80DE0AC420FD1201C14F09DF9011CC0
:10EF9000301C002200F010F8201C14F090F9041C22
:10EFA000059B9C42EED102E0301C211CF1E707B02A
:10EFB000F0BDC0464CA10300F0B50B78171C1A1C1D
:10EFC0000A3A85B0041C0D1C0F2A0FD8081C03A98F
:10EFD00017F002FE201C0399002F01D0022F02D14E
:10EFE000FFF70AFDE1E0FFF7F3FCDEE0192B01D8A3
:10EFF0006F4AD8E01A3B7C2B00D183E004D8252B44
:10F0000076D0772B06D0CBE07E2B00D188E0912BF9
:10F010006ED0C5E0081C02A914F05BF9061C022F93
:10F0200003D0201C311CFFF7C3FE301C14F047F93D
:10F030000299061C17F0C8FD002800D0B0E0337814
:10F04000922B14D1301C03A914F043F9061C301C78
:10F0500014F035F9039A0190904208D2022F01D1A1
:10F06000019EF4E7201C311CFFF7A2FEF8E733787D
:10F07000A12B19D1022F04D1206B15F013FA206BAC
:10F080000FE0301C14F020F9011C201CFFF790FE4B
:10F09000206B012F05D115F0D9F9206B15F0A9F9D6
:10F0A0001DE015F0BEF91AE0A22B79D1301C14F046
:10F0B0000BF903A917F090FD012F07D1206B15F074
:10F0C000BBF9206B039915F072F908E0022F02D109
:10F0D000206B15F0D0F9206B039915F095F9301CD1
:10F0E00014F0EDF8029917F06FFD00285DD157E09C
:10F0F000002F51D103A9281C14F0EBF8391C021C75
:10F10000201C3CE0081C03A914F0E3F80399061C3A
:10F1100017F05AFD002843D1002F3DD1351C17E0D0
:10F12000002F39D1081C03A914F0D3F80399051C4A
:10F1300017F04AFD031E04D0201C391C3A1C3B1C4E
:10F1400027E02A789A2A03D0201C291C1A1C20E0C8
:10F1500003A9281C14F0BDF8061C14F0B0F80378BD
:10F160009D2B04D10022201C311C131C11E09E2B6E
:10F1700007D103A914F0ADF8311C021C201C039B1D
:10F1800007E0BE2B0CD014F09AF80021031C321CAF
:10F19000201CFFF797FE08E0201C291C054A02E00E
:10F1A000201C291C044AFFF78FFC05B0F0BDC046A7
:10F1B00066A1030099A103007EA10300F0B50B78BE
:10F1C00091B00A3B041C019105920F2B00D9ECE091
:10F1D000081C14F074F80378912B00D0E5E0019836
:10F1E00014F06DF80DA914F074F8037842780A3B16
:10F1F0001B021343AD2B00D0D7E014F060F8037866
:10F20000051CA02B00D0D0E014F09EF8002800D000
:10F21000CBE0281C14F053F80D9B984200D0C4E0BA
:10F22000281C14F051F89C210E900EA814F060F8E0
:10F230000E9B051C0293012302980F9314F03FF8D4
:10F24000061E0E90AE4210D014F039F80E90A8426F
:10F250000ED00378032B00D0A7E00FA914F000F81C
:10F260000E90A84200D0A0E002E07A4B029E0293EA
:10F27000029B1B784833DBB2022B00D895E0337831
:10F280004833DBB2022B00D88FE00D9B181C04938F
:10F2900014F015F8059A2769831A5A1E9341021C27
:10F2A0005B421A400F9B03920593238B278309939C
:10F2B000638B0A93E38B0B937B1C0693BB1C079316
:10F2C0006B461B8B6383A38BE383FB1C08933B1D63
:10F2D00023613578033D6B1E9D41EDB2002D03D0B7
:10F2E000201C311CFFF764FD0299201CFFF760FD14
:10F2F000206B089915F0EBF80799206B14F0B2FF1A
:10F30000206B15F099F80022201C0199FFF754FE9C
:10F310000499201CFFF74CFD206B069914F0A2FF06
:10F32000206B059914F0D2FF206B122115F080F9A3
:10F33000206B089914F096FF206B002D05D015F076
:10F3400085F8206B15F097F805E015F075F8201C8E
:10F35000311CFFF72DFD059B206B1921002B00DAD6
:10F360001A2115F065F9206B0121079A15F0BBF8F9
:10F370006B469B8C23836B461B8D63836B469B8DF7
:10F38000E383039B002B03D0201C191CFFF710FD07
:10F39000206B391C14F066FF206B15F061F8002D0E
:10F3A00056D0206B15F05CF852E0238B256903934F
:10F3B000638B6E1C0493E38B66830693AB1C0293F2
:10F3C000A38B0198E383244B2B432383EB1C236102
:10F3D00013F075FF011C201CFFF7EAFC071C206BD3
:10F3E00015F0D2F8206B311C14F03CFF206B029911
:10F3F00015F0D4F8201C01990022FFF7DDFD391C1F
:10F40000201CFFF7D5FC071C206B14F022FF0028FE
:10F4100003D1206B311C15F05AF8206B029914F0BF
:10F4200021FF206B15F0C6F86B469B8923836B4642
:10F430001B8A63836B461B8BE383059B9F4203D030
:10F44000201C391CFFF7B4FC206B291C14F00AFFA8
:10F4500011B0F0BDE04003000080FFFFF0B5171CC5
:10F4600085B0041C081C0D1C13F029FF391C061C58
:10F4700017F0AAFB019000281CD02379201C002B38
:10F4800011D0E36A1E78002E0DD11321FFF7A0FAE8
:10F49000291C201CFFF78CFC206B0121321C331C23
:10F4A00015F0A6F902E0291CFFF782FC206B14F08E
:10F4B000D7FF58E033783B2B1BD1291C201C01229D
:10F4C000FFF77AFD301C13F0FFFE4378811C4E3BA2
:10F4D000DBB218260A2B01D8244AD65C201CFFF781
:10F4E00067FC206B311C15F0A3F8201C291C02229C
:10F4F00037E03C2B2ED1301C03A913F0EAFE061C8A
:10F50000071C039B9F4205D0381C13F0D8FE0197BF
:10F51000071CF6E70199201CFFF74AFC206B14F04A
:10F520008BFF201C291C0022FFF746FD019B9E42F9
:10F5300019D0301C13F0C3FE019B051E9D4202D062
:10F54000206B14F079FF311C201C0022FFF734FDE2
:10F550002E1CEBE7311C201CFFF72AFC201C291C69
:10F56000019AFFF729FD05B0F0BDC04601A00300D8
:10F57000F0B589B0041C0D1C059104921F1C0029D4
:10F5800024D18379002B27D0C36A02911B78012BE9
:10F5900023D10521FFF71CFAE26A108D854211DAAA
:10F5A000D16AEB00CB1801215E780E4208D05A8850
:10F5B000206B14F0CEFD0022206B0221131C97E07B
:10F5C0000135EBE7201C00214B4A22E005A89C21D5
:10F5D00013F08EFE029000E0029300231E1C059D96
:10F5E00000930393019308E0281C1E4313F06CFE64
:10F5F0000390281C13F063FE051C029B9D4254D00F
:10F600002B78B82B08D1B73B1E42EDD0201C291C0B
:10F610003A4AFFF759FA6DE0B92B0CD1B73B1E42BD
:10F6200003D0201C291C364AF3E7281C1E4313F084
:10F630004BFE0090DDE7BA2B2BD1281C13F044FEC3
:10F64000051C13F03CFE0378BE2B09D1201C291C9D
:10F65000062217F0DFFB281C013713F030FEC9E744
:10F660002B780A3B0F2B03D9201C291C254AD0E7F5
:10F67000281C07A917F0B0FA051C0799206B14F095
:10F680006BFE291C201CFFF793FB019B051C01331B
:10F69000A8E7019B201C291C002B01D01A4AB8E7BF
:10F6A000FFF786FB0137051CA7E7002E15D0039B4B
:10F6B000002B03D1206B14F070FE03E0201C039993
:10F6C000FFF776FB009B002B03D1206B14F065FE47
:10F6D00003E0201C0099FFF76BFB049B206B391C97
:10F6E000019A002B03D0331C15F08CF802E0331C78
:10F6F00015F07EF809B0F0BDC5A10300E3A1030039
:10F70000FAA1030012A2030033A20300F0B589B0EE
:10F71000041C039103A8072113F0EAFD0027E36A04
:10F7200001905E7E0398019B98424AD005A913F090
:10F73000D0FD4021039003A813F0DAFD06A9051CB3
:10F74000039817F049FA069B02902A2B19D1A84278
:10F750000DD2029813F0B3FDA84208D1029807A970
:10F7600017F03AFA079B2B2B07D02D2B07D0201C24
:10F770000021244AFFF7A8F920E001261EE0042614
:10F780001CE0201C0399FFF713FB0137039003983B
:10F79000A84208D007A917F01FFA07990390206B19
:10F7A00014F005FEF3E7281C059917F00DFA002860
:10F7B00004D1A071291C201CFFF7FAFA059B0393C2
:10F7C000B0E7181C13F080FD019B03901B78011C0F
:10F7D000321C201C242B02D117F0B3FA01E017F0E1
:10F7E0002FFD051C013F06D30022206B0121131CB5
:10F7F00014F0FEFFF6E7201C291CFFF7FDF809B006
:10F80000F0BDC04655A20300F7B50A780824131CC2
:10F81000293BA343DBB2002B02D10133C37168E063
:10F82000131C2A3BA343DBB2002B62D0131C0A3B00
:10F830000E1C041C0F2B1DD9081C282A13D101A94A
:10F8400013F047FD071C13F03AFD019B0025984279
:10F8500012D013F034FD019B051CC31A5A1E9341AC
:10F860005B421D4008E013F02FFD071C13F027FD3D
:10F87000051C01E00F1C0025381C01A917F0ACF98C
:10F88000E379002D02D02A78002A0AD1002B30D14A
:10F89000E38A002B2DD0201C311C164AFFF714F9E7
:10F8A00027E0002B1ED0A38A01339BB2A382012B39
:10F8B0000CD1E18A206B002902D014F0DCFE01E0BB
:10F8C00014F06BFD206B002114F0FCFE291C201CA1
:10F8D000FFF76EFA206B019914F03EFD206B14F0D7
:10F8E000FDFE06E0E38A201C0133E382291CFFF7BA
:10F8F0005FFAF7BD73A20300F0B5041C0E1C056986
:10F9000087B003936B1C0293AB1C0361291C006B33
:10F91000171C14F016FE201C17F066F9311C201C71
:10F92000FFF746FA206B14F04BFE206B029914F09F
:10F93000CEFD206B291C14F095FC206B14F0A7FF62
:10F940002669731C2361039B9F4200D191E0381C00
:10F9500013F0BAFC002305932369051C01930133BE
:10F9600023610378002B0FD113F0A9FC13F0A7FC3F
:10F97000039B984223D0201C291C4B4AFFF7A4F874
:10F98000A38B013BA3838CE0071C6A2B07D113F0E8
:10F990009BFC071C13F093FC05A917F01DF9206BC5
:10F9A00014F04AFD391C201CFFF702FA206B2121BC
:10F9B00014F03EFE206B0021019A14F094FD281CE7
:10F9C00013F07DFC071C206B14F04AFD05990029FB
:10F9D00003D1206B14F044FD02E0201CFFF70CF86B
:10F9E0000025206B14F03CFD059BAB4209D0256936
:10F9F000206B6B1C2361291C14F0AFFD201C17F039
:10FA0000F3F8391C201CFFF7D3F9059B071C002BCA
:10FA100002D0206B14F0D4FD206B14F0F2FD059B96
:10FA2000002B19D0206B0F21F7F71AF8206B291C37
:10FA300014F018FC206B0F21F7F712F8201C059921
:10FA4000FEF7DAFF201C0599FEF7EAFFA38B206B77
:10FA5000013BA38314F08DFD206B311C14F037FDA6
:10FA6000206B019914F0FEFB206B032114F0F6FBD0
:10FA700069E7A38B206B013BA38314F07AFD206B15
:10FA800014F009FF206B029914F0ECFB0C9B002B87
:10FA900003D0201C191CFFF78BF9206B311C14F0CC
:10FAA000E1FB07B0F0BDC046A1A20300F0B587B0EE
:10FAB00003914379012B42D1C36A041C1B78002BAC
:10FAC00003D1204AFFF700F839E0039B03A8432144
:10FAD000019313F00DFC02900398029B98422ED0E4
:10FAE00005A90B2717F078F802AB059DFF180390C6
:10FAF000291CE06A3A1C15F02CFB3B78061C002BF5
:10FB000006D10378042B03D0201C01990E4A0CE087
:10FB1000E06A291C15F04AFB002803D00378023B59
:10FB2000022B05D9201C0199084AFEF7CDFFD3E727
:10FB300004233370E06A291C15F04AFBCCE707B0B8
:10FB4000F0BDC046C0A20300E5A2030006A3030067
:10FB5000F0B585B001914379012B2BD10091041CA4
:10FB6000432101A813F0C4FB071C0198B84221D01F
:10FB700003A90B2517F030F8039E6D440190311C4A
:10FB8000E06A2A1C15F0E5FA2B78002B08D10378DF
:10FB9000012B05D0201C0099074AFEF795FFE4E7EA
:10FBA00001250570E06A311C15F0F7FA0028DCD059
:10FBB0000570DAE705B0F0BD24A3030010B5438B50
:10FBC000041C002B02D1054AFEF77EFFA38BE28BBB
:10FBD000618B9A1A206BF6F769FF10BD43A30300EF
:10FBE00010B5038B041C002B02D1054AFEF76CFFF5
:10FBF000A38BE28B218B9A1A206BF6F757FF10BD6F
:10FC00005BA30300F7B50B78041C1A1C0A3A0E1C00
:10FC10000F2A08D8081C01A916F0DEFF201C019944
:10FC2000FEF7FEFE76E0912B3FD1081C694613F0EB
:10FC300050FB011C201CFFF7BBF80378051C922B1E
:10FC400010D101A913F045FB051C281C13F037FB4C
:10FC5000019B071E9F4205D0291C201CFFF7A8F816
:10FC60003D1CF2E72B78A12B0BD1281C13F02CFBA9
:10FC7000011C201CFFF79CF8051C206B14F01CFCD9
:10FC80000CE0A22B41D1281C13F01EFB01A916F099
:10FC9000A3FF0199051C206B14F0F7FB281C0099A9
:10FCA00016F092FF002830D034E0962B2DD1081C9E
:10FCB00013F04AFB002828D1301C13F005FB061C6A
:10FCC00013F002FB051C201C291CFFF79BFF281CBE
:10FCD00013F0F5FA0378011C9D2B1BD09E2B0ED13F
:10FCE00001A913F0F6FA019B051E9D4212D0201CBB
:10FCF000291CFFF787FF281C13F0E1FAF3E7BE2B5E
:10FD000003D0201CFFF77EFF04E0201C311C024AB8
:10FD1000FEF7DAFEF7BDC04670A30300F7B5022672
:10FD20000D1CC16A041C097E314003D0201C291C13
:10FD3000334A5EE001912978081C0A380F2801D85F
:10FD4000281C05E01A32914212D1281C13F0BCFA8B
:10FD500001A916F041FFE279E36A002A04D15A8B27
:10FD600001325A83012635E09A8B01329A83F9E7F2
:10FD70001A33994223D1E379002BD7D10127281CCC
:10FD8000E77113F0E1FA0326002823D1281C13F0B1
:10FD90009BFA0278E36A0A3A0F2A04D81A7E281CD2
:10FDA00017431F7605E01A7E281C17431F7613F0B1
:10FDB0008BFA13F089FA01A916F00EFF0AE0281C4D
:10FDC00013F082FA01A916F007FFE26A137E1E43C0
:10FDD000167605260199002911D06B46DF1CE06AD2
:10FDE0003A1C15F0B6F93B78002B05D1201C291CD4
:10FDF000044AFEF769FE02E0022346700370F7BD75
:10FE00007E41030088A3030038B5C36A041C1B7835
:10FE10000D1C012B04D000210B4AFEF755FE11E00A
:10FE2000081C111C16F0D0FE002804D0206B0F21F6
:10FE3000F6F716FE03E0201C291CFEF7B9FF206B25
:10FE400014F0EBFC38BDC046A1A3030038B5C36A6B
:10FE5000041C1B780D1C013B012B04D90021164A00
:10FE6000FEF732FE26E0081C111C16F0ADFE00283D
:10FE700004D0206B0F21F6F7F3FD18E02B78C22B8E
:10FE800011D1281C13F020FA011C201CFEF790FF52
:10FE9000206B14F079FB206B0F21F6F7E1FD206B4E
:10FEA00014F0E5FC06E0201C291CFEF781FF206B06
:10FEB00014F0CEFC38BDC046BBA30300F0B5041C53
:10FEC00085B00D1C081C111C16F07EFE002804D005
:10FED000206B002114F0F6FB80E02B78AF2B0BD1C8
:10FEE000206B012114F0EEFB201C291CFEF760FFA3
:10FEF000206B14F0F3FB71E0AE2B67D1281C13F0DC
:10FF0000E3F9051C13F0DBF902900378B22B53D10F
:10FF100003A913F0DEF9039B0290984203D002A8D4
:10FF2000992113F0E5F92B78AF2B11D103990298A1
:10FF3000266B13F0B8F9411C301C14F0C3FB291CCC
:10FF4000201CFEF735FF206B14F0C8FB012304E0F2
:10FF5000201C291CFEF72CFF0023029F0193039B0A
:10FF60009F421ED03E78391CAF3E201C73425E413A
:10FF7000FEF71EFF019BF6B2071C002B09D0002ED6
:10FF800003D1201C291C164A08E0206B14F0A6FBA4
:10FF9000E5E7002EE3D0201C291C124AFEF794FD51
:10FFA0001CE0019B002B19D1391C0298246B13F023
:10FFB0007AF9411C201C0FE02B78201C291C0422FC
:10FFC000AF2B00D0052216F025FF07E0291C201CCE
:10FFD000FEF7EEFE0121206B14F098FB05B0F0BD9A
:10FFE000D4A30300F7A30300F0B50123041C0D1CE8
:10FFF000427187B0E1620361111C006B2A1CF6F7A5
:020000040001F9
:100000001DFC6379012B02D100236B84AB84AE68A5
:1000100033781E2B07D1301C13F056F9011C201C1D
:10002000FEF7C6FEB9E02B78002B04D1201C311C52
:10003000FEF7BEFEA7E0012B1ED1301C13F03FF9E6
:100040006379051C012B07D10023201CE371291CB7
:100050000C22564B16F03CFE281C13F030F913F01E
:100060002EF9011C201CFEF7A3FE206B14F0F1F802
:10007000002800D094E086E0022B18D16379012B90
:1000800007D10023201CE371311C1422484B16F0C9
:100090001FFE301C13F013F9011C201CFEF788FE14
:1000A0002B7E5B0779D5206B14F0DAF96BE0033B0C
:1000B000032B3AD8301C13F002F905A913F009F903
:1000C00013F0FDF867790390012F09D10B2202ABE1
:1000D000D218E06A391C15F03CF8022303706F83D4
:1000E0002B78032B04D1206B002114F0D1FA0CE003
:1000F000042B04D1206B002114F0E4FA05E0052B59
:1001000003D1206B002114F001FB201C0121FEF71C
:100110005FFC0023201C00930399331C059A17F001
:100120008DFB2B78062B38D12DE06379012B06D17E
:10013000281C052105AA15F00CF80223037005A957
:10014000A86816F049FD201C0D21FEF741FC201C7B
:100150000C21FEF751FC206B296914F0FDF81121E8
:10016000201CFEF749FCA86813F0A9F813F0A7F8C3
:10017000011C201CFEF71CFE281C052114F0D9FFD1
:100180000378022B04D1206B0F21F6F769FC04E001
:1001900042880521206B13F0DCFF206B14F03DFB3F
:1001A000206BF6F7D9FB07B0F0BDC04665740200BE
:1001B00059740200F0B51E1C0F1C99B009AC002147
:1001C0000590151C201C3C221BF033F8059B099759
:1001D0005B6826712362059B186813F070F813F0B2
:1001E0004EF86062800013F045FA0021059BA06282
:1001F00000951B68201C0A1C16F000FD14F013F873
:1002000000230290206303930026331C626A964207
:1002100002D3002BF8D12CE0A268002AF9D1A16A00
:10022000B2005558002D16D06A69002A13D113F078
:100230008BF96B7E6861291C201C0122042B02D1E2
:10024000FEF756FC01E0FFF7CFFE2369039A9A42BE
:1002500000D2039301230136D8E70B9A002A00D07D
:10026000AEE00499139B8900CB58002B09D1049B65
:1002700001330493129B0693069A049B9342ECD39A
:100280009EE0197EC90723D51C8D601EC000002C7E
:100290001ED0D96A09184D78AE0711D5002A17D09B
:1002A00050880F1C8446506816780690557811CFF8
:1002B00011C262464A80069A0E704D704A6007E08D
:1002C000002A02D1012D00D10A1C013C0838DEE7CA
:1002D000002119841A8D944691421CDAD86ACA000A
:1002E00082181878072802D15468052C11D00138DB
:1002F000052804D81078002801D10130107010783A
:10030000022802D05078C00703D5188C441C1C84E6
:1003100050800131DEE7002161450ED0D86ACA0065
:1003200082181078032806D15078C00703D4188C9F
:100330005080013018840131EEE75E68002E96D0BF
:100340000024328D0792221C07998C421CDAF16A34
:10035000E00009180691097800250339012911D810
:1003600065450FD0DF6AE90079180F78042F07D1AF
:1003700006984768381E4F68B84201D14A8001325A
:100380000135EDE70134DFE70020824200D16EE75E
:1003900060450DD0DC6AC10061180C78042C02D1D4
:1003A0004C78E40702D54C8814194C800130EFE7F3
:1003B000598B92B251185983198C52181A8456E7E6
:1003C00000260298039913F033FF351C129B049307
:1003D0009E4210D30B9B0393002B4FD0149B0CA871
:1003E000996816F0DAFC149B0B9809990C9A1B6912
:1003F00001F038F842E00B9B0493002BEAD1139BE9
:100400000493049AB3009C58002C35D0637E042BCF
:1004100019D1002D03D1039813F078F8051C00239F
:1004200015932D4B09A8211C032217931695FEF74F
:100430005FFB0B9B0493002B1ED109A8211C0422F7
:10044000FEF756FB18E0029B09A8211C0222159317
:10045000FFF7CAFD0B9B0493002B04D109A8211CB4
:100460000322FFF7C1FD0B9B0493002B04D109A8C5
:10047000211C0422FFF7B8FD0136A7E7029813F00C
:10048000DFFE002D02D0281C13F051F8002405983F
:1004900012F064FF139B1B685D69129B02939C42E0
:1004A0000AD2139B0293029AA3009858002801D005
:1004B00014F036FE0134F0E7139813F0F0F80B9ABD
:1004C000002A02D0101CEFF7A6FE281C111C13F006
:1004D00046F819B0F0BDC046ECCB0200F0B5051CE3
:1004E0008BB008680C1CFCF741F9049004A817F0C5
:1004F0000EFC0027049B03900693069B19780029A5
:1005000012D0081CF5F796FB0126002807D006A894
:1005100017F00FFC069B1B78732B00D0061C069B64
:10052000BF1901330693E8E7381CF9F7CBFB01222A
:10053000009007A96068F1F76DFD079B089A059385
:100540009B1801920293022D0AD9A068F1F7A2FB31
:10055000002802DA089BC01826D4059B18180590BD
:1005600000240DE0291CFBF777FC059B009A5D1920
:10057000A31C9B00059501349850049B0133049300
:10058000BC4230D2049B187800282CD0F5F752FBDF
:100590000125002803D004A817F0CBFB051C059803
:1005A000029A43199A4205D21049114817F0A7FC44
:1005B000EFF731FE049B1B78732BD3D0009BA60072
:1005C0009E190195019B0436002B0AD0049B0398C9
:1005D000197805AAF9F7F8F9019B7060013B0193BE
:1005E000F0E76419C9E700980BB0F0BD16A403004A
:1005F00010F80200F0B589B0039101921E1CFCF7BF
:10060000B5F8049004A817F082FB00250290B542CB
:100610004ED2049B187800284AD0F5F70BFB012432
:10062000002803D004A817F084FB041C039B019A44
:100630001B199A4205D21F491F4817F060FCEFF7BB
:10064000EAFD049B1B78732B04D02D190E9BAF0081
:10065000DF191CE00E9B6F1CAD00E85805A90122B4
:10066000F1F7D8FC069B251E9D4200D91D1C2A1CB3
:10067000059903981AF0C0FD039B621B58190021CD
:100680001AF0D7FD039B3D1C1C1903940CE0002CB1
:100690000AD0049B02981978A3005B42FA5803AB76
:1006A000F9F7FAF9013CF2E7049B01330493AEE752
:1006B00009B0F0BD16A4030010F80200F0B50E1C3E
:1006C00089B0039001CE0F1C17F049FB4410211C88
:1006D00004A812F03BFA069D221C281C00211AF0E7
:1006E000A8FD039B00962A19013B3868291CFFF7D7
:1006F00081FF04A90248FBF761FB09B0F0BDC046C9
:1007000048EF020030B50C1C89B0051C0222486875
:1007100005A9F1F77FFCA068F1F7BCFA002809DA17
:10072000069B0393C01805D509490A4817F0E7FB53
:10073000EFF771FD059B069A1918201C0C309A18CA
:100740000090EB1E2068FFF755FF034809B030BD4D
:1007500016A4030010F8020074E00200F0B50024B3
:100760000E1C85B0071C0393081C0D4B111C009434
:10077000221CEFF739FFB01C800012F069FF051C46
:1007800007604660B44208D0039BA700D859F7F72A
:10079000EFFCEF19B8600134F4E7281C05B0F0BD98
:1007A000FFFF0000014B58687047C046882E0020AC
:1007B000014B18687047C046882E0020F0B5194ECE
:1007C00087B03368051C00200C1C019313F049F816
:1007D00030600090206814F0CEF8019B071C336055
:1007E000114E022D03D0A068F1F76AF9061C211CF6
:1007F00063680831A81E0393F9F764FA009B04901C
:100800000593301C03AB03210022F7F7B7FB074B1E
:10081000041C9F4203D0381C211C13F0D5FB201C64
:1008200007B0F0BD882E00206CEB020074E00200DF
:10083000F8B50326051C071C3540022D15D10E4BBB
:100840000340062B11D0FF23DB05C418B443201C42
:10085000002109F0D3FA00280BD080231B06E018F2
:10086000B043064B2843C01804E0381CF4F7E4FA00
:1008700000E0381CF8BDC046070080FF0000808003
:1008800010B5F7F775FC041C201CF7F7BFFC002817
:1008900005D0F1F73FFB0028F6D1024800E00248FE
:1008A00010BDC04678CD020034CD020010B5F7F778
:1008B0005FFC041C201CF7F7A9FC002805D0F1F709
:1008C00029FB0028F6D0024800E0024810BDC046CF
:1008D00034CD020078CD020007B5044B0190694683
:1008E000022000220093FCF7CBFC0EBD06040000A2
:1008F00008B5F1F76BF9034B002800D1024B181C27
:1009000008BDC04634CD020078CD020037B5F1F7FE
:10091000C1F901AB7F2802D8187001213CE02149C0
:10092000820988420AD8402149420A431A703F226C
:100930001040BF3A1043587042312DE01A49040B61
:1009400088420ED8202149420C431C7080245F311C
:100950000A4064420840224320435A7098703C3950
:100960001AE01249884211D81025810C6D422943A2
:1009700019703F21703D0C400A4008402C432A4327
:1009800028435C709A70D8703B3905E008490948E3
:1009900017F0B5FAEFF73FFC181C0122FBF744FAF9
:1009A0003EBDC046FF070000FFFF0000FFFF100034
:1009B00027A4030010F8020008B5021C02490A200F
:1009C000F7F764FC08BDC046BE04000008B5021C71
:1009D00002490A20F7F75AFC08BDC0463E05000050
:1009E000F0B585B002900192101C0C1C0022324917
:1009F0000393F4F755F80090002801D04368009362
:100A0000029B012B03D000252E1C01953CE02068A1
:100A10000024F7F7ADFB271C02900298F7F7F6FBCE
:100A2000051E17D0009B2E1C002B04D0181C291C5F
:100A300013F0A8FF061C002C09D00398311C3A1CA7
:100A4000F7F724FC1D4B984201D0251C3E1C2C1CA2
:100A5000371CE2E7221E2BD101981949F4F720F840
:100A6000002801D0426823E01649174817F047FADA
:100A7000EFF7D1FB009B002B0AD12768002E0DD188
:100A80002668019701350434029B9D42F2D10EE0A5
:100A90000098216813F076FF071CEFE70398391CD4
:100AA000019AF7F7F3FB054B9842EBD1E8E7321CCC
:100AB000101C05B0F0BDC046D606000034CD0200C3
:100AC0001E05000048A4030010F8020037B501A974
:100AD000051CFBF761FE1E4B041C2B40062B05D0AA
:100AE000AB072AD12A681B4B9A4226D1201C0199B8
:100AF00013F0A6F90190012822D1207843B2002BEF
:100B000004DB012320784000184320E07F230134D8
:100B100018403F3B184202D098435B10FAE7227816
:100B20003F23111C9943802904D1800113400134D3
:100B30001843F4E713F0DEF809E0019B012BE0D045
:100B40000549019A054800F01FFCEFF764FB3EBD24
:100B5000070080FF80CA020061A4030000FD0200BC
:100B6000F0B587B0141C02900391101C2349002299
:100B7000F3F796FF2249051C0022201CF3F790FF93
:100B80000123041C049305931E4F002D07D06868B1
:100B90001D4B984203D004A9FBF7FEFD071C1B4D1B
:100BA000002C07D06068184B984203D005A9FBF7CA
:100BB000F3FD051C0024029B154E9C4212D0002C14
:100BC00007D00023301C00930193391C049AFDF7D1
:100BD00031FC039AA300D158301C0022F0F78AFFA1
:100BE0000134E8E70023301C00930193291C059A87
:100BF000FDF720FC044807B0F0BDC046EE0500003C
:100C0000F6050000CDA7030074E002003F4B03008F
:100C100010F002007FB50D4DA84214D0041C0C4EFC
:100C20000122301C211CF0F765FF0A49301C15F029
:100C3000F4FE04230293084B0394DB690748032165
:100C400002AA01939847281C04B070BD74E002000A
:100C500010F002003F4B030028D9020078F3020095
:100C600010B5041C86B002A86A461021EFF746FCB6
:100C70006846211C0122F0F73DFF02A90248FBF75C
:100C80009DF806B010BDC04680CA020070B50C6861
:100C9000031C201CE2074AD4A20703D1244A25687A
:100CA000954244D0012B1FD94868F0F7F3FF061C8A
:100CB000201CF1F753F8051C301C09F0BBFF011C88
:100CC0001C480CF0BBFE041C211C281C09F0E2FC93
:100CD0000CF066FB211C09F0EBFA03239843013B5F
:100CE0001843154BC01822E0201CF1F737F8061CFA
:100CF0000CF056FB051C09F07DFF291C041C301C60
:100D000009F0FAFDFC218905051C09F071F800289D
:100D100001D0013406E0BF21281C090609F068F85B
:100D2000002801D001239C43201C12F0E3FF70BD7A
:100D300030D30200000020410000808013B5041C65
:100D4000081CFBF793F86A46011C201CF7F794F97E
:100D5000009B0248002B00D1014816BD34CD020093
:100D600078CD020037B50024022800D98C68486885
:100D70000D68FBF77BF8094B011C002C00D0084BD9
:100D8000281C6A4698470098002805D00199002938
:100D900003D0F2F77DFF00E0201C3EBDD9800000AB
:100DA0007980000038B5051C081C141CFBF75EF8A0
:100DB000221C011C281CF7F7B7F9014838BDC046B2
:100DC00074E0020008B5F7F7FBF9002804D10348E6
:100DD00017F088F8EFF71FFA08BDC046BCFA02000A
:100DE00030B50B1C85B0141C012805D90A490B48E5
:100DF00017F085F8EFF70FFA09480121C268019250
:100E0000019D0022A84703A90390221C0120EFF7AF
:100E100095FF039805B030BD9BA4030000FD0200C0
:100E20009CC60200F8B50E1C002803D12A4B041CF6
:100E30001D6823E0086883070AD10368274A9342A4
:100E400003D113F09AFE051C0EE0254A934201D00F
:100E5000F0F736FE856B002D06D02A68214BD31A99
:100E6000594259414B421D403068F0F729FE1E4B54
:100E7000C26800249A4201D1346804340020011C65
:100E800012F03DF80027061CBD4209D10025AC42F6
:100E900016D11FE0EA68FB009958002904D10137F8
:100EA000AB689F42F6D3F1E70429F8D0301CEFF786
:100EB000E1FEF4E7A268EB009958002904D101355E
:100EC00063689D42F6D305E00429F8D0301CEFF7A3
:100ED000D1FEF4E7301CF8BD882E002028D902008E
:100EE0006CEB020064CE020075B70000F8B5041C7C
:100EF00003780020834200D19AE0402B01D10125E4
:100F000028E0201C4B4916F0CAFF0028F7D1201C0E
:100F1000494916F0C4FF0028F1D1201C474916F0BA
:100F2000BEFF0028EBD1201C454916F0B8FF002871
:100F3000E5D1201C434916F0B2FF0028DFD1201C68
:100F4000414916F0ACFF0028D9D1201C3F4916F0CA
:100F5000A6FF051C0023191C1E1C1F1C2278002A3A
:100F600051D0272A10D1002B01D0032B08D1627851
:100F7000272A05D1A278272A02D10234243A16E082
:100F80000122012B3DD812E0222A12D1181C1E3A50
:100F9000904309D16078222804D1A078222801D179
:100FA000023404E0002B01D0022B2AD10222D31AF2
:100FB00027E05C2A09D16078272801D0222804D1B3
:100FC0001A1C501E8241A4181BE0002B19D15B2A69
:100FD00012D006D8282A0DD0293A50424241BF1AD1
:100FE0000FE07B2A0AD07D2A0AD05D3A5042424166
:100FF000B61A06E0013704E0013602E0013100E0F4
:1010000001390134AAE70120002F11DC002E0FDC8A
:1010100000290DDC033B83420AD9013C23785C2B79
:1010200006D0101C002D03D00A3B581E8341D8B2B5
:10103000F8BDC046598603008A8603007086030007
:1010400086860300F22C030056B00300B28803002A
:10105000F0B5051C8BB04618049207930296029BCC
:101060005C1EAC4210D32078F4F7D8FD002809D1DB
:101070002078F4F7DFFD002804D123785F2B01D01E
:101080002E2B02D10294EAE70295724B1D68029C56
:10109000B44209D3029BE31A0193B44209D300245A
:1010A000261C271C039448E023782E2BF2D0013411
:1010B000EEE70027AB689F421CD2FB000393039A24
:1010C000EB689858002817D0042815D009A9FBF719
:1010D00063FB019B099A011C93420DD102981A1CD3
:1010E0001AF0B3F9002807D1EB68039A9B185868E7
:1010F000002803D10020AAE00137DBE783070AD1EB
:101100000368554A934203D113F037FD051C0BE0E9
:10111000524A934201D0F0F7D3FC856B002DE9D001
:101120004F4B2A689A42E5D1631C0293AFE7EA6805
:10113000E3009858002804D10134AB689C42F6D3F0
:1011400029E00428F8D009A9FBF726FB099B0590A4
:101150000693069A019B9342EED8029805991A1CB1
:101160001AF073F90028E7D1019B002F0BD0B3428E
:101170000DD8069A93420AD8059AF95CD25C91423E
:1011800004D10133F3E7069E059F00E01E1C039B7C
:1011900001330393D0E7039B002BABD0012B02D08C
:1011A000019B9E4206D9019B079AFB181360019B85
:1011B000F01A4CE0002340260393039BAA68934255
:1011C0003FD2039BEA68DB009858002835D00428FA
:1011D00033D009A9FBF7E0FA099F019B0590BB42B8
:1011E0002BD8029805991A1C1AF02FF9002824D13F
:1011F000331C0F33DC17240FE41824112401A41B23
:10120000012C00DC10343319DB190027402B0ED8D9
:101210000498A74204DA134915F0FFFB0137F7E7FA
:10122000059915F0FAFB099BF618361905E00498A4
:101230000D49059A15F0BDFC099E039B01330393EC
:10124000BBE70498094915F0E8FB012040420BB0C8
:10125000F0BDC046882E002028D902006CEB0200A9
:1012600064CE0200CDA70300C6A403003F4B0300D9
:10127000F7B51F1C0023061C0093081C0D1C111C35
:101280001A1C0B4BEFF7B0F9102012F0EEF9041E08
:1012900004D1084A084B094CDA6104E0281C391CC7
:1012A000F8F710FDE06000232660201CA360FEBD5F
:1012B000FFFF0000F8DC0200882E0020982E00209E
:1012C00010B5013810C9F8F7FDFCE060004810BD0A
:1012D00074E00200F8B57F23171C151C041C0E1CBB
:1012E0001F409A430AD17B1E012B07D80B68586810
:1012F00011F0C5FB011C201C15F08FFB022F04D13F
:10130000201C0F4915F089FB01E0002F12D1F36872
:10131000002B02D05A68002A04D1201C094915F07C
:101320007CFB0CE0012A05D1201C99680022F0F713
:10133000E1FB04E0201CF1682A1CF8F757FCF8BD1B
:10134000A1870300BF740300C36803485A68002ADA
:1013500000D098687047C04674E00200136810B56A
:10136000002B0ED17D2902D1C368136009E0054B23
:1013700004689C4205D1BA2903D1141CFFF7E4FF8D
:10138000206010BDBCFA02000EB470B5051C87B019
:10139000102012F06AF9041E06D11B4B1B4A1D6176
:1013A0009861DA611A4C29E0002105608160012012
:1013B000F8F788FC0B9B051CE060002B1ED0181C66
:1013C00025211AF023F8061E08D10B981AF036F8DA
:1013D000321C011C0B98FAF727FD0EE002A8102121
:1013E00011F09DFB0CAA02A80B990192EFF7E6F809
:1013F000084802A9E568FAF7E1FCA860201C07B0DC
:1014000070BC08BC03B01847882E0020F8DC02002E
:10141000982E002080CA020008B5031C820708D15C
:10142000064A0168914204D1054AD96801209142D7
:1014300003D0181C0349FAF75DFB08BD6CEB0200F2
:10144000711201007CFB020010B5041CF0F738FBA0
:10145000034BC2689A4200D024690023A36010BDE8
:1014600071120100F7B5161C0193041C0F1CF0F754
:1014700027FB174BC2689A4200D02469A568002D4B
:1014800009D10C2012F0F1F8A06000281ED003232F
:10149000E580A38010E0E388A18802338B420BDB58
:1014A00003318900281C012212F0F5F800280DD024
:1014B000A388A0600333A380E288A168930003326D
:1014C000E280019ACB181F605E609A60F7BDC0464B
:1014D0007112010070B5151C041C0E1CF0F7F0FA17
:1014E000064BC2689A4200D02469A368002B01D140
:1014F000336001E0E28832602B6070BD7112010040
:10150000F0B5836999B05A1E04925A1D9200821850
:101510000432079102920F21012206339B00C31867
:10152000043303930369019006A81A4009180A704E
:10153000032293430A930CA8EEF752FE031E01D038
:1015400000F08CFD019A5568D468079A002A26D0CD
:101550002A785E2A23D00798079300F0BEFCAB7868
:101560006A781B021343B84AEB189B186360EB7848
:101570000834236023685A0600D1B1E20A9A013B7D
:101580005268920700D49FE2221C08C205236360C0
:10159000141C0A9B1F680A9B0C3B0A933D1C019B71
:1015A0006F1C5D602B78181C10385A2801D900F088
:1015B00005FD08F03DFA5B005D0062000305640074
:1015C0000305730081008700030589009E00AF00BA
:1015D000BE00CD00DB00EA00EF00F70005011901B5
:1015E0002901380155015E01710189019601030548
:1015F000030503050305A301A5011A05AC01B2010A
:10160000BC01C401D101DE01E901030503050305A5
:10161000F90126029C029C02B902CF02D302E60223
:10162000E602D4FF030503050305030503050305CF
:10163000030503050305F20204031503260334031F
:101640003D03520363037B039703A90354048004FF
:10165000A70495040305C003CC03D703E003F003FC
:101660000B0420043C04DE04EE04FE04774B00E08F
:10167000774B6360043400F0E5FC764BF9E76B7858
:101680005B06DB177F213A78DB01114052B20B4336
:101690000137002AF6DB5B0001220BE000237F21EB
:1016A0003A78DB01114052B2CB180137002AF6DB41
:1016B0000622DB001343DCE70323FD1C9D432F1CA4
:1016C00008CFD6E70023D4E700237F213A78DB0157
:1016D000114052B2CB180137002AF6DB9B005B4267
:1016E000029A9858002800D049E25B485B4900F014
:1016F0005CFD00237F213A78DB01114052B2CB1808
:101700000137002AF6DB029A9B005B42985812F0E0
:1017100059FCE7E700207F223B78C0011A405BB20A
:1017200010180137002BF6DB251DF6F761FB00F0E2
:101730003EFC00207F223B78C0011A405BB21018AB
:101740000137002BF6DB251DF6F720FB00F02FFC00
:1017500000217F223B78C9011A405BB25118013742
:10176000002BF6DB206813F023F926E200217F220C
:101770003B78C9011A405BB251180137002BF6DBE8
:101780002068221CF6F7A8FC74E7251DF6F748FB35
:1017900000F00DFC251F286821680422F0F706FCE4
:1017A00000F036FC00237F213A78DB01114052B271
:1017B000CB180137002AF6DB9B005B4200F012FCDD
:1017C00000237F213A78DB01114052B2CB18013758
:1017D000002AF6DB029A9B005B4298582168251F7D
:1017E00012F0F2FB00F015FC00207F223B78C001D4
:1017F0001A405BB210180137002BF6DB2168251F59
:10180000F6F722FB00F005FC00207F223B78C001A8
:101810001A405BB210180137002BF6DB2168251F38
:10182000F6F72AFBF5E300217F223B78C9011A4035
:101830005BB251180137002BF6DB231F20681A68B2
:10184000F6F772FC07E2C0460380FFFF78CD020086
:1018500074E0020034CD0200FCF90200CAA40300C7
:10186000231C221F083B106821681A68F0F79EFBB2
:101870003BE100237F213A78DB01114052B2CB18C3
:101880000137002AF6DB029A9B00D31A1A68002A55
:1018900000D12AE700223EE000257F223B78ED01BF
:1018A0001A405BB255190137002BF6DB029BAD00E5
:1018B0005D1B286812F086FB002800D115E7286818
:1018C000002112F081FBBDE300207F223B78C001A4
:1018D0001A405BB210180137002BF6DBF6F7C0FA9E
:1018E000B0E300207F223B78C0011A405BB21018A1
:1018F0000137002BF6DBF6F7CBFAA3E32368B8E653
:101900002368A360231F1B68636008349AE3231FC6
:101910001968226821601A6094E3221F1368216805
:101920002360231C083B1868106019608AE3AB78B9
:101930006A781B021343ED18D94BEF1882E3AB789A
:1019400020686E780593F0F7E5FAEF1C251F2C1C34
:10195000002800D176E321E0AB7820686E7805930B
:10196000F0F7D8FAEF1C251F2C1C002800D069E3E3
:1019700014E0AB7820686E780593EF1CF0F7CAFA94
:10198000002800D131E309E0AB7820686E78059338
:10199000EF1CF0F7BFFA002800D026E3059B1B02DE
:1019A0001E43C04BF618E8E0261C27681721381C98
:1019B000221C0836F6F790FB381C1621321CF6F76D
:1019C0008BFB0020321C011C12F0E4FFAB786A781C
:1019D0001B0213430A9A0F210C320A920A9AEF1C37
:1019E000FB181360022206ABC9180A9D0B7813433B
:1019F000221D13436B6000230A9A0B709360A06052
:101A00000DE0261C2568A84B083E9D4209D1656063
:101A1000A56003200021321C12F0BCFF3560341C8D
:101A200010E3012129402CD06D10231F012D10D16E
:101A3000251C1A680C3D05929B4A03201A60002160
:101A4000226062602A1C12F0A5FF059B2B60032315
:101A500015E0251C3268103D05921A680320069295
:101A6000914A002132601A6022602A1C12F092FF13
:101A7000059B069A2B60231C0C3B1A6005233360E0
:101A8000E9E033683560251C103D23602A1C0320E3
:101A900012F080FFF0F73EFA00280DD00122824BB1
:101AA00006A92B600A9B5B6813400E325218137014
:101AB0000A9B0C3B0A93ACE223682B60231C043C7A
:101AC00022680C3B1A60AAE70A9A06A8516801220C
:101AD0000A400F2109180A700A9A0C3A0A924AE53C
:101AE000221F1768002B00D1B5E00C3CAAE2AB78AE
:101AF0006A781B0213430A9AEF1C0C320A920A9A64
:101B0000FB1813602B780A9A403B584258410F212A
:101B1000430006A8091808780343234353600023B1
:101B20000A9A0B7093608DE22068FFF775FC251F01
:101B3000002803D0EEF76AFB2B6817E223685A4AA5
:101B40002C1C934200D17DE25B10DBB2012B00D054
:101B500010E592E12068F6F70BFB2EE0AB786E788B
:101B60000593019BEF1CDC602068F6F729FB002839
:101B700005D1059B043C1B021E43BF1962E2606055
:101B800078E50A9B06A95A68012313400F225218D0
:101B900013700A9B0C3B0A9354E200207F223B788F
:101BA000C0011A405BB210180137002BF6DB83002E
:101BB000E41A0434211CF8F785F8206042E2002082
:101BC0007F223B78C0011A405BB210180137002B0E
:101BD000F6DB8300E41A0434211C11F090F9ECE7E1
:101BE00000237F213A78DB01114052B2CB18013734
:101BF000002AF6DB9B005B4218592168EFF73AF8A0
